:100000000C94E3050C942A060C942A060C94192DE2
:100010000C942A060C942A060C942A060C942A06A0
:100020000C942A060C942A060C94ED1F0C94291F9C
:100030000C94D6220C942A060C942A060C942A06B8
:100040000C942A060C942A060C942A060C942A0670
:100050000C942A060C9489220C942A060C942A06E5
:100060000C942A060C942A060C942A060C942A0650
:100070000C942A060C942A060C942A060C942A0640
:100080000C942A060C942A060C942A060C942A0630
:100090000C942A060C942A060C942A060C942A0620
:1000A0000C942A060C942A060C942A06560B560B1E
:1000B000890B890BFC0B1B0D1B0D1B0D1A0C8E0CD9
:1000C0009F0C9F0C17131A13381345134C136C1302
:1000D0006F13A313C51362146214D013D213D61373
:1000E000FA131B141E14211443143B1D621D0B1F15
:1000F000621D0B1FAE1DD11D0B1FC61ED61E3A273B
:100100003A274D274D2743274D274D274D273A277F
:100110003A2748274D274D274827072C7AA5BA6C40
:10012000C590DA3B9365FC8BBC53F810FD3C5692AE
:10013000834DBD879D3AB63DCBC9BF5BBE73DA0F19
:10014000C93F05A84CCDB2D44EB93836A9020C50DF
:10015000B9918688083CA6AAAA2ABE000000803F62
:10016000000000000000000000000000000000008F
:10017000000000000000000000000000000000007F
:10018000000000007E0F00D4FFFFFFC700000078D2
:1001900000000000000000002A2B280000000000E2
:1001A0000000000000000000000000290000000026
:1001B0002C1E3420212224342627252E362D373894
:1001C000271E1F202122232425263333362E37389D
:1001D0001F0405060708090A0B0C0D0E0F1011125B
:1001E000131415161718191A1B1C1D2F3130232D27
:1001F000350405060708090A0B0C0D0E0F10111225
:10020000131415161718191A1B1C1D2F3130354CD5
:1002100000DA0281FFD9F1DB20A4A62EAF00A0C036
:1002200000A1C800AED580A81FD300408D142000C7
:1002300005010902A10185020901A10005091901B1
:10024000290815002501950875018102050109306D
:1002500009311581257F95027508810609381581B8
:10026000257F950175088106050C0A380215812540
:100270007F950175088106C0C005010980A101852F
:100280000319012AB700150126B7009501751081E1
:1002900000C0050C0901A101850419012AA002155D
:1002A0000126A002950175108100C00660FF09615A
:1002B000A1010962150026FF009520750881020939
:1002C00063150026FF00952075089102C0050109FD
:1002D00006A101050719E029E71500250195087514
:1002E0000181029501750881010507190029FF1593
:1002F0000026FF00950675088100050819012905EB
:10030000950575019102950175039101C009025B84
:1003100000030100A0FA0904000001030101000923
:1003200021110100012240000705810308000A098C
:100330000401000203000000092111010001222232
:1003400000070582032000010705030320000109BF
:100350000402000103000000092111010001227BB9
:10036000000705840320000A1201000200000008B3
:10037000EDFE099002000102000112034C00690029
:100380006C007900350038002D00580000000E0385
:1003900064006500690075006300710000000403DB
:1003A00009040000000000003E5B4F5B3E003E6B16
:1003B0004F6B3E001C3E7C3E1C00183C7E3C1800EF
:1003C0001C577D571C001C5E7F5E1C0000183C18EB
:1003D0000000FFE7C3E7FF00001824180000FFE754
:1003E000DBE7FF0030483A060E002629792926006F
:1003F000407F05050700407F05253F005A3CE73C4C
:100400005A007F3E1C1C0800081C1C3E7F00142262
:100410007F2214005F5F005F5F0006097F017F009D
:10042000006689956A0060606060600094A2FFA227
:10043000940008047E04080010207E2010000808A4
:100440002A1C0800081C2A0808001E1010101000A2
:100450000C1E0C1E0C0030383E383000060E3E0ECE
:10046000060000000000000000005F000000000720
:1004700000070000147F147F1400242A7F2A120032
:100480002313086462003649562050000008070311
:100490000000001C224100000041221C00002A1C18
:1004A0007F1C2A0008083E08080000807030000009
:1004B0000808080808000000606000002010080418
:1004C00002003E5149453E0000427F400000724913
:1004D000494946002141494D33001814127F10004C
:1004E0002745454539003C4A494931004121110918
:1004F0000700364949493600464949291E0000008F
:1005000014000000004034000000000814224100E4
:100510001414141414000041221408000201590993
:1005200006003E415D594E007C1211127C007F494D
:10053000494936003E41414122007F4141413E0050
:100540007F49494941007F09090901003E41415164
:1005500073007F0808087F0000417F4100002040B1
:10056000413F01007F08142241007F40404040008D
:100570007F021C027F007F0408107F003E41414142
:100580003E007F09090906003E4151215E007F09B6
:100590001929460026494949320003017F01030019
:1005A0003F4040403F001F2040201F003F40384058
:1005B0003F006314081463000304780403006159C6
:1005C000494D4300007F41414100020408102000D2
:1005D000004141417F0004020102040040404040CC
:1005E00040000003070800002054547840007F2892
:1005F00044443800384444442800384444287F00A8
:1006000038545454180000087E0902001824241C91
:1006100078007F080404780000447D4000002040FA
:10062000403D00007F102844000000417F40000052
:100630007C04780478007C0804047800384444443E
:1006400038007C1824241800182424187C007C0806
:100650000404080048545454240004043F44240073
:100660003C4040207C001C2040201C003C4030408E
:100670003C004428102844004C9090907C00446436
:10068000544C440000083641000000007700000090
:100690000041360800000201020402003C26232625
:1006A0003C0000000000008080808000000000000E
:1006B00080E070180C1830E080000010F8901030C6
:1006C000783010B8FC3810000000000000F8FCF88A
:1006D000000000000000000000000000001C9C1C46
:1006E00000000000F8FCF80000000000001CFCF80E
:1006F000C000000000000080E0F87C1C000000F05A
:10070000FCFCFC1C1C1C1C1C1C1C1C000000000015
:1007100000C0F0F8381C1C1C1C1C1C3CF8F0E0004D
:10072000E0F0F0F0E0ECEEF7F37020007C7C7C7EF3
:10073000007E7E7E7F7F7F000080C0E07E5B4F5B1F
:10074000FEC00000C000DCD7DEDEDED7DC00C0006B
:100750000000000000000000000000000000000099
:10076000000000000000000FBCE0818181838382D3
:10077000870C183060C000001FFE90B9FFBB919835
:100780003C1811133F1100000000000000FFFFFFA4
:1007900000000000000000000000000000FFFFFF5C
:1007A00000000000FFFFFF00000000000000000349
:1007B0000F7FF8E080F0FC3F0F0100000000003FD9
:1007C0003F3F1C1C1C1C1C3C78F8F0E08000000023
:1007D00000C3E7FF7E3C3878787070F8FFDF870051
:1007E0000F1F3F7F7F7F7F7F3F1E0C001F1F1F3F1C
:1007F000003F3F3F7F7F7F00307B7F78302020307D
:10080000787F3B0003000F7F0F0F0F7F0F00030067
:1008100000000000000000000000000000000000D8
:100820000000183C24666341C18180808080808004
:1008300081C14162386C4CC681818080808080811A
:10084000C14362361C1800000000000000FFFFFFDB
:10085000C0C0C0C0C0C0C0C0C0800000007FFF7F5B
:10086000000000007FFFFFC080000000E0E0C0C08B
:10087000C0E0F97F1F0700000000000000000070CA
:10088000F0E0E0C0C0C0C0E0F0F87F3F0F00000023
:100890000F3F7FF9E0E0C0C0C0C0C0E0F97F3F1F5C
:1008A0000000000000000000000000000000000048
:1008B0000000000000000000000000000000000038
:1008C0000000000000000000000000000000000028
:1008D0000000000000000000000000000000000018
:1008E00000000001010101010101010102020202F7
:1008F00002020202020303030303030303040404CA
:100900000404040405050505050606060606070792
:1009100007070708080808090909090A0A0A0B0B4A
:100920000B0C0C0C0D0D0D0E0E0E0F0F0F101011E9
:10093000111112121313141415151616171718186F
:1009400019191A1A1B1B1C1D1D1E1E1F20202122D7
:1009500022232424252626272829292A2B2C2D2D1D
:100960002E2F30313232333435363738393A3B3C3A
:100970003D3E3F404142434445464748494A4C4D2D
:100980004E4F50515354555658595A5B5D5E5F61F6
:100990006264656668696B6C6D6F70727375777889
:1009A0007A7B7D7E8082838587888A8C8E8F9193E7
:1009B0009596989A9C9EA0A2A3A5A7A9ABADAFB10E
:1009C000B3B5B7BABCBEC0C2C4C6C9CBCDCFD1D4F3
:1009D000D6D8DBDDDFE2E4E7E9EBEEF0F3F5F8FA99
:1009E000FDFF00AF00AE29001E001F002000210007
:1009F00022002B0014001A00080015001700E00068
:100A000004001600070009000A00E1001D001B0099
:100A10000600190005000000E200E30001512C006F
:100A20002F003500270026002500240023002D007C
:100A3000130012000C0018001C00340033000F00DB
:100A40000E000D000B00E5003800370036001000E6
:100A500011000000E7002A000251280030000100C8
:100A6000010001000100010001003A003B003C00D0
:100A70003D003E003F0035001E021F022002210201
:100A8000220201000100010001000100010000003C
:100A9000010001000100010001000100010001004E
:100AA00001000100010045004400430042004100F4
:100AB00040003502270226022502240223023102C9
:100AC00030022F022E022D02000000000100010062
:100AD000010001000100010001000100010001000E
:100AE000010035001E001F002000210022003A00F6
:100AF0003B003C003D003E003F0040004100420002
:100B00004300440045000000010001000100010015
:100B100001000100010001000100010001000100CD
:100B20002700260025002400230000004F0052006B
:100B3000510050000000310030002F002E002D0029
:100B40002E02000001000100010001000100000070
:100B50000000000000000000000000000000000095
:100B60000000000000000000000000000000000085
:100B70000000000000000000000000000000000075
:100B80000100010001000100000000000000000061
:100B90000000000000000000000000000000000055
:100BA0000000000000000000000000000000000045
:100BB0000000000000000000000000000100010033
:100BC00001000100000011241FBECFEFDAE0DEBFFC
:100BD000CDBF04B603FE27C08091B1069091B20646
:100BE000A091B306B091B4068730904BA740B04BAC
:100BF000D1F41092B1061092B2061092B306109280
:100C0000B40614BE84B7877F84BF0FB6F894A89546
:100C100080916000886180936000109260000FBE38
:100C2000E0E0F8E3099512E0A0E0B1E0E4EEFAE6D6
:100C300002C005900D92A039B107D9F726E0A0E9CE
:100C4000B2E001C01D92A13BB207E1F70E945E0E27
:100C50000C9470350C940000882371F19CEF980F70
:100C6000913A60F4EAE4F6E09281891301C01282BD
:100C7000319696E0E035F907B9F70DC090E2980F8C
:100C8000983058F4982F977081E001C0880F9A959A
:100C9000EAF70E94B9190C9438269BE5980F933017
:100CA00020F480E090E00C942F23885A873120F4C0
:100CB00080E090E00C9419230895CF93882309F4E1
:100CC00053C09CEF980F913AF8F4C82FECE4F6E08B
:100CD00082E596E02191C21721F08E179F07D1F788
:100CE0000DC0EAE4F6E08281C81301C01282319699
:100CF00046E0E035F407B9F70E9438266C2F8AE405
:100D000096E00E94FF2213C090E2980F983090F472
:100D1000877021E030E0A90102C0440F551F8A9579
:100D2000E2F7CA0190912803892B80932803CF9181
:100D30000C943826EBE5E80FE33040F4F0E0E55B97
:100D4000FD4F808190E0CF910C942F23885A8731FA
:100D500058F4E82FF0E0EE0FFF1FE25BFD4F8081BB
:100D60009181CF910C941923CF9108951F93CF9324
:100D7000DF93CDB7DEB767970FB6F894DEBF0FBE2F
:100D8000CDBF4B8B5C8B6D8B7E8B8F8B61111092EB
:100D9000A40686E09E01235F3F4FD901E82F1D92F4
:100DA000EA95E9F795E0FE017396D90101900D925D
:100DB0009A95E1F79C894E895F897B897D879E871B
:100DC0006F87598B488BF901DE01179601900D92C0
:100DD0008A95E1F7CE0107960E94512781113EC006
:100DE00086E0FE013796DE01119601900D928A95FC
:100DF000E1F7FF81E8856A857B856115710531F032
:100E0000EF3F31F481E0FF3F19F403C081E001C0FE
:100E100080E080FD23C02091700630E0C90101967A
:100E2000877099274091A10650E08417950779F1C2
:100E3000F983EA837D836C8396E0929FD001939F30
:100E4000B00D1124AF58B94FFE01319601900D92AB
:100E50009A95E1F7809370060E94732616E08091C0
:100E6000A106909170068917F9F0189FC00111240E
:100E70008F58994F0E9451278823B1F08091A10685
:100E800090E00196877099278093A106E8CF0E9491
:100E90008C29109270061092A106EAE6F6E086E030
:100EA000DF011D928A95E9F767960FB6F894DEBFC9
:100EB0000FBECDBFDF91CF911F9108953F924F920A
:100EC0005F926F927F928F929F92AF92BF92CF92DA
:100ED000DF92EF92FF920F931F93CF93DF93CDB7E3
:100EE000DEB729970FB6F894DEBF0FBECDBFFC0169
:100EF0008081918123813481232B31F09F3F31F414
:100F000091E08F3F19F403C091E001C090E090FDA3
:100F100069C67F0185E0DE01119601900D928A95E8
:100F2000E1F7F701228189819A81222349F00E9409
:100F3000E926182F682F89819A810E94072903C00A
:100F40000E94DA28182F69817A81812F0E94322429
:100F50008C01F7018281882309F4F1C0C801825114
:100F60009F45409708F09CC58FEF93E00E94B52EF7
:100F70008111EEC0025147E0842E42E0942E0023FE
:100F800079F08114F4E09F0609F4E2C0C4010E94E4
:100F9000B52E811101C001502FEF821A920AEFCFB6
:100FA0001E821F8218861986442443943AE0332E09
:100FB00084010F5F1F4FC4010E94B52E8E831F82D4
:100FC000882309F4C5C09FEF980F933060F48F8396
:100FD0004E8232E0830E911CC8010E94B52E888794
:100FE000811102C0B5C048018E010A5F1F4FF80190
:100FF00020812223E9F2213009F04CC08181813027
:1010000049F46801F2E0CF0ED11CF80182810E9400
:10101000A8290AC0823051F46801F2E0CF0ED11C39
:10102000F80182810E945D06860186C0833049F402
:101030006801F2E0CF0ED11CF80182810E942C06DB
:10104000F3CF843019F00F5F1F4F76C0F801228173
:101050000E5F1F4F80E090E030E0205331092A30CE
:10106000310568F4389EA001399E500D1124C90144
:10107000840F951F0F5F1F4FF8012081EDCF009760
:1010800009F45AC0EFE9FFE03197F1F700C0000022
:101090000197F5CFE22FF0E0E057FE4F5490822FFA
:1010A00086958695869590E0FC01E058FE4F649009
:1010B0002770712C022E02C0759467940A94E2F78F
:1010C000F1E06F227724FC01E059FE4FA490B12C8F
:1010D000022E02C0B594A7940A94E2F731E0A3224D
:1010E000BB24FC01E05AFE4FC490D12C02C0D59421
:1010F000C7942A95E2F781E0C822DD2461147104C7
:1011000019F081EE0E945D06A114B10419F086EE7B
:101110000E945D06852D0E94A829AB2819F086EE55
:101120000E942C06672819F081EE0E942C06CD281B
:1011300019F08CE20E94A8290F5F1F4F58CF003191
:10114000FFE51F0769F581E00E9437290E94081C0E
:101150008091A206877009F445C5F7018281882332
:1011600009F440C58091B20282FD3CC582E0299617
:101170000FB6F894DEBF0FBECDBFDF91CF911F91A8
:101180000F91FF90EF90DF90CF90BF90AF909F9026
:101190008F907F906F905F904F903F900C94432979
:1011A00001312FE51207D9F582E0CECF0C331105BE
:1011B00008F094C4F801E956FE4FD0801F92DF92E8
:1011C0001F930F93F70180811F928F9381811F924C
:1011D0008F9386E891E09F938F931F9288E18F937E
:1011E00084E992E09F938F930E9456320FB6F89451
:1011F000DEBF0FBECDBF80919202909193024497C3
:1012000009F45DC48091920290919302FC01E8522E
:10121000FD4FD08201969093930280939202033FF8
:101220003CE5130759F190F4083D9CE51907E9F0F6
:10123000093DECE51E07A1F1073DFCE51F07B1F5EF
:1012400006E221EE41EE67ED7CE514C0053F2CE59A
:10125000120701F1C8F0063F8CE5180739F507E2DF
:1012600025EE46EE66EF7CE505C007E225EE45EE8D
:1012700068ED7CE5C7010E9455236ACF06E221EEA6
:1012800040EE63EF7CE5F6CF07E225EE44EE64EF37
:101290007CE5F0CF06E221EE42EE65EF7CE5EACF99
:1012A00008E221E045EE69ED7CE5E4CFF7018281BB
:1012B000882309F445C110923B060330FDE51F0762
:1012C00058F40A3F2CE5120760F4C80182509C458F
:1012D000449708F01FC105C001363DE5130709F02A
:1012E00019C10E942D199093B2028093B10200316E
:1012F0008CE5180709F4CAC008F041C00830ECE5D5
:101300001E0709F4A4C0F0F404302CE5120709F418
:101310008CC068F402308CE5180709F482C00330F1
:101320001C4509F0E7C08091B1028260E1C006303F
:10133000ECE51E0709F483C008F085C08091B10276
:101340008860D6C00C302CE5120709F490C068F410
:101350000A308CE5180709F47EC008F084C00E94AA
:101360008C298091B1028068C3C00E30ECE51E0765
:1013700009F481C008F086C08091B10294C00C3F8E
:101380002CE5120709F47BC038F504318CE5180709
:1013900009F49AC058F40231ECE51E0709F47AC04A
:1013A00008F07EC08091B1028F7BA2C00A3F2CE57D
:1013B0001207F1F108F03FC005311C4509F09AC051
:1013C0008091B10282FB222720F991E0922790FBC5
:1013D00082F990FB83F98CC001159DE5190709F48A
:1013E00067C050F48091B2020E3FFCE51F07C1F1C7
:1013F00008F05BC08D7F65C002303DE5130709F43E
:1014000071C008F46DC001361D4509F073C08091AC
:10141000B10284FB222720F991E0922790FB84F906
:1014200067C08091B102816063C08091B10216C033
:101430008091B20216C08091B202826042C0809157
:10144000B102806155C08091B102806251C080912B
:10145000B10280644DC08091B1028860846048C050
:10146000826081602EC08091B1028E7F41C08091E8
:10147000B1028D7F3DC08091B102877F39C08091DC
:10148000B20214C08091B1028F7E32C08091B1024D
:101490008F7D2EC00E948C298091B1028F7728C049
:1014A0008091B102877F8B7F23C08D7F8E7F09C0A3
:1014B0008091B202982F909591708E7F892B90FB2E
:1014C00081F98093B20216C00E948C298091B102EA
:1014D00087FB222720F991E0922790FB87F908C02B
:1014E00061E001C060E08EE090E00E94C92E02C081
:1014F0008093B1026091B1021091B20284E090E059
:101500000E94C92E612F82E290E00E94C92E0E94A3
:101510008C291ECE0631FCE51F0761F5809128035A
:101520008A7A91E009F490E09093AC02882311F05C
:1015300065E301C069E28AE496E00E94FF2217C0D9
:1015400006319CE5190709F048C08091AC02882358
:1015500009F4C7C285E3EAE4F6E020E536E09281CB
:10156000891301C0128231962E173F07C1F70E94DE
:101570003826EECD0A352DE5120749F158F401154C
:101580008CE51807B1F00E3D1C4509F042C00E94E1
:101590004919DECD0B35EDE51E07D9F00C351D459B
:1015A000C1F58091B20282FB882780F991E08927FA
:1015B00011C00E948C292FEF34E38CE02150304081
:1015C0008040E1F700C000000E947822C1CD81E098
:1015D00001C080E00E9460291CC0809128038272B3
:1015E000093CECE51E0709F4E7C208F088C2053C97
:1015F0002CE5120709F4D1C208F075C2033C9CE542
:10160000190709F4C0C208F0C3C2023C1C4509F422
:1016100092C2F701828100811181882349F0C801BB
:101620000E94E926D82E682FC8010E94072904C00D
:10163000C8010E94DA28D82EB8018D2D0E943224CC
:101640000E94A417B82E192F982EF7010281A580A9
:10165000A2942FE0A2228091A2068770B9F0002305
:10166000A9F0892F807F803421F080E28B0D8830B3
:1016700068F08091B20282FD09C082E00E94432995
:101680008091A2068770DD24D3948111D12CC12EC4
:10169000C2949FE0C9228C2D90E08C30910508F017
:1016A000CAC1FC01EA5AFF4F0C942C32812F807F73
:1016B0001F70882311F01295107F0023B9F01123B9
:1016C00009F4A7C180E28B0D883010F0911006C09C
:1016D00080912803182B1093280305C08091A4063D
:1016E000182B1093A4060E94382693C18B2D0E94BC
:1016F0002C06112309F49FC180E28B0D883080F104
:10170000992071F110958091A40618231093A406D6
:101710002AC0812F807F1F70803211F01295107FB8
:101720008B2D992021F0F1E09F16D9F149C08091CD
:10173000B20282FF1BC0002369F0112339F08091AF
:101740002803182B109328030E94382680E00E945B
:101750005D0671C180E00E942C06112309F46BC163
:10176000812F0E94B9190E94382665C1002381F09B
:1017700080912903AA2051F021E0A21207C0182B62
:10178000181709F458C11093290355C1812B10C0B3
:10179000AA2021F031E0A31609F44DC10E94B3192B
:1017A00027C0002341F085E08A1508F444C1812F49
:1017B0000E949E2940C194E09A1508F43CC118C0CB
:1017C000002349F0AA2099F3F701858180FF21C108
:1017D0008F708583ECCFAA2059F0893309F028C196
:1017E000FFEF27EE33E0F15020403040E1F71EC11B
:1017F000812F0E9497291FC1812F8695869583701E
:1018000019F0813061F017C1002321F08B2D912F49
:10181000937002C080E090E00E942F2312C1002349
:1018200021F08B2D912F937002C080E090E00E94F8
:10183000192307C1812F8370A9F5011100C14B2D18
:10184000429546954770440F440F8B2D8F7090E062
:101850009C01042E01C0220F0A94EAF7B4FE08C0CE
:101860008FE090E001C0880F4A95EAF7809501C0AB
:1018700080E0169516951370123069F088F49091F7
:101880002A03113019F0822B892302C0922B892B55
:101890000E948829D4C0822B90912A038927F8CFEF
:1018A000822BF6CF002319F0812F817001C086951D
:1018B000882309F4C4C04B2D429546954770440FC8
:1018C000440F8B2D8F7090E09C01042E01C0220FDD
:1018D0000A94EAF7B4FE08C08FE090E001C0880FD8
:1018E0004A95EAF7809501C080E016951695137029
:1018F000123059F078F490917103113019F0822B65
:10190000892309C0922B892B06C0822B90917103E9
:10191000892701C0822B0E94332991C01F700023A8
:1019200039F0812F0E947D298B2D0E949E2987C02E
:101930008B2D0E949729812F0E94372980C08B2DE3
:1019400092EF991679F1991538F0E0EF9E1659F05B
:10195000F1EF9F1611F159C023EF921651F134EFB8
:101960009316B9F052C0002379F084E08A1508F488
:1019700062C01F7181E090E001C0880F1A95EAF7FC
:101980009091710389271FC095E09A1508F453C000
:10199000F0CF8091B20282FF19C0002329F0812F7D
:1019A0008F7126C00023D9F3812F8F710E943729B0
:1019B00042C0002339F01F7181E001C0880F1A95E1
:1019C000EAF701C080E00E94332935C0002399F076
:1019D0001F71812F0E947D298091B20282FD07C074
:1019E000E8E01E9FC001112483608093A206812F2E
:1019F0000E947D2920C081E00E944329F1E0FA1570
:101A0000D0F482E00E94432916C0002321F0AA20CE
:101A100031F28B2D9CCEAA2039F2893349F42FEF75
:101A200037EE83E0215030408040E1F700C00000F5
:101A30008B2D0E942C0688EF8C0D843010F40E94B0
:101A40004523DD2009F4CEC08091A20680FDCAC0E6
:101A5000F70112828595859585950E947D29C7019C
:101A60000E945E078091A2068595859585952996A9
:101A70000FB6F894DEBF0FBECDBFDF91CF911F919F
:101A80000F91FF90EF90DF90CF90BF90AF909F901D
:101A90008F907F906F905F904F903F900C9437297C
:101AA00000313FE5130711F481E006C001318FE5F5
:101AB000180709F07BCB82E00E947D2947CB10926A
:101AC000930210929202E8EDF2E08CEE92E020E2B6
:101AD0008E179F0709F496CB2193FACF80E2D82E78
:101AE0006DCB89E238CD073C2CE5120709F45AC0CA
:101AF00008F05DC049E25AE260E27AE26BC00D3C58
:101B00009CE5190709F469C060F40B3CFCE51F076C
:101B100009F457C008F05AC04CEF59E260EF79E27F
:101B200059C0063D3CE5130708F412CB0D351D45A1
:101B300009F40ECB6ECD80912E0680FF1EC08E7FE5
:101B400080932E0660912E0670912F0680913006AC
:101B5000909131060E94592A80917F05816080937F
:101B60007F059FEFE0E7F2E09150E040F040E1F7C1
:101B700000C000000E94FB24EBCA816080932E0607
:101B800061E086952CC04EE85AE267E97AE222C00D
:101B900047E95AE26EE87AE21DC040E25AE269E2A1
:101BA0007AE218C048E05AE264E17AE213C044E104
:101BB0005AE268E07AE20EC040EF59E26CEF79E257
:101BC00009C044EA51E265EB71E204C045EB51E221
:101BD00064EA71E20E94F524BBCA61E081E00E94E0
:101BE0006B2AB6CA29960FB6F894DEBF0FBECDBFDA
:101BF000DF91CF911F910F91FF90EF90DF90CF90E9
:101C0000BF90AF909F908F907F906F905F904F901C
:101C10003F900895873941F178F4863349F130F4E3
:101C2000843321F1853331F584E227C08439D1F042
:101C3000863901F581E221C0843F71F030F4803FA4
:101C4000D9F0813FB9F481E018C0863F49F030F007
:101C5000873F81F487E011C084E00FC085E00DC0AC
:101C600086E00BC080E209C082E207C083E205C0C3
:101C700085E203C08FE101C080E096E890937A008E
:101C8000982F9072906890937B008F7180648093FE
:101C90007C0080917A00806480937A0080917A0041
:101CA00086FDFCCF809178002091790090917A0098
:101CB0009F7790937A0090E0922B0895CF93DF93D3
:101CC000CDB7DEB7EB970FB6F894DEBF0FBECDBF32
:101CD00084B7877F84BF0FB6F894A8958091600081
:101CE000886180936000109260000FBE90E080E8F1
:101CF0000FB6F89480936100909361000FBE85B792
:101D0000806885BF85B7806885BF83E695E190933D
:101D10009102809390020E946D1F0E948C1F8091FF
:101D2000E20084608093E2007894809167038823C6
:101D3000A1F01091E9001F709091EC00892F817043
:101D400090FD80E8182B1092E9008091E80083FD57
:101D50000E94531C1F701093E90082E084BD93E041
:101D600095BD9AEF97BD80936E001092AD021092D0
:101D7000AE021092AF021092B0020E94DC248111D8
:101D800002C00E94CD240E94F81680930001809129
:101D90000001882321F0109281018DE103C08DE1C3
:101DA00080938101809382010E94F81681110E9424
:101DB000D32C8091000180910001882311F090E0E4
:101DC00001C095E09093BE0285E0891B8093BD021F
:101DD00003E312E0D8018D918D018F3F11F00E9435
:101DE0008D17B2E008331B07A9F70DE312E0F801E5
:101DF00081918F018F3F11F00E948D17F2E0033423
:101E00001F07A9F78AE0EDE1F3E0DF01282F1D921B
:101E10002A95E9F7E3EBF2E0DF011D928A95E9F7F5
:101E20000E943E19811102C00E94491982E090E08F
:101E30000E94B52E809312030E942D199093B20236
:101E40008093B1020E94C019EFE3FCE93197F1F7EA
:101E500000C000000E94C01980911D0380FF08C0CF
:101E60006FEF7FEF80E090E00E94E72E0E947822E3
:101E700083E090E00E94B52E0E9488290E94F81607
:101E8000811102C00E94D62C0E94F816811102C056
:101E900082E001C080E080930D0380E880937203AC
:101EA0000E94672B6DE070E083E292E00E942A1CA2
:101EB000892B09F043C080910D0363E070E081FD40
:101EC0003AC080E292E00E942A1C892BB9F56DE0AD
:101ED00070E080E192E00E942A1C892B79F50E9433
:101EE000BE22DC01CB01805A9541AF4FBF4F80939A
:101EF000330690933406A0933506B0933606E5E793
:101F0000F3E080E092E0DF019C011D92215030401F
:101F1000E1F7F0937C05E0937B058FEF9FEF9093C3
:101F200074038093730381E08093380680933706AF
:101F300010920E0303C08DE192E0C5CF8091BF02E5
:101F4000811136C00E943E19811104C00E944919B6
:101F50000E949B2A88E090E00E94BD2E60932E068E
:101F600070932F06809330069093310680917F0501
:101F7000836080937F056E7F71F40E949B2A88E0C6
:101F800090E00E94BD2E60932E0670932F068093E2
:101F90003006909331060E94472A80912E0680FFDA
:101FA00004C060E086950E946B2A81E08093BF02A6
:101FB00084EF0E940A0E909355018093540185EF9F
:101FC0000E940A0E909357018093560181E091E0A0
:101FD00090933F0680933E06CE0101961C01DE01E0
:101FE0001D96B8AFAFAB80916703853009F048C04C
:101FF00000E112E180916703853009F03DC08091D6
:102000006703843041F10E943F240E94032B109209
:102010004206E8E1F0E020E40FB6F894A895E093DA
:1020200060000FBE2093600083B7817F846083BF10
:1020300083B7816083BF7894889583B78E7F83BF91
:102040000FB6F894A8958091600088618093600035
:10205000109260000FBE80916603882309F4CACFF6
:102060000E94C019EDE1F3E0819181110DC533E0CB
:10207000E732F307C9F7BECF0E948C290E9445239F
:102080000E94C01989AF81110E94BE228DE193E0A8
:102090009BAF8AAFE3E1F3E0DC0100E010E0C02E8B
:1020A000DD9081918D2549F1E12CFF24F394982F47
:1020B0009F21F1F00E94F816882399F0EDA6CEA694
:1020C000DF2081E009F480E08FA70E94CA228160AE
:1020D000782F99AB88AB4DA55EA56FA589A90E9405
:1020E000B606F801ED5EFC4F8081F826F0821AC03A
:1020F000E394FF0C96E0E912DACF0F5F1F4F0A302E
:10210000110569F68FEF8AAB8BAB1CAA0E94CA221D
:102110008160782F9EAB8DAB4AA95BA96CA98EA973
:102120000E94B60680913806882309F427C2809160
:102130000F03909110030E94AF22C29708F41DC1B3
:102140000E94CA229093100380930F0385E793E0C7
:1021500090937C0580937B050E94F816882309F4F0
:1021600008C180917103843091F038F4882361F0C4
:102170008230B9F46FEE71E00CC0883079F08031B4
:1021800081F46AE072E005C063ED71E002C062EEC6
:1021900071E080EC92E00E944F3217C06CEF71E06A
:1021A000F8CF1F928F9385E192E09F938F931F92B8
:1021B00088E18F9380EC92E09F938F930E94563238
:1021C0000FB6F894DEBF0FBECDBF80EC92E00E9448
:1021D000F01B81E00E947F2488ED92E00E94F01BBA
:1021E00081E00E947F2484EF0E940A0EA090540197
:1021F000B09055017C01EA18FB0885EF0E940A0E99
:1022000000915601109157014C01801A910AB701B3
:10221000FF0C880B990B0E942A306B017C01B401E2
:10222000092C000C880B990B0E942A309B01AC01F1
:102230000E943C312B013C01A7019601C701B60168
:102240000E943C319B01AC01C301B2010E940F2FDF
:102250000E94B7310E94F22F072E000C880B990BB9
:10226000181419045CF40E942A309B01AC01C701C8
:10227000B6010E94802F0E94FD2E12C00E942A30BB
:102280009B01AC01C701B6010E94802F0E94FD2E68
:102290009B01AC016BED7FE089EC90E40E940E2F76
:1022A0002B013C0184EF0E940A0E6C01CA18DB0866
:1022B00085EF0E940A0E7C01B601DD0C880B990B9C
:1022C0000E942A304B015C01B701601B710B072E85
:1022D000000C880B990B0E942A306B017C01A50130
:1022E0009401C501B4010E943C314B015C01A7017E
:1022F0009601C701B6010E943C319B01AC01C501AA
:10230000B4010E940F2F0E94B7316B017C0120E0C5
:1023100030E040E05FE3C301B2010E943C312BEDAD
:102320003FE049E450E40E94802F20E030E044EB9D
:1023300053E40E943C310E94F22F7F936F93C701B8
:10234000B6010E94F22F7F936F9385E292E09F93F4
:102350008F933F922F920E948632C1010E94F01B00
:1023600081E00E947F240FB6F894DEBF0FBECDBF80
:1023700004C08DE091E00E94F01B80913806882314
:1023800009F4E1C0209173033091740321153105E4
:1023900009F4D9C080910E038111D5C0682E712C2B
:1023A000EE24E394F12C082E02C0EE0CFF1C0A94DC
:1023B000E2F7A9014E215F21452B11F48F5FEECF8B
:1023C00090910D039301E5E0220F331FEA95E1F7A9
:1023D00090FD12C08295880F807680934F01220F66
:1023E000232F221F330B319520935201815E80935E
:1023F00050011092530112C065E0369527956A95F9
:10240000E1F7220F220F220F20934F011092520169
:10241000295F2093500183E08093530124E630E04C
:1024200047E050E06DE471E088E70E941E2C892BA4
:1024300009F089C080910D0380FD23C0C30155E0E0
:10244000880F991F5A95E1F7AC014B585C4F04E691
:1024500010E020E230E060E488E70E94452C892B00
:1024600009F071C00E945924E094F09480917303A4
:1024700090917403E822F922F0927403E0927303BE
:1024800062C080E2EDEEF2E0DF011D928A95E9F78D
:1024900035E0660C771C3A95E1F747E4442E42E0BC
:1024A000542E63E472E0F20181912F01DB019D91D2
:1024B000BD01A301490F511D4B585C4F90E0835162
:1024C0009D4FFC0127E0C22E9F01281B390BAA2437
:1024D000A39401C0AA0C2A95EAF78A01B12CD8016D
:1024E000DD908D01DA202C2D2B192770922E022ED3
:1024F000000C330BBD2D01C0BB0F9A94EAF79B2E45
:102500003195219531092770332701C0D6942A953A
:10251000EAF79D28D0809D289082B39428E0B212DB
:10252000DECFCA9431963FEFC312CECF8BE448166C
:1025300082E0580609F0B7CF04E610E020E230E070
:102540004DEE52E088CF809137068823B9F00E9483
:10255000BE22009133061091340620913506309149
:102560003606DC01CB01801B910BA20BB30B8F3F16
:102570009F4FAF4FBF4710F40E943F24F9ADF111B8
:102580000E9459240E94032B0E944523909111031D
:10259000891721F00E9445238093110380916703DE
:1025A000843009F0B5C183E08093E9008091E800B0
:1025B00082FFAEC18091E80085FF23C00E94C42045
:1025C00081111DC080E2E82EF12C8E010F5F1F4F9C
:1025D00009C08091F100D8018D938D01B1E0EB1A13
:1025E000F10869F08091E80085FDF3CF8091E80063
:1025F0008B778093E8000E94C420882399F391E0B0
:1026000001C090E08091E8008B778093E8009923E7
:1026100009F47EC1E9818E2F90E0FC013197E3310E
:10262000F10508F04FC1EE59FF4F0C942C321A827D
:1026300089E0A9C08A81823009F43CC2833051F01C
:10264000813009F03FC10E94BE229B838C837D8331
:102650006E833AC1FE013396AAADBBAD8D91BBAF7F
:10266000AAAF81932FA938AD2E173F07A9F72CC128
:102670008A81823009F026C16B817C818D819E81A7
:102680000E94323286E290E024C04C816B818A81C4
:102690000E940C249D8315C20D811E8110270127E5
:1026A00010278C81EB809A813CE0E39E700111241D
:1026B000A8E79A9FE00CF11C1124E80EF11CE80E2B
:1026C000F11C612FC70187960E94C92E602FC70198
:1026D00088960E94C92EF8C00E94D823F5C08A812E
:1026E0008138B1F050F4803809F0EEC020E04B8121
:1026F0006091300680912F0623C08238E9F083383C
:1027000009F0E2C020E0409131066C818B8118C055
:1027100060E08B810E946B2A8B81811103C00E9433
:10272000322AD2C080912E06816080932E0660E00E
:1027300086950E946B2AC8C08B8180933206C4C0E4
:102740000E944725C1C08A81813899F030F48038D1
:1027500009F0BAC08091310616C0823891F08338F2
:1027600009F0B2C080912F068B83809130068C8354
:10277000ABC080912E0680FF02C0869504C080E029
:1027800002C0809132068B839FC060912E067091AB
:102790002F0680913006909131060E94592A94C0EC
:1027A00080E14DC081E08A8389EFEDCF0A811B81F2
:1027B000102701271027CC80D12C7101C801895F17
:1027C0009D4F9701221933092C153D0508F07CC057
:1027D000093FB1E01B0728F40E94B52EF70184835E
:1027E00003C0D70114961C920F5F1F4FBFEFEB1A67
:1027F000FB0AE4CF0A811B81102701271027CC8018
:10280000D12C7101C801895F9D4F970122193309AD
:102810002C153D0508F058C0093FE1E01E0728F4DB
:10282000D70114966C910E94C92E0F5F1F4FBFEF06
:10283000EB1AFB0AE7CF0E94C82346C084E08A83D4
:1028400043C00A811B81102701271027CC80D12C7F
:102850007101C80187969701221933092C153D058E
:1028600098F5003EE1E01E0730F40E94B52ED70136
:1028700014968C9302C0F70114820F5F1F4FFFEF75
:10288000EF1AFF0AE6CF0A811B81102701271027C4
:10289000CC80D12C7101C801879697012219330988
:1028A0002C153D0588F4003E21E0120728F4D701DD
:1028B00014966C910E94C92E0F5F1F4FBFEFEB1A49
:1028C000FB0AE9CF8FEF898380916703843001F59C
:1028D0001091E9001F709091EC00892F817090FD9C
:1028E00080E8182B82E08093E9008091E80080FF67
:1028F0000CC040E050E060E270E0C1010E94F720AF
:102900008091E8008E778093E8001F701093E900B3
:1029100084EF0E940A0E20915401309155017C01F0
:10292000E21AF30A85EF0E940A0E209156013091B7
:1029300057018C01021B130BB701FF0C880B990B7D
:102940000E942A306B017C01B801012E000C880B1B
:10295000990B0E942A304B015C01A7019601C70127
:10296000B6010E943C312B013C01A5019401C50137
:10297000B4010E943C319B01AC01C301B2010E9431
:102980000F2F0E94B7310E94F22F2B013C015B01F7
:10299000072E000C880B990B101611065CF40E9490
:1029A0002A309B01AC01C701B6010E94802F0E9412
:1029B000FD2E12C00E942A309B01AC01C701B60156
:1029C0000E94802F0E94FD2E9B01AC016BED7FE0E9
:1029D00089EC90E40E940E2F6B017C01EFE1AE16B2
:1029E000B1048CF1B2016E517109072E000C880BF5
:1029F000990B0E942A304B015C01C701B6010E946D
:102A00007B2F9B01AC01C501B4010E943C312DEC30
:102A10003CEC4CE45DE30E943C310E94F22F162F07
:102A2000C701B6010E94A9319B01AC01C501B401E7
:102A30000E943C312DEC3CEC4CE45DE30E943C31C7
:102A40000E94F22F02C060E010E019A76AA718A642
:102A50001BA61CA686E0FE01B796DE0191960190AA
:102A60000D928A95E1F71AA21BA36CA31DA21EA2C8
:102A700086E0FE01B196ABEAB6E001900D928A9530
:102A8000E1F70E94B32AAFCA09BD19BD09B400FE1F
:102A9000FDCF8091D8008F7D8093D8008091E00099
:102AA00082608093E0008091E00081FDFCCF0E9475
:102AB0008C29A0CA86E290E00E94B52E1B821C825F
:102AC0001D828E8301CF80E008959091B10292FF24
:102AD0000DC0282F2871283019F4877F846006C024
:102AE000282F2471243011F48B7F886093FF0DC050
:102AF000282F2871283119F4877E846106C0282F79
:102B00002471243111F48B7E88612091B20220FF60
:102B10000DC0382F3871383019F4877F816006C0B6
:102B2000382F3171313011F48E7F886021FF0DC054
:102B3000282F2871283119F4877E816106C0282F3B
:102B40002171213111F48E7E886194FD877E089574
:102B5000AF92BF92CF92DF92EF92FF920F931F93AB
:102B6000CF93DF937C015B016A01809159038A3026
:102B700018F001E010E002C00AE010E0C1E0D0E08F
:102B8000F894B501C701F60109957894811115C033
:102B900021960C171D0794F0CC9F9001CD9F300D0E
:102BA000300D112480E090E045E34A95F1F70000F4
:102BB000019682179307C1F7E3CF81E0DF91CF91B0
:102BC0001F910F91FF90EF90DF90CF90BF90AF904B
:102BD0000895CF93DF93CDB7DEB728970FB6F8945B
:102BE000DEBF0FBECDBF85E0EEE2F6E0DE0111965E
:102BF00001900D928A95E1F780917D0590917E0577
:102C0000A0917F058E839F83A887288540915503D7
:102C10005091560360915703709158033FB7F89451
:102C20008091430690914406A0914506B0914606D6
:102C30003FBF841B950BA60BB70B84369105A105EE
:102C4000B10510F4222329F18091790190917A0144
:102C50008D5B9C4F4091780150E04930510510F058
:102C600048E050E0BE016F5F7F4F0E94463283E034
:102C700090E00E94E02D892B11F080E00DC00E94B1
:102C8000BE2260935503709356038093570390932D
:102C9000580310927F0581E028960FB6F894DEBFA6
:102CA0000FBECDBFDF91CF910895EF92FF921F939A
:102CB000CF93DF9300D000D000D0CDB7DEB77B013B
:102CC00080E090E00E94E02D892B09F065C04091E2
:102CD0005D0150E04115510511F041E050E0609177
:102CE0005E0170915F016D5B7C4FCE0106960E9484
:102CF000463240913B0350913C0360913D037091FB
:102D00003E032FB7F8948091430690914406A0911A
:102D10004506B09146062FBF841B950BA60BB70B3B
:102D200084369105A105B10538F484E493E00E944E
:102D3000131C9E81891791F181E090E00E94E02DA3
:102D4000892BA1F44091670150E04630510510F005
:102D500045E050E060916801709169016D5B7C4FC6
:102D6000CE0101960E94463211E001C010E084E4D9
:102D700093E00E94131C91E02E81281390E0192308
:102D800011F10E94BE2260933B0370933C03809339
:102D90003D0390933E030CC010E001C011E085E0BC
:102DA000E4E4F3E0DE01119601900D928A95E1F7DB
:102DB000112349F085E0FE013196A6E3B3E00190CE
:102DC0000D928A95E1F785E0E6E3F3E0D701019003
:102DD0000D928A95E1F7812F26960FB6F894DEBF03
:102DE0000FBECDBFDF91CF911F91FF90EF9008955F
:102DF00080913503811118C08091D8008061809343
:102E0000D8008AE18A95F1F700C08091D90080FD51
:102E100002C082E001C081E080933503823021F45A
:102E20000E946D1F1092670381E0909135039130ED
:102E300009F080E008950F931F93CF93DF9300D0A4
:102E400000D0CDB7DEB740913F0350914003609171
:102E50004103709142032FB7F894809143069091FB
:102E60004406A0914506B09146062FBF841B950BE2
:102E7000A60BB70B84369105A105B10508F443C034
:102E80000E94F816882319F00E94BE220EC00E94EC
:102E9000BE220091AD021091AE022091AF0230919E
:102EA000B002600F711F821F931FDC01CB010296DD
:102EB000A11DB11D89839A83AB83BC8380916F016F
:102EC000909170018D5B9C4F40916E0150E04530B8
:102ED000510510F044E050E0BE016F5F7F4F0E944B
:102EE000463282E090E00E94E02D892B11F080E0D4
:102EF0000BC00E94BE2260933F03709340038093F7
:102F000041039093420381E00F900F900F900F9038
:102F1000DF91CF911F910F910895F894E82FE295DA
:102F2000EF70F0E031A1282F2F7081E090E001C018
:102F3000880F2A95EAF7982F9095932391A392A151
:102F4000892B82A378940895CF93DF9382389105DB
:102F500069F1B0F48133910509F46FC048F4893206
:102F6000910509F465C08A32910509F46BC08AC0E5
:102F70008533910509F457C089339105B9F082C0B2
:102F8000833E910571F138F4803E9105B1F0823EA7
:102F9000910511F177C0863E9105B9F1873E910503
:102FA000C9F1843E910509F06DC024C02091B102A1
:102FB00020FD53C021FD51C065C08091B10280FD4C
:102FC00046C08091B20280FF48C08091B10284FD6A
:102FD0003FC183EE90E03EC18091B10282FF3AC0D2
:102FE000F4CF8091B10282FD35C08091B20280FDA4
:102FF00034C0EBCF8091B20281FF35C08091B10225
:1030000084FD26C187EE90E025C18091B10283FF47
:1030100027C0F4CF8091B10283FD22C08091B2021B
:1030200081FD21C0EBCF8091B10285FD1FC021C081
:103030008091B10285FD1DC019C08091B10286FD4D
:103040001BC01DC08091B10286FD19C015C089E367
:1030500090E000C182EE90E0FDC080EE90E0FAC00A
:1030600086EE90E0F7C084EE90E0F4C089E290E054
:10307000F1C085E390E0EEC08AE290E0EBC081E32E
:1030800090E0E8C0811532E5930708F069C081152A
:1030900041E5940728F0982F8827816F906ADAC05D
:1030A000883E910568F5803E910508F0D3C0883AC6
:1030B0009105B8F4853A910548F0855AE82FF0E07B
:1030C000E55BFD4F808190E09064C4C08130910544
:1030D00009F4BBC008F4BCC08430910508F4B8C042
:1030E000B9C08F3B910508F0B3C0885AE82FF0E0D3
:1030F000EE0FFF1FE25BFD4F808191819464AAC0B7
:10310000811520E59207F0F09C0174E03695279533
:103110007A95E1F7922F9370482F437021E030E0C9
:1031200002C0220F331F4A95E2F73C68392B8F709B
:10313000982F9695969540E2949FC0011124822B7A
:10314000932B88C0811530E4930718F09F70906A24
:1031500081C09C013A9521153F4108F47BC078C09D
:10316000EC01C11586E5D807E8F5C11525E5D207BC
:1031700048F08C2F0E9465158F7190E0982F88275A
:10318000906268C0C11534E5D30728F09C2F8827CA
:10319000846F906A5FC0AE01437055272C2F26952F
:1031A0002695C115D34578F481E090E002C0880FE0
:1031B000991F4A95E2F740E2249F90011124822B47
:1031C000932B9C6847C081E090E002C0880F991F54
:1031D0004A95E2F740E2249F90011124822B932B21
:1031E0009A6838C0C1152AE5D207F8F4C11539E547
:1031F000D30790F08C2F8F700E94651594E0D695C0
:10320000C7959A95E1F7CF70D0E0DC2FCC27D06935
:103210009E01282BC9011EC0C11548E5D407C0F086
:103220009C2F8827806F906A15C0CE01905681151B
:10323000904270F48D2F8F710E946515282F2F7189
:10324000CE0199279062922B05C081E090E002C0E8
:1032500080E090E0DF91CF910895CF9384E090E0FB
:103260000E94B52EC82F82E290E00E94B52E2C2F2E
:1032700030E0A901582BCA01CF91089580E090E079
:103280000E94C32E893E9E4F11F40C94DC2480E0F2
:10329000089569EE7EEF80E090E00E94E72E60E006
:1032A00082E090E00E94C92E60E083E090E00E94FE
:1032B000C92E10922A0360E084E090E00E94C92E9B
:1032C00060E082E290E00E94C92E60E085E090E03C
:1032D0000E94C92E60E086E090E00E94C92E6FEF48
:1032E00087E090E00E94C92E40E050E0BA0188E0FB
:1032F00090E00E94DB2E60E08DE090E00E94C92EFD
:1033000040E050E0BA0188E190E00E94DB2E60E0EE
:1033100087E190E00E94C92E40E050E0BA018CE1C4
:1033200090E00E94DB2E60E070E080E290E00E947E
:10333000E72E40E050E0BA0188E190E00E94DB2EE9
:1033400080E00E94AF240E94CD2440E050E0BA010A
:103350008FE090E00E94DB2E40E050E0BA0183E174
:1033600090E00C94DB2E80912903811110922903A7
:1033700008958095909128038923809328030895C8
:103380007F928F929F92AF92BF92CF92DF92EF92F5
:10339000FF920F931F93CF93DF93CDB7DEB72F9795
:1033A0000FB6F894DEBF0FBECDBFAE014F5F5F4FCB
:1033B0007A018AE0DA011D928A95E9F703E312E0C7
:1033C0006A0188E3A82E82E0B82E88248394912C89
:1033D000F80180818F3F09F441C0F894E82FE2950D
:1033E000EF70F0E021A18F70A40102C0440F551FBF
:1033F0008A95E2F7CA01922F982B91A392A180950A
:10340000892382A3789400C0EDE3F2E0712C31E0CF
:1034100021912F3F89F0A22FA295AF70B0E0909636
:103420008C9190E02F7002C0959587952A95E2F7D0
:1034300080FD02C0832F01C080E0782A330F52E064
:10344000E334F50729F7D8018C918F3F11F00E94E2
:103450008D17B0EABA95F1F7F60170820F5F1F4F32
:10346000FFEFCF1ADF0AA016B10609F0B1CF4AE08C
:1034700050E0B70183EB92E00E9439328C01892B36
:1034800041F08AE0F701A3EBB2E001900D928A953A
:10349000E1F7F090BE020115110549F081E080933B
:1034A0002D030E94CA2290932C0380932B038091BA
:1034B0002D038823B9F080912B0390912C030E9457
:1034C000AF22059778F0A3EBB2E0EF2DF0E0E35EDA
:1034D000FC4F88EB92E02D9121938A179B07D9F737
:1034E00010922D030115110509F0E3C00E94F81692
:1034F000E091BE02882309F471C07E012BE0E20E48
:10350000F11C85E0D7011D928A95E9F70E2F10E096
:10351000035E1C4F809159038A3048F445E556E11B
:10352000B701C8010E94A815882371F10AC08091D3
:103530002E0390912F030E94AF22843F914070F799
:1035400034C04BE157E1B701C8010E94A815882398
:10355000D9F049EE55E1B701C8010E94A8158823AA
:1035600099F0109259038091BD0290E045E050E03F
:10357000B701835E9C4F0E94393221E020933403CF
:10358000892BF1F400E097C0809159038F3F19F027
:103590008F5F80935903809159038A3020F30E94F2
:1035A000CA2290932F0380932E03809134038823A3
:1035B00049F385E0F70111928A95E9F710923403F7
:1035C000A091BD02B0E0A35EBC4F85E0FE013B963A
:1035D00001900D928A95E1F701E06DC0F0E0E35EA5
:1035E000FC4FF89485E0A4E4B3E001900D928A9535
:1035F000E1F784E493E00E94131C809343037894E2
:10360000F894C0904903D0904A03E0904B03F090A7
:103610004C038091300390913103A0913203B0911B
:103620003303C816D906EA06FB06D1F0C092300370
:10363000D0923103E0923203F09233030E94F816E5
:1036400081110EC00E94BE22C61AD70AE80AF90AE2
:10365000C092AD02D092AE02E092AF02F092B00200
:103660007894F89480915403882309F180FF10C066
:1036700080914D0380FF0AC090912E069160909337
:103680002E0660E086950E946B2A02C00E94322AB4
:103690008091540381FF09C020E040915003609164
:1036A0004F0380914E030E94472510925403789453
:1036B00002C001E010E0802F2F960FB6F894DEBF15
:1036C0000FBECDBFDF91CF911F910F91FF90EF9073
:1036D000DF90CF90BF90AF909F908F907F90089594
:1036E000CF93DF938A3011F481E003C08D3029F449
:1036F00080E0DF91CF910C947F24682F80917B052F
:1037000090917C0526E0FC01A5E7B5E001900D92C3
:103710002A95E1F7603E30F026E0FC0111922A95EF
:10372000E9F70AC0F6E06F9FB00111246E557C4F97
:1037300046E050E00E94AC2EC0917B05D0917C0504
:1037400046E050E0BE0185E795E00E943932892BC2
:1037500049F19E0125573340A90185E056954795CB
:103760008A95E1F781E090E0BC0102C0660F771F07
:103770004A95E2F74091730350917403462B572BFF
:103780002B5F3F4F65E0369527956A95E1F702C0BC
:10379000880F991F2A95E2F7842B952B9093740339
:1037A000809373039E012F56334040917203642F20
:1037B00070E0C9010E94982E481B463010F4240F77
:1037C000311D211582E0380710F020E030E02B5841
:1037D0003C4F30937C0520937B05DF91CF9108957A
:1037E0000F931F93CF93DF93EC01FC010190002016
:1037F000E9F78F0101501109C017D10720F4899111
:103800000E94701BF9CFDF91CF911F910F91089506
:1038100080917103982F9670963011F4886001C0E2
:10382000877F0C943329FC01AC014B5F5F4F8FEF16
:1038300091E32191822728E030E087FF03C0880FC1
:10384000892701C0880F21503109B9F7E417F5071E
:1038500081F70895EF92FF920F931F93CF93DF9319
:10386000EC017B0164E670E088E70E946D2B8C011F
:10387000EC0EFD1ECE15DF0561F017FD0AC0FE013E
:10388000849164E670E00E94EE2B8C012196892BD6
:1038900089F30E94722CC801DF91CF911F910F9183
:1038A000FF90EF9008951F93CF93DF93CDB7DEB7CE
:1038B000AA970FB6F894DEBF0FBECDBFE9E6F3E0DE
:1038C00081E793E02091F10021938E179F07D1F7B4
:1038D00080916A03833009F463C030F4813071F061
:1038E000823009F49DC0B4C08A3009F489C08B309D
:1038F00009F46EC0893009F0ABC020C08091690323
:10390000813A09F0A5C08091E800877F8093E800A4
:1039100080916D0390916E03892B21F468E08DE511
:1039200093E003C060E080E090E070E00E941A2223
:103930008091E8008B778093E8008AC080916903CA
:10394000813209F085C080916D0390916E030097DC
:1039500019F0029709F07CC08091E800877F80937E
:10396000E8008091E80082FD05C080916703811125
:10397000F8CF6EC02091F3008091F20090E0922B7E
:10398000029731F48091F100813011F0863021F4FA
:103990008091F10080935C038091E8008B7754C0A4
:1039A00080916903813A09F053C080916D03909131
:1039B0006E03892B09F04CC08091E800877F8093CB
:1039C000E8008091E80080FFFCCF8091800137C043
:1039D000809169038132E1F580916D0390916E03CE
:1039E000892BB1F58091E800877F8093E8000E94E1
:1039F000C62180916B03809380010E948C2928C08E
:103A000080916903813221F58091E800877F80935E
:103A1000E8000E94C62180916C0380935B0318C06C
:103A200080916903813AA1F48091E800877F8093B7
:103A3000E8008091E80080FFFCCF80915B038093D9
:103A4000F1008091E8008E778093E8000E94C62103
:103A50008091E80083FFDFC18091690390916A0340
:103A6000492F50E04A30510508F0D5C1FA01EB5812
:103A7000FF4F0C942C32803821F0823809F0CBC1F2
:103A800008C08091650390916603992389F0826054
:103A90000FC080916D038F70873008F0BCC1809398
:103AA000E9008091EB0085FB882780F91092E900FE
:103AB0009091E800977F9093E8008093F100109236
:103AC000F10070C1282F2D7F09F0A5C1882319F0BE
:103AD000823061F0A0C180916B03813009F09BC1FD
:103AE000933009F080E0809366032EC080916B03D1
:103AF00081112AC080916D038F702FEF280F26301F
:103B000008F089C18093E9002091EB0020FF1CC0E0
:103B1000933021F48091EB00806214C09091EB000F
:103B200090619093EB0021E030E0A90102C0440FC6
:103B3000551F8A95E2F74093EA001092EA008091BF
:103B4000EB0088608093EB001092E9008091E80020
:103B5000877F8093E8000E94C6215DC181115BC10F
:103B600010916B031F778091E3008078812B809305
:103B7000E3008091E800877F8093E8000E94C621DF
:103B80008091E80080FFFCCF8091E3008068809303
:103B9000E300111102C082E001C083E0809367035B
:103BA0003AC18058823008F036C120916B033091C1
:103BB0006C032C3D53E0350779F583E08A838AE274
:103BC00089834FB7F894DE01139620E03EE051E27E
:103BD000E32FF0E050935700E49120FF03C0E295FB
:103BE000EF703F5FEF708E2F90E0EA3010F0C796D5
:103BF00001C0C0968D939D932F5F243149F74FBF2D
:103C00008091E800877F8093E8006AE270E0CE014F
:103C100001960E941A22B4C080916D0390916E03A8
:103C2000432F552743305105A9F068F44130510521
:103C300009F400C14230510509F0EDC08BE590E078
:103C4000EDE0F3E04BC04132510529F1423251051C
:103C500089F1E1C0C901992781309105A1F058F09F
:103C6000029709F0D8C0EAE7F3E0E4918E2F90E0E4
:103C7000EAE7F3E030C0EEE9F3E0E4918E2F90E064
:103C8000EEE9F3E028C0EEE8F3E0E4918E2F90E057
:103C9000EEE8F3E020C08330910508F0BCC0880F47
:103CA000991FFC01E957FD4F0190F081E02D89E05B
:103CB00090E014C08330910508F0ADC0FC01EE0F18
:103CC000FF1FEF57FD4F0190F081E02DDC01A2585E
:103CD000BD4F8C9190E0009709F49DC02091E800C1
:103CE000277F2093E80020916F03309170032817FD
:103CF000390708F4C90140E0009789F12091670372
:103D0000222309F43DC02530D9F12091E80023FD9C
:103D100037C02091E80022FD2FC02091E80020FF4D
:103D2000EBCF4091F3002091F20030E0342B00976C
:103D300059F02830310540F444914093F100319618
:103D400001972F5F3F4FF3CF41E02830310509F055
:103D500040E02091E8002E772093E800CDCF41117C
:103D6000CDCF0AC080916703882351F0853041F0A0
:103D70008091E80083FD04C08091E80082FFF2CFCB
:103D80008091E8008B778093E80045C0803809F087
:103D900042C08091E800877F8093E80080916803AB
:103DA0008093F1008091E8008E77D3CE811133C0EB
:103DB00080916B0390916C039927029764F5809131
:103DC000E800877F8093E80010916B0310936803ED
:103DD0000E94C621111106C08091E30087FD02C038
:103DE00081E001C084E08093670342E061EC81E000
:103DF0000E94E52142E261EC84E00E94E52142E27A
:103E000061EC82E00E94E52142E260EC83E00E94E6
:103E1000E521809167038091E80083FF10C08091C5
:103E2000E800877F8093E8008091EB0080628093B8
:103E3000EB0005C082E190E0E8E6F3E04FCFAA9600
:103E40000FB6F894DEBF0FBECDBFDF91CF911F91AB
:103E500008951F920F920FB60F9211242F933F9344
:103E60004F935F936F937F938F939F93AF93BF9382
:103E7000CF93DF93EF93FF93C091E900CF708091D0
:103E8000EC00D82FD17080FDD0E81092E90080912D
:103E9000F000877F8093F00078940E94531C10926A
:103EA000E9008091F00088608093F000CD2BCF7006
:103EB000C093E900FF91EF91DF91CF91BF91AF9156
:103EC0009F918F917F916F915F914F913F912F9132
:103ED0000F900FBE0F901F901895E8EDF0E08081D5
:103EE0008E7F80831092E2001092DA001092E1003F
:103EF000A0EEB0E08C9181608C9380818F7780837D
:103F000019BCA7EDB0E08C918E7F8C9380818F7E61
:103F1000808310925A030895CF92DF92EF92FF921E
:103F20000F931F93CF93DF93C8EDD0E088818F7EEE
:103F30008883E7EDF0E080818160808384E082BF48
:103F400081E080935A0388818E7F888302EE10E09F
:103F5000F80110821092DA0081EEC82ED12CF60101
:103F6000108288818F7788838881806888838881A0
:103F70008F7D888319BC109267031092680310929A
:103F800066031092650390EEE92EF12CF701808113
:103F90008B7F808388818160888342E060E080E05D
:103FA0000E94E521F60180818E7F8083F801808167
:103FB00081608083808188608083F70180818E7F2B
:103FC0008083888180618883DF91CF911F910F91D9
:103FD000FF90EF90DF90CF9008951F920F920FB651
:103FE0000F9211242F933F934F935F936F937F937F
:103FF0008F939F93AF93BF93EF93FF938091E100D3
:1040000082FF09C08091E20082FF05C08091E1003B
:104010008B7F8093E1008091DA0080FF2AC080913D
:10402000D80080FF26C08091DA008E7F8093DA006E
:104030008091D90080FF18C080E189BD82E189BDEF
:1040400009B400FEFDCF81E08093670380915A039D
:1040500081110FC00E946D1F0E948C1F8091E20091
:1040600084608093E20005C019BC1092670310922F
:104070005A038091E10080FF17C08091E20080FF29
:1040800013C08091E2008E7F8093E2008091E20075
:1040900080618093E2008091D80080628093D80094
:1040A00019BC85E0809367038091E10084FF30C0F4
:1040B0008091E20084FF2CC080E189BD82E189BD4E
:1040C00009B400FEFDCF8091D8008F7D8093D80089
:1040D0008091E1008F7E8093E1008091E2008F7EED
:1040E0008093E2008091E20081608093E200809101
:1040F0006803882311F084E007C08091E30087FD06
:1041000002C081E001C083E0809367038091670370
:104110008091E10083FF27C08091E20083FF23C0EC
:104120008091E100877F8093E10082E080936703C4
:10413000109268038091E1008E7F8093E10080916E
:10414000E2008E7F8093E2008091E20080618093A4
:10415000E20042E060E080E00E94E5218091F00012
:1041600088608093F000FF91EF91BF91AF919F9194
:104170008F917F916F915F914F913F912F910F9010
:104180000FBE0F901F9018952091E4003091E5002C
:1041900095E64091EC00842F817040FF23C0809110
:1041A000E80080FD1DC080916703882399F0853069
:1041B00099F08091EB0085FD11C04091E400509191
:1041C000E5002417350729F3915011F09A01E1CF4A
:1041D00084E0089582E0089583E0089581E00895E1
:1041E00080E008954091E80042FFDDCF0895EF920E
:1041F000FF920F931F93CF93DF937C018B010E945B
:10420000C420811119C0E70101151105A1F08091A9
:10421000E80085FD0AC08091E8008E778093E80071
:104220000E94C420882381F307C089918093F10004
:1042300001501109E9CF80E0DF91CF911F910F91DB
:10424000FF90EF900895089580915C030895809306
:10425000470670934906609348068091670384304F
:10426000F9F48093E9008FEF9091E800815095FD7B
:1042700006C095ED9A95F1F700008111F5CF809178
:10428000E80085FF0DC040E050E063E070E087E4A7
:1042900096E00E94F7208091E8008E778093E800F6
:1042A0000895BC0184E00C942721BC0183E00C94A8
:1042B000272124E02093E9002FEF3091E8002150DE
:1042C00035FD06C035ED3A95F1F700002111F5CF27
:1042D0002091E80025FF0BC040E050E066E070E070
:1042E0000E94F7208091E8008E778093E80008957F
:1042F000CF93DF9321E02093E9002FEF3091E80086
:10430000215035FD06C035ED3A95F1F70000211139
:10431000F5CF2091E80025FF14C0EC0140E050E00B
:1043200068E070E00E94F7208091E8008E7780932B
:10433000E80088E0FE01ADE5B3E001900D928A95BA
:10434000E1F7DF91CF91089580913206882319F02B
:1043500081508093320660912E0670912F068091D5
:104360003006909131060C94592A809132068330A0
:1043700018F48F5F8093320660912E0670912F069D
:1043800080913006909131060C94592A80916903EE
:1043900087FF11C08091E80082FD05C0809167030E
:1043A0008111F8CF11C08091E8008B770BC080910C
:1043B0006703882349F08091E80080FFF8CF80915F
:1043C000E8008E778093E8000895982F973068F57D
:1043D0009093E900981739F07091EC002091ED006E
:1043E0005091F00003C0242F762F50E021FD02C031
:1043F0009F5FECCF3091EB003E7F3093EB0030912C
:10440000ED003D7F3093ED003091EB003160309353
:10441000EB007093EC002093ED005093F00020919E
:10442000EE0027FDE5CF80E008958F708093E900CE
:1044300081E0089520916F033091700326173707AC
:1044400048F06115710539F42091E8002E7720932A
:10445000E80001C0B901FC0120E06115710579F1A6
:10446000809167038823F1F18530F1F18091E800B4
:1044700083FD3CC08091E80082FD2EC08091E80061
:1044800080FFEBCF2091F3008091F20090E0922B1F
:104490006115710551F08830910538F42191209310
:1044A000F100615071090196F3CF21E0089709F0FE
:1044B00020E08091E8008E778093E800CECF211134
:1044C000CFCF0AC080916703882361F0853061F007
:1044D0008091E80083FD0AC08091E80082FFF2CF5E
:1044E00080E0089582E0089583E0089581E00895D2
:1044F00087E797E790930108809300089AE088E1A6
:104500000FB6F894A895809360000FBE909360005A
:10451000FFCF78941F920F920FB60F9211248F93B2
:104520009F93AF93BF938091430690914406A091CF
:104530004506B09146060196A11DB11D8093430624
:1045400090934406A0934506B0934606BF91AF9161
:104550009F918F910F900FBE0F901F9018959C0107
:104560004FB7F8948091430690914406A091450678
:10457000B09146064FBF821B930B08952FB7F89456
:1045800060914306709144068091450690914606DD
:104590002FBF08952FB7F894809143069091440659
:1045A000A0914506B09146062FBF08951F920F9225
:1045B0000FB60F9211248F939F93AF93BF93809167
:1045C0004206811113C08091430690914406A09148
:1045D0004506B09146064196A11DB11D8093430644
:1045E00090934406A0934506B0934606BF91AF91C1
:1045F0009F918F910F900FBE0F901F9018959C0167
:10460000FC0132969FEF80E04191461789F09F3F71
:1046100019F4411101C0982F8F5F8630A9F79F3F91
:1046200039F0F901E90FF11D97FDFA9562830895BC
:10463000089520914006309141062817390771F0FE
:104640009093410680934006E0913E06F0913F062C
:10465000309721F00084F185E02D09940895209190
:104660003C0630913D062817390771F090933D06BE
:1046700080933C06E0913E06F0913F06309721F092
:104680000680F781E02D099408950E94F81688238A
:1046900051F0E0913E06F0913F06309721F00190F5
:1046A000F081E02D099480E008950F931F93CF933C
:1046B000DF93C42FD22FFC0182818823C9F040935D
:1046C0003B060E94CA2290933A068093390680E204
:1046D0008C0F883008F057C0C77081E001C0880F88
:1046E000CA95EAF7DF91CF911F910F910C949E2903
:1046F00080913B06481330C08091390690913A066C
:104700000E94AF22883C910538F510E21D0FCD17AD
:10471000B9F080E28C0F883040F4C77081E001C0AE
:10472000880FCA95EAF70E949729183028F581E08A
:104730009D2F977001C0880F9A95EAF70E949E29D5
:10474000802F0E94A8291830F0F4D77081E001C0B2
:10475000880FDA95EAF70AC080E28C0F883098F467
:10476000C77081E001C0880FCA95EAF7DF91CF9149
:104770001F910F910C949729802FDF91CF911F915A
:104780000F910C94A829DF91CF911F910F9108955B
:10479000CF93DF93C7E0D2E060E0CE010E94C92E44
:1047A0002196C11584E0D807B9F7DF91CF9108951C
:1047B000CF92DF92EF92FF920F931F93CF93DF93ED
:1047C000C0E0D0E08E0108581F4F6E018CE0C80E8B
:1047D000D11CFE01EA51F64FE590F4906F2DCE0109
:1047E00087960E94C92E6E2DCE0188960E94C92EF2
:1047F0002296CC15DD0569F70C171D0731F7E80186
:10480000003E1140F9F6DF91CF911F910F91FF907B
:10481000EF90DF90CF9008950F931F93CF93DF9386
:10482000C42FD0E0CC0FDD1F2CE0629FC00DD11D46
:10483000112438E7839FC00DD11D1124CE01879626
:104840000E94B52E082F10E0102F0027CE01889669
:104850000E94B52E9801282BC901DF91CF911F919D
:104860000F910895462F843038F47A3028F466305A
:1048700018F4672F0C940C2480E090E00895809148
:10488000380690913706882389F0992369F062E011
:1048900070E084EE99E00E942A1C892B19F0809127
:1048A00037060895109237069091370681E08927E0
:1048B0000895809138068823F9F00E94BE22DC0119
:1048C000CB01805A9541AF4FBF4F809333069093F1
:1048D0003406A0933506B0933606809137068111D1
:1048E0000BC062E070E082EE99E00E942A1C892BE6
:1048F00019F481E080933706809137060895CF93AD
:10490000E82F20917B0530917C052557334040915D
:104910007203642F70E0C9010E94982E481B842FF7
:10492000EE2351F066E00E942032C82FC150A8F05B
:1049300080E20E94701BFACFA901480F511D41155A
:10494000524018F080E020E030E0280F311D2B5855
:104950003C4F30937C0520937B05CF910895CF93F6
:10496000C82F811102C06FEF01C061E283E290E0C5
:104970000E94C92EC11102C06FEF01C062E184E242
:1049800090E00E94C92EC11102C06FEF01C061E129
:1049900085E290E0CF910C94C92E80E00E94AF2474
:1049A00060E086E290E00E94C92E0E94D8230E9417
:1049B000C82381E00C94AF2483E290E00E94B52EDE
:1049C000813281F484E290E00E94B52E823151F46C
:1049D00085E290E00E94B52E91E0813109F090E0EF
:1049E000892F01C080E081700895882311F0FA01B9
:1049F00001C0FB0109943091820180912E0680FF55
:104A000016C0E091810163E0E69FF0011124E058B7
:104A1000FA4F539A8BB1877F9BB198602FB7F89468
:104A2000AF0163E0369F400D511D112414C08091E9
:104A3000830190918401891720F7E82FF0E0AF01FE
:104A4000440F551FE40FF51FE058FA4F11821082F2
:104A500012828F5FF0CFE417F50789F0319168E09B
:104A60009BB9000000C037FF8BB9330F000000C0B6
:104A700000C000C08BB900C06A9591F7ECCF2FBF82
:104A80008FE594E00197F1F700C0000008959F9230
:104A9000AF92BF92CF92DF92EF92FF920F931F934C
:104AA000CF93DF9390912E0690FFD6C0922E142FB5
:104AB000C62FD82FE92FE695F0E0E357FD4F808110
:104AC00080937D059E7F923009F098C0E42F49378E
:104AD00008F0E8E7F0E0C11106C0EE51F74FE491AD
:104AE000FE2F2E2F72C0EC2EF12CEE51F74FF491C9
:104AF0000F2FCF2ED12C26E0D29FC00111242FEFF3
:104B000030E0B9010E94982E4BEA4603C001479F4E
:104B1000900D11248D0F911D8D0F911DB82EBB0C82
:104B2000B80EA9014E195F094C9DC0014D9D900D15
:104B30005C9D900D1124E92FCB9DA0011124452FE0
:104B40005527D901A41BB50BAC9DA001AD9D500DFF
:104B5000BC9D500D1124D901AB19B1095D01AE9C6A
:104B6000D001AF9CB00DBE9CB00D1124AB2FBB2764
:104B70002A1B3B0B2C9DD0012D9DB00D3C9DB00DF3
:104B800011242B2F6230710591F048F461157105E5
:104B9000E1F061307105B9F42F2FF52F16C06430A4
:104BA000710569F040F06630710579F00CC02F2F67
:104BB000F92FEB2F0AC0F92FE02F252F06C0292F40
:104BC000EF2FFB2F02C0292FE52F809183019091B9
:104BD0008401891788F4A82FB0E0AD01440F551F58
:104BE000A40FB51FA058BA4F1196FC9311972C93A0
:104BF0001296EC938F5FEDCF0E94FB2480912F06DD
:104C0000D81308C080913006C81304C080913106C3
:104C1000181729F080917F05826080937F05D093DB
:104C20002F06C0933006109331069920A9F06091A9
:104C30002E0670912F068091300690913106DF91FB
:104C4000CF911F910F91FF90EF90DF90CF90BF9089
:104C5000AF909F900C94592ADF91CF911F910F91A3
:104C6000FF90EF90DF90CF90BF90AF909F9008950E
:104C7000909128038091A406892B2091A306982F58
:104C8000922B90934A0680912903882389F0892BDF
:104C900080934A06ECE4F6E097E080E0915029F03A
:104CA00021912223D9F38F5FF9CF81110E94B3198B
:104CB000E0913E06F0913F06309731F00280F3819B
:104CC000E02D8AE496E00994089580E090E00E9447
:104CD0002F2380E090E00E9419231092A4061092E6
:104CE000A3060C9438268091A1069091700689172E
:104CF00019F08F5F8770FBCF08950F931F93CF93A9
:104D0000DF9380916F0682958F7009F05DC080916E
:104D10006C06882309F458C08091A1061091700692
:104D200060916A0670916B06C0916D06D0916E0617
:104D300091E06F3F09F090E0292F06E0811709F418
:104D400043C0209721F07F3F21F030E003C031E0E5
:104D500001C0322F90E030FD34C0089FF001099F60
:104D6000F00D1124DF01AF58B94F11963C91119706
:104D7000371327C03C91361324C012963C911297EA
:104D800031111FC013964D915C9114974C1B5D0B14
:104D9000483C5105B0F480916F068F70806180931C
:104DA0006F06EA58F94F80818F70806180838AE6B0
:104DB00096E00E945E07DF91CF911F910F910C94B6
:104DC000732601968770BACFDF91CF911F910F9113
:104DD0000895CF92DF92FF920F931F93CF93DF93AB
:104DE0006C010091710380912A03082BC7E0D0E089
:104DF00010E0C8010C2E02C0959587950A94E2F741
:104E000080FD04C02197A8F7F12C09C0FC2EB60143
:104E10008C2F0E9432240E94A417019799F38F2DA2
:104E2000DF91CF911F910F91FF90DF90CF90089568
:104E3000CF93DF93EC010E94E926BE010E94322449
:104E40000E94A417DF91CF910895FC018081918188
:104E50000E941827292F2F70E92FE295EF704E2F0F
:104E600050E0FA013297EE30F105B8F4E158FF4F07
:104E70000C942C32803F99F018F4883E70F40FC0E7
:104E8000843F59F40CC0883E50F0813F31F407C094
:104E9000822F869586958695089580E0089581E015
:104EA00008959F92AF92BF92CF92DF92EF92FF92BE
:104EB0000F931F93CF93DF93CDB7DEB761970FB6F4
:104EC000F894DEBF0FBECDBF8C0185E0F801DE0196
:104ED0001D9601900D928A95E1F7F801E28090917C
:104EE0006A0660916B0640916D0650916E06411501
:104EF000510531F06F3F31F481E09F3F19F403C059
:104F000081E001C080E0F82FF1709F2E80FD02C18A
:104F1000F80130812181C380D4808AE6A82E86E002
:104F2000B82EF0906C06F601E41BF50BFF2009F497
:104F3000CAC080916F06E83CF10508F095C0482F83
:104F4000407F09F050C0621311C093130FC0FE2CB4
:104F5000E1100CC08F70806180936F06C5010E94C4
:104F60005E0780916F06F801858311C1CD2831F06D
:104F70002F3F31F481E03F3F19F403C081E001C0CD
:104F800080E080FD03C081E08E2502C080E090E0DB
:104F9000F82FF170FF2E80FF1CC08091A106409178
:104FA000700656E0841709F4D0C090E0589FF001D5
:104FB000599FF00D1124EF58F94F6181261306C057
:104FC0006081631303C06281E61203C0019687709B
:104FD000E9CFFE2CEE2009F4DAC080916F068160E3
:104FE00080936F064DC062130AC0931308C0E1108E
:104FF00006C0F8018583C8010E945E076EC0C80123
:105000000E942527882351F1EE2041F120916F065F
:10501000822F82958F7090E0029774F080916A06DB
:1050200090916B0698878F831986DB86CA862C87BA
:10503000CE0107960E945E0786E0F801AAE6B6E078
:1050400001900D928A95E1F70E947D260AC06217B1
:10505000C9F0C8010E94252781111EC0C8010E9405
:105060005E07FF24F39493C0482F407F81F78AE6C0
:1050700096E00E945E0786E0F50111928A95E9F7B5
:10508000F12C85C09313E5CFE110E3CFF8018583C0
:10509000C8010E945E0738C0EE2001F320916F0620
:1050A000822F82958F7090E0029734F280916A0689
:1050B00090916B069A8389831B82DD82CC822E833A
:1050C000CE010196B7CFE83CF105F0F4FE2CEE20BE
:1050D00029F262130BC0931309C086E0F801AAE617
:1050E000B6E001900D928A95E1F751C0C8010E9487
:1050F00025278111A1CF80916F06816080936F0673
:10510000C8010E945E0743C086E0F50111928A95AE
:10511000E9F73DC0EE2009F4A1CFC8010E94252780
:10512000F82E882309F49ACF86E0F801AAE6B6E0C3
:1051300001900D928A95E1F780916A0690916B0635
:105140000E9418270E947D2622C03D872E878D85CC
:105150009E850E941827292F22952F70223028F42F
:105160009F7039F0811105C00BC0243028F49F7066
:1051700049F4805E883020F0C8010E945E079F2CB1
:10518000F92C05C0F8019581907F99F7F9CF8F2D03
:1051900061960FB6F894DEBF0FBECDBFDF91CF9101
:1051A0001F910F91FF90EF90DF90CF90BF90AF9045
:1051B0009F900895292F220F920F990F890F682F22
:1051C000669566956695982F977083E0689FB00105
:1051D000112440E050E080E0FB01E40FF51FEE5A9F
:1051E000F94F208130E0092E02C0369527950A94A8
:1051F000E2F721703327042E01C0220F0A94EAF748
:10520000822B4F5F5F4F4330510531F70895292FAF
:10521000220F920F990F890FE82FE695E695E695F4
:10522000877051E001C0550F8A95EAF783E0E89F47
:10523000F0011124EE5AF94F20E030E070E0408197
:10524000CB01022E02C0969587950A94E2F78170F1
:10525000819584278523842781932F5F3F4F2330B7
:10526000310569F70895809371030C94652621E058
:1052700030E001C0220F8A95EAF7209580917103F2
:1052800082230C9433292091A20680958223809357
:10529000A206982F977099F430E0482F082E000C42
:1052A000550B2417350759F09091B20292FD07C0B3
:1052B0008595859585950E9437291092A2060895B7
:1052C000CF93C091B202C2FB992790F9981799F039
:1052D00080FBC2F9C093B2026091B10284E090E019
:1052E0000E94C92E6C2F82E290E00E94C92E82E0BB
:1052F000CF910C944329CF91089521E030E001C073
:10530000220F8A95EAF780917103822B0C9433293E
:1053100080932A030C9465261092280386E0ECE41F
:10532000F6E0DF011D928A95E9F70C946526882343
:1053300021F00E94B9190C9438260895882339F079
:1053400090912803892B809328030C943826089584
:105350001F93CF93DF93182F893319F0C0E0D0E06B
:1053600002C0C0E5D0E0812F0E945D06209741F089
:105370008FE99FE00197F1F700C000002197F6CF79
:10538000812FDF91CF911F910C942C06CF93DF9347
:10539000CDB7DEB72C970FB6F894DEBF0FBECDBFEA
:1053A0004F83588769877A878B879C8786E0FE01C1
:1053B0003796DE01119601900D928A95E1F72981C9
:1053C0003A814B815C816D817E8180E090E02C96FA
:1053D0000FB6F894DEBF0FBECDBFDF91CF91089519
:1053E000EEE2F6E0438124E1421B08F440E021E0D4
:1053F000628181810C944725EEE2F6E0438124E14D
:10540000420F08F44FEF21E0628181810C9447251F
:10541000EEE2F6E062812AE0621B08F460E021E03F
:10542000438181810C944725EEE2F6E062812AE017
:10543000620F08F46FEF21E0438181810C944725CE
:10544000EEE2F6E0818121E0438162818A500C9492
:105450004725EEE2F6E0818121E043816281865FAB
:105460000C944725EEE2F6E080818E7F8083EDE7A5
:10547000F5E08281816082832FEF80E792E0215006
:1054800080409040E1F700C000000C94FB24809124
:105490002E06982F9695913021F08170826080932E
:1054A0002E0680913106893718F088E780933106FF
:1054B0000895CF92DF92EF92FF926B017C010E94E0
:1054C000472AB701A60188E090E0FF90EF90DF90B7
:1054D000CF900C94DB2E80912E0680FF1EC0817031
:1054E000826080932E0680917F05816080937F0586
:1054F000662351F060912E0670912F068091300640
:10550000909131060E94592A20E040913106609125
:10551000300680912F060C944725089580912E0621
:105520008695815009F481E061E00C946B2A61E07A
:1055300081E00C946B2AEEE2F6E083E08083118236
:105540008FEF828388E783831482ADE7B5E01296FC
:105550008C911297836012968C9360817181828105
:1055600093810C94592ACF93DF93CDB7DEB72C9754
:105570000FB6F894DEBF0FBECDBF86E0EBEAF6E0D3
:10558000DE01179601900D928A95E1F786E0E5EA33
:10559000F6E0DE01119601900D928A95E1F746E062
:1055A00050E0BE016F5F7F4FCE0107960E943932F7
:1055B000892B79F0E0913E06F0913F06309749F053
:1055C00082E08093AB060480F581E02D8BEA96E0C3
:1055D00009951092AD061092AE061092AF06109289
:1055E000B00686E0EBEAF6E0A5EAB6E001900D929F
:1055F0008A95E1F72C960FB6F894DEBF0FBECDBFAB
:10560000DF91CF910895CF93DF93CDB7DEB76E973B
:105610000FB6F894DEBF0FBECDBF4091AB065091E0
:10562000AC066091AD067091AE068091AF06909188
:10563000B0060E94C6292093AB063093AC06409377
:10564000AD065093AE066093AF067093B00686E049
:10565000EBEAF6E0DE01599601900D928A95E1F7AA
:1056600086E0FE017996DE01179601900D928A95EB
:10567000E1F786E0FE013796DE01119601900D926A
:105680008A95E1F786E0FE013196DE011D960190D4
:105690000D928A95E1F786E0FE013D96DE01539674
:1056A00001900D928A95E1F786E0FE017396ABEAD0
:1056B000B6E001900D928A95E1F76E960FB6F894D8
:1056C000DEBF0FBECDBFDF91CF910C94B32A1092F5
:1056D000B9008CE08093B80008959F92AF92BF927A
:1056E000CF92DF92EF92FF920F931F93CF93DF93AE
:1056F000B82EEB010E94CA226C01C431D10558F0CA
:10570000CF3F8FEFD80759F0CE0164E170E00E94DF
:10571000982E7B0107C0EE24E394F12C03C025E012
:10572000E22EF12C84E8A82E94EA992E1092BC0067
:105730009092BC000E94CA228C018091BC0087FD1F
:1057400008C00E94CA22801B910B8E159F05A8F3EA
:105750002AC08091B900887F883041F08091B900DB
:10576000887F803119F00FEF1FEF1FC0B092BB0090
:10577000A092BC000E94CA228C018091BC0087FDCF
:1057800008C00E94CA22801B910B8E159F05A8F3AA
:105790000AC08091B900887F883111F0803419F7F0
:1057A00000E010E00EC00EEF1FEFCF3F8FEFD807E5
:1057B00009F4BCCFC6010E94AF228C179D0708F4E4
:1057C000B5CFC801DF91CF911F910F91FF90EF905E
:1057D000DF90CF90BF90AF909F9008950F931F934D
:1057E000CF93DF93EB018093BB0084E88093BC00F0
:1057F0000E94CA228C018091BC0087FD0EC0CF3F61
:105800008FEFD807C1F30E94CA22801B910B8C171F
:105810009D0788F38EEF9FEF0CC02091B900287F81
:1058200081E090E0283211F480E090E0919581953C
:105830009109DF91CF911F910F910895CF92DF923F
:10584000EF92FF920F931F93CF93DF936B018A0127
:105850007901B9010E946D2BE6010C0D1D1DC017C9
:10586000D10761F424E92093BC00DF91CF911F910F
:105870000F91FF90EF90DF90CF90089597FDF2CFBA
:10588000B70189910E94EE2BEACFCF92DF92EF927F
:10589000FF920F931F93CF93DF93C62F6A01790175
:1058A000B8010E946D2B97FD11C0B8018C2F0E948A
:1058B000EE2BE601EC0CFD1CCE15DF0539F097FD53
:1058C00005C0B80189910E94EE2BF6CF24E9209300
:1058D000BC00DF91CF911F910F91FF90EF90DF906F
:1058E000CF90089584E98093BC0008958EE14A9B8F
:1058F00002C08150E1F74A9BFECF08955A9880E29A
:105900008A95F1F75A9A0895FC012AE02A95F1F751
:1059100028E090E080E031E040E14A95F1F7880F1F
:105920004A9B02C08160932700C0000040E14A9575
:10593000F1F7215089F720E12A95F1F729B100C04C
:10594000000030E13A95F1F722FB222720F9922757
:105950002081920F90830895EF92FF920F931F93EF
:10596000CF93DF931F92CDB7DEB719828C017C01F4
:10597000E60EF11C0E151F0551F00E94762CCE018B
:1059800001960E94842CF80181938F01F3CF81E06E
:105990009981911180E00F90DF91CF911F910F912C
:1059A000FF90EF900895529A5A9A089552985A9AF1
:1059B000EA9AE9E6F0E080818F7C80830895615067
:1059C00091E001C0990F6A95EAF720E031E0992350
:1059D00061F0492F482319F05A9A232701C05A9899
:1059E00040E24A95F1F79695F2CF222311F05A9AA8
:1059F00001C05A9880E28A95F1F75A980895FF926B
:105A00000F931F93CF93DF93EC018C01060F111DB1
:105A1000C017D10741F0F9900E947E2C68E08F2DCD
:105A20000E94DF2CF5CFDF91CF911F910F91FF9056
:105A300008951F920F920FB60F921124EF92FF92CA
:105A40000F931F932F933F934F935F936F937F9386
:105A50008F939F93AF93BF93EF93FF93CF93DF9376
:105A60001F92CDB7DEB719820E94762CCE01019627
:105A70000E94842CA82FA695A695A6959A2F969558
:105A800095702A2F2570920F292F23709695969541
:105A9000920F877089137CC08981811179C0A530EC
:105AA00008F076C080E18A95F1F75A9A529AB2E0EE
:105AB000BA95F1F700C05A98EA2EF12CEAE0AE9FB1
:105AC000D0011124A85ABE4F1896ED91FC91199758
:105AD0003097B1F060917C0270917D0216962D9105
