:100000000C94F7050C943E060C943E060C94DE2CE2
:100010000C943E060C943E060C943E060C943E0650
:100020000C943E060C943E060C94351F0C94711EE5
:100030000C941E220C943E060C943E060C943E0634
:100040000C943E060C943E060C943E060C943E0620
:100050000C943E060C94D1210C943E060C943E0662
:100060000C943E060C943E060C943E060C943E0600
:100070000C943E060C943E060C943E060C943E06F0
:100080000C943E060C943E060C943E060C943E06E0
:100090000C943E060C943E060C943E060C943E06D0
:1000A0000C943E060C943E060C943E06770B770BA0
:1000B000AA0BAA0B1D0C3B0C470D470D460CBA0CA6
:1000C000CB0CCB0CF212F51211131E132513451392
:1000D00048137C139E133B143B14A913AB13AF13AB
:1000E000D313F413F713FA131C14831CAA1C531E06
:1000F000AA1C531EF61C191D531E0E1E1E1E9826EA
:100100009826AB26AB26A126AB26AB26AB26982697
:100110009826A626AB26AB26A626000000000000E7
:1001200000000000000000000000000000000000CF
:1001300000000000000000000000000000007E0F32
:1001400000D4FFFFFFC7000000780000000000009F
:1001500000002A2B28000000000000000000000022
:10016000000000000029000000002C1E3420212285
:1001700024342627252E362D3738271E1F202122EE
:10018000232425263333362E37381F040506070867
:10019000090A0B0C0D0E0F10111213141516171857
:1001A000191A1B1C1D2F3130232D35040506070895
:1001B000090A0B0C0D0E0F10111213141516171837
:1001C000191A1B1C1D2F3130354C00DA0281FFD962
:1001D000F1DB20A4A62EAF00A0C000A1C800AED5C0
:1001E00080A81FD300408D142000808182838485E5
:1001F000868788898A8B8C8D8E8F9091929394A01C
:10020000A1A2A3A4A5A6A7A8A9AAABACADAEAFB066
:10021000B1B2B3B4C0C1C2C3C4C5C6C7C8C9CACBD2
:10022000CCCDCECFD0D1D2D3D400556E6465666923
:100230006E65640041646A757374004C6F77657213
:100240000052616973650044656661756C74004CA9
:10025000617965723A200005010902A10185020950
:1002600001A1000509190129081500250195087546
:100270000181020501093009311581257F9502753B
:1002800008810609381581257F95017508810605C5
:100290000C0A38021581257F950175088106C0C0BA
:1002A00005010980A101850319012AB7001501265E
:1002B000B700950175108100C0050C0901A10185E9
:1002C0000419012AA002150126A0029501751081CA
:1002D00000C00660FF0961A1010962150026FF0048
:1002E0009520750881020963150026FF0095207589
:1002F000089102C005010906A101050719E029E7D7
:100300001500250195087501810295017508810187
:100310000507190029FF150026FF009506750881BD
:1003200000050819012905950575019102950175CA
:10033000039101C009025B00030100A0FA09040057
:100340000001030101000921110100012240000701
:1003500005810308000A09040100020300000009E6
:10036000211101000122220007058203200001075C
:100370000503032000010904020001030000000935
:100380002111010001227B000705840320000A12CD
:1003900001000200000008EDFE09900200010200C9
:1003A0000112034C0069006C007900350038002D03
:1003B00000580000000E03640065006900750063CA
:1003C0000071000000040309040000000000003E6A
:1003D0005B4F5B3E003E6B4F6B3E001C3E7C3E1C09
:1003E00000183C7E3C18001C577D571C001C5E7F8B
:1003F0005E1C0000183C180000FFE7C3E7FF000088
:100400001824180000FFE7DBE7FF0030483A060E2B
:1004100000262979292600407F05050700407F0531
:10042000253F005A3CE73C5A007F3E1C1C08000850
:100430001C1C3E7F0014227F2214005F5F005F5F60
:100440000006097F017F00006689956A0060606090
:1004500060600094A2FFA2940008047E04080010CB
:10046000207E20100008082A1C0800081C2A080802
:10047000001E10101010000C1E0C1E0C0030383E18
:10048000383000060E3E0E0600000000000000009E
:10049000005F000000000700070000147F147F14B5
:1004A00000242A7F2A12002313086462003649566A
:1004B000205000000807030000001C22410000003B
:1004C00041221C00002A1C7F1C2A0008083E080844
:1004D0000000807030000008080808080000006074
:1004E0006000002010080402003E5149453E000013
:1004F000427F4000007249494946002141494D333D
:10050000001814127F10002745454539003C4A4920
:100510004931004121110907003649494936004651
:100520004949291E0000001400000000403400006A
:100530000000081422410014141414140000412275
:100540001408000201590906003E415D594E007C25
:100550001211127C007F49494936003E4141412237
:10056000007F4141413E007F49494941007F0909DF
:100570000901003E41415173007F0808087F0000D7
:10058000417F4100002040413F01007F081422418B
:10059000007F40404040007F021C027F007F040833
:1005A000107F003E4141413E007F09090906003E9F
:1005B0004151215E007F09192946002649494932E7
:1005C0000003017F0103003F4040403F001F2040E7
:1005D000201F003F4038403F0063140814630003AD
:1005E00004780403006159494D4300007F414141B3
:1005F00000020408102000004141417F0004020174
:100600000204004040404040000003070800002072
:1006100054547840007F28444438003844444428E7
:1006200000384444287F0038545454180000087E91
:100630000902001824241C78007F080404780000B4
:10064000447D4000002040403D00007F10284400D1
:100650000000417F4000007C04780478007C08049E
:100660000478003844444438007C182424180018C6
:100670002424187C007C08040408004854545424A2
:100680000004043F4424003C4040207C001C2040E7
:10069000201C003C4030403C004428102844004CC2
:1006A0009090907C004464544C4400000836410013
:1006B000000000770000000041360800000201023F
:1006C0000402003C2623263C00000000000080803D
:1006D0008080000000000080E070180C1830E0807E
:1006E000000010F8901030783010B8FC381000007E
:1006F00000000000F8FCF80000000000000000000E
:10070000000000001C9C1C00000000F8FCF8000029
:10071000000000001CFCF8C000000000000080E0A9
:10072000F87C1C000000F0FCFCFC1C1C1C1C1C1CAD
:100730001C1C000000000000C0F0F8381C1C1C1C31
:100740001C1C3CF8F0E000E0F0F0F0E0ECEEF7F319
:100750007020007C7C7C7E007E7E7E7F7F7F000020
:1007600080C0E07E5B4F5BFEC00000C000DCD7DED7
:10077000DEDED7DC00C0000000000000000000004A
:1007800000000000000000000000000000000FBC9E
:10079000E0818181838382870C183060C000001F54
:1007A000FE90B9FFBB91983C1811133F1100000057
:1007B00000000000FFFFFF0000000000000000003C
:1007C00000000000FFFFFF00000000FFFFFF00002F
:1007D000000000000000030F7FF8E080F0FC3F0FF6
:1007E0000100000000003F3F3F1C1C1C1C1C3C780B
:1007F000F8F0E08000000000C3E7FF7E3C38787826
:100800007070F8FFDF87000F1F3F7F7F7F7F7F3F84
:100810001E0C001F1F1F3F003F3F3F7F7F7F0030A8
:100820007B7F7830202030787F3B0003000F7F0FE4
:100830000F0F7F0F00030000000000000000000009
:10084000000000000000000000183C24666341C165
:100850008180808080808081C14162386C4CC681FB
:1008600081808080808081C14362361C1800000036
:1008700000000000FFFFFFC0C0C0C0C0C0C0C0C0BB
:10088000800000007FFF7F000000007FFFFFC0802E
:10089000000000E0E0C0C0C0E0F97F1F07000000DA
:1008A00000000000000070F0E0E0C0C0C0C0E0F058
:1008B000F87F3F0F0000000F3F7FF9E0E0C0C0C0AD
:1008C000C0C0E0F97F3F1F000000000000000000F2
:1008D0000000000000000000000000000000000018
:1008E0000000000000000000000000000000000008
:1008F00000000000000000000000000000000000F8
:1009000000000000000000000000010101010101E1
:1009100001010102020202020202020203030303B6
:100920000303030304040404040404050505050586
:100930000606060606070707070708080808090944
:1009400009090A0A0A0B0B0B0C0C0C0D0D0D0E0EEF
:100950000E0F0F0F10101111111212131314141582
:100960001516161717181819191A1A1B1B1C1D1DF6
:100970001E1E1F202021222223242425262627284C
:1009800029292A2B2C2D2D2E2F303132323334357C
:10099000363738393A3B3C3D3E3F4041424344457F
:1009A000464748494A4C4D4E4F505153545556585E
:1009B000595A5B5D5E5F616264656668696B6C6D08
:1009C0006F7072737577787A7B7D7E80828385877E
:1009D000888A8C8E8F91939596989A9C9EA0A2A3BC
:1009E000A5A7A9ABADAFB1B3B5B7BABCBEC0C2C4C1
:1009F000C6C9CBCDCFD1D4D6D8DBDDDFE2E4E7E981
:100A0000EBEEF0F3F5F8FAFDFF00AF00AE29001EA3
:100A1000001F002000210022002B0014001A0008F3
:100A20000015001700E00004001600070009000A86
:100A300000E1001D001B0006001900050000000178
:100A400051E300E2002C002F00350027002600258E
:100A500000240023002D00130012000C0018001CBD
:100A600000340033000F000E000D000B00E50038CD
:100A700000370036001000110000000251E7002A84
:100A80000028003000010001000100010001000108
:100A90000001001E021F0220022102220201001E8C
:100AA000001F0020002100220001000100010001C0
:100AB000000100010000000100010001000100012F
:100AC00000010001000100010001000100010027F8
:100AD0000226022502240223020100270026002507
:100AE0000024002300010030022F022E02350031C5
:100AF00002000001000100010001000100010001ED
:100B00000001000100010001003A003B003C003DF3
:100B1000003E003F00010001000100010001000152
:100B200000010001000100010001000100000001BE
:100B300000010001000100010001000100010001AD
:100B40000001000100450044004300420041004014
:100B50000000004F00520051005000000001003121
:100B60000030002F002E002E0200000100010001C5
:100B70000001000100000000000000000000000073
:100B80000000000000000000000000000000000065
:100B90000000000000000000000000000000000055
:100BA0000000000000000001000100010001000041
:100BB0000000000000000000000000000000000035
:100BC0000000000000000000000000000000000025
:100BD0000000000000000000000000000000000015
:100BE00000000001000100010001000000001124CC
:100BF0001FBECFEFDAE0DEBFCDBF04B603FE27C0D5
:100C00008091F6059091F705A091F805B091F9054E
:100C10008730904BA740B04BD1F41092F60510925C
:100C2000F7051092F8051092F90514BE84B7877F76
:100C300084BF0FB6F894A895809160008861809376
:100C40006000109260000FBEE0E0F8E3099511E04B
:100C5000A0E0B1E0EEEFF3E602C005900D92AC3EED
:100C6000B107D9F725E0ACEEB1E001C01D92A63F77
:100C7000B207E1F70E944A0E0C94FD310C9400007B
:100C80008823A9F19CEF980F913A60F4EDE8F5E024
:100C90009281891301C01282319695E0E339F907F8
:100CA000B9F70DC090E2980F983058F4877091E032
:100CB00001C0990F8A95EAF7892F0E9480250C942C
:100CC00087259BE5980F933020F480E090E00C940A
:100CD000772298E5980F973120F480E090E00C940B
:100CE0006122803F20F00E94EE290C94022B08958F
:100CF000CF93882309F459C0C82F8CEF8C0F813A09
:100D0000F8F4EFE8F5E085E995E02191C21721F0CC
:100D10008E179F07D1F70EC0EDE8F5E083E995E067
:100D20002281C21301C0128231968E179F07C1F72C
:100D30000E9487256C2F8DE895E00E94472210C005
:100D400080E28C0F883078F4C77081E090E001C0B9
:100D5000880FCA95EAF79091E805892B8093E805FA
:100D6000CF910C948725EBE5EC0FE33040F4F0E0F5
:100D7000E955FE4F808190E0CF910C947722E8E511
:100D8000EC0FE73150F4F0E0EE0FFF1FE655FE4F99
:100D900080819181CF910C946122C03F30F08C2FE3
:100DA0000E94A72ACF910C94022BCF9108951F93F4
:100DB000CF93DF93CDB7DEB767970FB6F894DEBF5A
:100DC0000FBECDBF4B8B5C8B6D8B7E8B8F8B611180
:100DD0001092E70586E09E01235F3F4FD901E82F7F
:100DE0001D92EA95E9F795E0FE017396D90101900D
:100DF0000D929A95E1F79C894E895F897B897D8761
:100E00009E876F87598B488BF901DE0117960190F9
:100E10000D928A95E1F7CE0107960E94AF268111C7
:100E20003EC086E0FE013796DE01119601900D92DC
:100E30008A95E1F7FF81E8856A857B8561157105F3
:100E400031F0EF3F31F481E0FF3F19F403C081E05E
:100E500001C080E080FD23C02091B30530E0C901CE
:100E60000196877099274091E40550E08417950713
:100E700079F1F983EA837D836C8396E0929FD001B8
:100E8000939FB00D1124AC54BA4FFE0131960190DE
:100E90000D929A95E1F78093B3050E94D12516E053
:100EA0008091E4059091B3058917F9F0189FC0016E
:100EB00011248C549A4F0E94AF268823B1F0809160
:100EC000E40590E00196877099278093E405E8CFC8
:100ED0000E94F1281092B3051092E405EDEAF5E0C6
:100EE00086E0DF011D928A95E9F767960FB6F894C0
:100EF000DEBF0FBECDBFDF91CF911F9108953F920E
:100F00004F925F926F927F928F929F92AF92BF9219
:100F1000CF92DF92EF92FF920F931F93CF93DF93C5
:100F2000CDB7DEB729970FB6F894DEBF0FBECDBFA1
:100F3000FC018081918123813481232B31F09F3FFB
:100F400031F491E08F3F19F403C091E001C090E0CB
:100F500090FD74C67F0185E0DE01119601900D922F
:100F60008A95E1F7F701228189819A81222349F04C
:100F70000E944726182F682F89819A810E94652830
:100F800003C00E943828182F69817A81812F0E941E
:100F90007A238C01F7018281882309F4F1C0C8010A
:100FA00082519F45409708F0A7C58FEF93E00E94BC
:100FB0007A2E8111EEC0025147E0842E42E0942E39
:100FC000002379F08114F4E09F0609F4E2C0C40123
:100FD0000E947A2E811101C001502FEF821A920ACD
:100FE000EFCF1E821F8218861986442443943AE06C
:100FF000332E84010F5F1F4FC4010E947A2E8E830F
:101000001F82882309F4C5C09FEF980F933060F4C6
:101010008F834E8232E0830E911CC8010E947A2E8B
:101020008887811102C0B5C048018E010A5F1F4F39
:10103000F80120812223E9F2213009F04CC081819E
:10104000813049F46801F2E0CF0ED11CF8018281B1
:101050000E940D290AC0823051F46801F2E0CF0EDF
:10106000D11CF80182810E947806860186C08330F7
:1010700049F46801F2E0CF0ED11CF80182810E9490
:101080004006F3CF843019F00F5F1F4F76C0F80190
:1010900022810E5F1F4F80E090E030E02053310945
:1010A0002A30310568F4389EA001399E500D112474
:1010B000C901840F951F0F5F1F4FF8012081EDCFED
:1010C000009709F45AC0EFE9FFE03197F1F700C04B
:1010D00000000197F5CFE22FF0E0E65BFE4F549061
:1010E000822F86958695869590E0FC01E65CFE4F02
:1010F00064902770712C022E02C0759467940A9434
:10110000E2F7F1E06F227724FC01E65DFE4FA49048
:10111000B12C022E02C0B594A7940A94E2F731E0F4
:10112000A322BB24FC01E65EFE4FC490D12C02C07A
:10113000D594C7942A95E2F781E0C822DD24611492
:10114000710419F081EE0E947806A114B10419F01F
:1011500086EE0E947806852D0E940D29AB2819F095
:1011600086EE0E944006672819F081EE0E94400634
:10117000CD2819F08CE20E940D290F5F1F4F58CF28
:101180000031FFE51F0769F581E00E949C280E945D
:10119000501B8091E505877009F450C5F7018281E5
:1011A000882309F44BC58091F60182FD47C582E092
:1011B00029960FB6F894DEBF0FBECDBFDF91CF9159
:1011C0001F910F91FF90EF90DF90CF90BF90AF9065
:1011D0009F908F907F906F905F904F903F900C9476
:1011E000A82801312FE51207D9F582E0CECF0C33C4
:1011F000110508F09FC4F801ED5AFE4FD0801F92F0
:10120000DF921F930F93F70180811F928F9381814B
:101210001F928F9382E491E09F938F931F9288E1B6
:101220008F9384E092E09F938F930E94052F0FB6D7
:10123000F894DEBF0FBECDBF8091EE019091EF011B
:10124000449709F468C48091EE019091EF01FC018C
:10125000E45EFD4FD08201969093EF018093EE0102
:10126000033F3CE5130759F190F4083D9CE519074D
:10127000E9F0093DECE51E07A1F1073DFCE51F077C
:10128000B1F506E221EE41EE67ED7CE514C0053FC5
:101290002CE5120701F1C8F0063F8CE5180739F577
:1012A00007E225EE46EE66EF7CE505C007E225EE97
:1012B00045EE68ED7CE5C7010E949D226ACF06E2FB
:1012C00021EE40EE63EF7CE5F6CF07E225EE44EE3B
:1012D00064EF7CE5F0CF06E221EE42EE65EF7CE5BF
:1012E000EACF08E221E045EE69ED7CE5E4CFF701C5
:1012F0008281882309F445C110927E050330FDE503
:101300001F0758F40A3F2CE5120760F4C801825009
:101310009C45449708F01FC105C001363DE5130701
:1013200009F019C10E9467189093F6018093F501A6
:1013300000318CE5180709F4CAC008F041C0083034
:10134000ECE51E0709F4A4C0F0F404302CE5120704
:1013500009F48CC068F402308CE5180709F482C0E7
:1013600003301C4509F0E7C08091F5018260E1C0BF
:101370000630ECE51E0709F483C008F085C08091B3
:10138000F5018860D6C00C302CE5120709F490C036
:1013900068F40A308CE5180709F47EC008F084C0B0
:1013A0000E94F1288091F5018068C3C00E30ECE501
:1013B0001E0709F481C008F086C08091F50194C031
:1013C0000C3F2CE5120709F47BC038F504318CE59D
:1013D000180709F49AC058F40231ECE51E0709F425
:1013E0007AC008F07EC08091F5018F7BA2C00A3FD1
:1013F0002CE51207F1F108F03FC005311C4509F05A
:101400009AC08091F50182FB222720F991E0922772
:1014100090FB82F990FB83F98CC001159DE51907BB
:1014200009F467C050F48091F6010E3FFCE51F07F8
:10143000C1F108F05BC08D7F65C002303DE5130748
:1014400009F471C008F46DC001361D4509F073C080
:101450008091F50184FB222720F991E0922790FBEF
:1014600084F967C08091F501816063C08091F501C6
:1014700016C08091F60116C08091F601826042C0CC
:101480008091F501806155C08091F501806251C065
:101490008091F50180644DC08091F5018860846081
:1014A00048C0826081602EC08091F5018E7F41C06E
:1014B0008091F5018D7F3DC08091F501877F39C016
:1014C0008091F60114C08091F5018F7E32C0809129
:1014D000F5018F7D2EC00E94F1288091F5018F7754
:1014E00028C08091F501877F8B7F23C08D7F8E7F01
:1014F00009C08091F601982F909591708E7F892B6D
:1015000090FB81F98093F60116C00E94F12880912A
:10151000F50187FB222720F991E0922790FB87F9BC
:1015200008C061E001C060E08EE090E00E948E2E75
:1015300002C08093F5016091F5011091F60184E0FD
:1015400090E00E948E2E612F82E290E00E948E2E0B
:101550000E94F1281ECE0631FCE51F0761F580913F
:10156000E8058A7A91E009F490E09093F0018823ED
:1015700011F065E301C069E28DE895E00E94472221
:1015800017C006319CE5190709F048C08091F001A9
:10159000882309F4D2C285E3EDE8F5E023E935E0DC
:1015A0009281891301C0128231962E173F07C1F72D
:1015B0000E948725EECD0A352DE5120749F158F432
:1015C00001158CE51807B1F00E3D1C4509F042C02D
:1015D0000E948318DECD0B35EDE51E07D9F00C35E2
:1015E0001D45C1F58091F60182FB882780F991E0C5
:1015F000892711C00E94F1282FEF34E38CE021509D
:1016000030408040E1F700C000000E94C021C1CD01
:1016100081E001C080E00E94C5281CC08091E805DF
:101620008272093CECE51E0709F4F2C208F093C28D
:10163000053C2CE5120709F4DCC208F080C2033C2B
:101640009CE5190709F4CBC208F0CEC2023C1C4548
:1016500009F49DC2F701828100811181882349F03C
:10166000C8010E944726D82E682FC8010E9465280D
:1016700004C0C8010E943828D82EB8018D2D0E94C0
:101680007A230E94CD16B82E192F982EF7010281C9
:10169000A580A2942FE0A2228091E5058770B9F081
:1016A0000023A9F0892F807F803421F080E28B0D08
:1016B000883068F08091F60182FD09C082E00E94C6
:1016C000A8288091E5058770DD24D3948111D12C61
:1016D000C12EC2949FE0C9228C2D90E08C309105E0
:1016E00008F0D5C1FC01EA5AFF4F0C94E22E812F7D
:1016F000807F1F70882311F01295107F0023B9F0AE
:10170000112309F4B2C180E28B0D883010F09110E2
:1017100006C08091E805182B1093E80505C080915C
:10172000E705182B1093E7050E9487259EC18B2D96
:101730000E944006112309F4AAC180E28B0D883073
:1017400080F1992071F110958091E705182310938D
:10175000E7052AC0812F807F1F70803211F012951B
:10176000107F8B2D992021F0F1E09F16D9F149C00F
:101770008091F60182FF1BC0002369F0112339F02C
:101780008091E805182B1093E8050E94872580E0DA
:101790000E9478067CC180E00E944006112309F473
:1017A00076C1812F0E9480250E94872570C1002369
:1017B00081F080916C02AA2051F021E0A21207C0B2
:1017C000182B181709F463C110936C0260C1812BA8
:1017D00010C0AA2021F031E0A31609F458C10E94DC
:1017E000ED1827C0002341F085E08A1508F44FC1A9
:1017F000812F0E9403294BC194E09A1508F447C138
:1018000018C0002349F0AA2099F3F701858180FFD1
:101810002CC18F708583ECCFAA2059F0893309F051
:1018200033C1FFEF27EE33E0F15020403040E1F7C5
:1018300029C1812F0E94FC282AC1812F8695869577
:10184000837019F0813061F022C1002321F08B2DCB
:10185000912F937002C080E090E00E9477221DC11A
:10186000002321F08B2D912F937002C080E090E037
:101870000E94612212C18B2D002319F00E94A72A19
:1018800002C00E94EE290E94022B07C1812F8370A3
:10189000A9F5011100C14B2D429546954770440FA3
:1018A000440F8B2D8F7090E09C01042E01C0220FFD
:1018B0000A94EAF7B4FE08C08FE090E001C0880FF8
:1018C0004A95EAF7809501C080E016951695137049
:1018D000123069F088F490916D02113019F0822B6A
:1018E000892302C0922B892B0E94ED28D4C0822B21
:1018F00090916D028927F8CF822BF6CF002319F043
:10190000812F817001C08695882309F4C4C04B2DB6
:10191000429546954770440F440F8B2D8F7090E091
:101920009C01042E01C0220F0A94EAF7B4FE08C0FD
:101930008FE090E001C0880F4A95EAF7809501C0DA
:1019400080E0169516951370123059F078F4909146
:10195000B402113019F0822B892309C0922B892BF4
:1019600006C0822B9091B402892701C0822B0E946D
:10197000912891C01F70002339F0812F0E94E22826
:101980008B2D0E94032987C08B2D0E94FC28812F5C
:101990000E949C2880C08B2D92EF991679F19915A1
:1019A00038F0E0EF9E1659F0F1EF9F1611F159C093
:1019B00023EF921651F134EF9316B9F052C0002381
:1019C00079F084E08A1508F462C01F7181E090E02C
:1019D00001C0880F1A95EAF79091B40289271FC0B9
:1019E00095E09A1508F453C0F0CF8091F60182FF7C
:1019F00019C0002329F0812F8F7126C00023D9F34D
:101A0000812F8F710E949C2842C0002339F01F71E2
:101A100081E001C0880F1A95EAF701C080E00E94BA
:101A2000912835C0002399F01F71812F0E94E22870
:101A30008091F60182FD07C0E8E01E9FC0011124DD
:101A400083608093E505812F0E94E22820C081E019
:101A50000E94A828F1E0FA15D0F482E00E94A8289C
:101A600016C0002321F0AA2031F28B2D91CEAA209E
:101A700039F2893349F42FEF37EE83E021503040BB
:101A80008040E1F700C000008B2D0E94400688EFE7
:101A90008C0D843010F40E948D22DD2009F4CEC01C
:101AA0008091E50580FDCAC0F70112828595859574
:101AB00085950E94E228C7010E947F078091E50575
:101AC00085958595859529960FB6F894DEBF0FBE4E
:101AD000CDBFDF91CF911F910F91FF90EF90DF90DD
:101AE000CF90BF90AF909F908F907F906F905F90BE
:101AF0004F903F900C949C2800313FE5130711F460
:101B000081E006C001318FE5180709F070CB82E053
:101B10000E94E2283CCB1092EF011092EE01ECE122
:101B2000F2E080E392E020E28E179F0709F48BCB6E
:101B30002193FACF80E2D82E62CB89E22DCD073CEB
:101B40002CE5120709F45AC008F05DC044E659E2DA
:101B50006BE579E26BC00D3C9CE5190709F469C09F
:101B600060F40B3CFCE51F0709F457C008F05AC0AD
:101B700047E359E26BE279E259C0063D3CE51307C1
:101B800008F407CB0D351D4509F403CB63CD8091D7
:101B9000710580FF1EC08E7F809371056091710575
:101BA0007091720580917305909174050E9494293B
:101BB0008091C20481608093C2049FEFE0E7F2E06D
:101BC0009150E040F040E1F700C000000E94432443
:101BD000E0CA81608093710561E086952CC049EC74
:101BE00059E262ED79E222C042ED59E269EC79E214
:101BF0001DC04BE559E264E679E218C043E459E2BE
:101C00006FE479E213C04FE459E263E479E20EC075
:101C10004BE259E267E379E209C04CEE50E26DEF26
:101C200070E204C04DEF50E26CEE70E20E943D2481
:101C3000B0CA61E081E00E94A629ABCA29960FB61E
:101C4000F894DEBF0FBECDBFDF91CF911F910F91F2
:101C5000FF90EF90DF90CF90BF90AF909F908F90CC
:101C60007F906F905F904F903F900895982F92953E
:101C70009F7019F0892F24E001C020E0982F9695DD
:101C8000969511F02E5F892F982F969509F02F5F6A
:101C9000822F0895CF93DF93CDB7DEB7AE970FB6FF
:101CA000F894DEBF0FBECDBF84B7877F84BF0FB669
:101CB000F894A895809160008861809360001092EC
:101CC00060000FBE90E080E80FB6F894809361004A
:101CD000909361000FBE85B7806885BF85B7806827
:101CE00085BF8CE894E19093ED018093EC010E9414
:101CF000B51E0E94D41E8091E20084608093E200B1
:101D000078948091AA028823A1F01091E9001F70B5
:101D10009091EC00892F817090FD80E8182B109233
:101D2000E9008091E80083FD0E949B1B1F701093C7
:101D3000E90082E084BD93E095BD9AEF97BD809362
:101D40006E001092F1011092F2011092F3011092C4
:101D5000F4010E942424811102C00E9415240E94D3
:101D600021168093000180910001882321F01092B8
:101D70003D018DE103C08DE180933D0180933E01E3
:101D80000E94211681110E94982C8091000180915F
:101D90000001882311F090E001C095E090930202C9
:101DA00085E0891B809301020FE811E0F4E9EF2E32
:101DB000F1E0FF2ED8018D918D018F3F11F00E942F
:101DC000B616E016F106B1F709E911E0F8018191C4
:101DD0008F018F3F11F00E94B616F1E00F391F07F7
:101DE000A9F78AE0E1E6F2E0DF01282F1D922A95AB
:101DF000E9F7E7EFF1E0DF011D928A95E9F70E942C
:101E00007818811102C00E94831882E090E00E943D
:101E10007A2E809356020E9467189093F601809361
:101E2000F5010E94F318EFE3FCE93197F1F700C0E8
:101E300000000E94F3188091610280FF08C06FEFDC
:101E40007FEF80E090E00E94AC2E0E94C02183E0F2
:101E500090E00E947A2E0E94ED280E9421168111A6
:101E600002C00E949B2C0E942116811102C082E0B8
:101E700001C080E08093510280E88093B5020E9407
:101E80002C2B6DE070E08DED91E00E94721B892B90
:101E900009F043C08091510263E070E081FD3AC0D7
:101EA0008AED91E00E94721B892BB9F56DE070E01C
:101EB0008AEC91E00E94721B892B79F50E94062220
:101EC000DC01CB01805A9541AF4FBF4F809376051F
:101ED00090937705A0937805B0937905E8EBF2E04D
:101EE00080E092E0DF019C011D9221503040E1F73B
:101EF000F093BF04E093BE048FEF9FEF9093B7027F
:101F00008093B60281E080937B0580937A051092DE
:101F1000520203C087ED91E0C5CF80910302811189
:101F200036C00E947818811104C00E9483180E9454
:101F3000D62988E090E00E94822E6093710570930C
:101F4000720580937305909374058091C204836039
:101F50008093C2046E7F71F40E94D62988E090E0DD
:101F60000E94822E609371057093720580937305B1
:101F7000909374050E9482298091710580FF04C0AE
:101F800060E086950E94A62981E08093030281E0AB
:101F900091E09093820580938105CE0101967C01AA
:101FA0001E019DE0290E311C8091AA02853009F0A6
:101FB00046C000E112E18091AA02853009F03BC0E1
:101FC0008091AA02843031F10E9487231092850506
:101FD000A8E1B0E0E0E40FB6F894A895A093600003
:101FE0000FBEE093600083B7817F846083BF83B7B7
:101FF000816083BF7894889583B78E7F83BF0FB647
:10200000F894A89580916000886180936000109298
:1020100060000FBE8091A902882309F4CCCF0E94F2
:10202000F318E1E6F2E0819181114DC422E0EB3634
:10203000F207C9F7C0CF0E94F1280E948D220E94AA
:10204000F318B82E81110E94062281E692E09CA727
:102050008BA7E7E5F2E0DC0100E010E0902EAD9008
:1020600081918A2549F1C12CDD24D394982F9D219B
:10207000F1F00E942116882399F0C9A29AA2AD20FE
:1020800081E009F480E08BA30E9412228160782F06
:102090009DA38CA349A15AA16BA18DA10E94D70633
:1020A000F801E95AFD4F8081D826D0821AC0C39426
:1020B000DD0C96E0C912DACF0F5F1F4F0A30110511
:1020C00069F68FEF8EA38FA318A60E94122281605B
:1020D000782F9AA789A74EA15FA168A58AA50E941B
:1020E000D70680917B05882309F447C1809153026C
:1020F000909154020E94F721C297E0F10E941222AF
:10210000909354028093530288EB92E09093BF0423
:102110008093BE040E942116882341F18FE492E04F
:102120000E94231B8091B4020E94360E813071F010
:1021300038F0823041F0833061F484E392E00BC0E8
:1021400087E492E008C081E492E005C08BE392E06E
:1021500002C08AE292E00E944B1B84E092E00E945F
:10216000311B8CE192E00E94311B04C08AEE91E0A9
:102170000E94231B80917B05882309F4E3C02091F2
:10218000B6023091B7022115310509F4DBC0809108
:1021900052028111D7C0482E512CCC24C394D12C8B
:1021A000082E02C0CC0CDD1C0A94E2F7A9014C21D8
:1021B0005D21452B11F48F5FEECF9091510292017A
:1021C00075E0220F331F7A95E1F790FD12C08295DA
:1021D000880F807680930F01220F232F221F330B4D
:1021E000319520931201815E8093100110921301AA
:1021F00012C055E0369527955A95E1F7220F220F28
:10220000220F20930F0110921201295F20931001D9
:1022100083E08093130124E630E047E050E06DE076
:1022200071E088E70E94E32B892B09F08BC0809135
:10223000510280FD23C0C20145E0880F991F4A95D5
:10224000E1F7AC0148545D4F04E610E020E230E0D5
:1022500060E488E70E940A2C892B09F073C00E9471
:10226000A123C094D0948091B6029091B702C82265
:10227000D922D092B702C092B60264C080E2E1E3F4
:10228000F2E0DF011D928A95E9F735E0440C551C18
:102290003A95E1F7E3EAF1E0FEA7EDA76FE971E017
:1022A000ADA5BEA58D91BEA7ADA7FB019191BF01C4
:1022B000A201490F511D48545D4F90E08F5C9D4F26
:1022C000FC0127E0922E9F01281B390B7724739481
:1022D00001C0770C2A95EAF78A01812CD801AD90CC
:1022E0008D01A720292D28192770622E022E000C9F
:1022F000330BBA2D01C0BB0F6A94EAF76B2E3195F0
:10230000219531092770332701C0A6942A95EAF751
:102310006A28A0806A286082839428E08212DECF37
:102320009A9431963FEF9312CECF8DA59EA5875AF2
:10233000914009F0B5CF04E610E020E230E041E33F
:1023400052E086CF80917A058823B9F00E94062258
:1023500000917605109177052091780530917905E7
:10236000DC01CB01801B910BA20BB30B8F3F9F4F66
:10237000AF4FBF4710F40E948723B1100E94A123E2
:1023800086E0E0EFF5E0D70101900D928A95E1F744
:10239000C090F205D090F3050091F4051091F50579
:1023A0001092F2051092F3051092F4051092F505C3
:1023B000C11003C0DD2009F451C08091EE05909159
:1023C000EF050E94F7219C019091EA05992309F4F9
:1023D00099C22333310508F441C09F3F19F09F5F34
:1023E0009093EA05CC2061F00E94872A1C1414F413
:1023F00091E001C09FEF899F802D11248093F20509
:10240000DD2061F00E94872A1D1414F491E001C0C0
:102410009FEF899F802D11248093F3053091F20561
:102420003323E1F02091F3052223C1F045EB34037F
:10243000C0011124992319F09093F20503C081E0A3
:102440008093F20535EB2303C0011124992319F081
:102450009093F30503C081E08093F305011103C05D
:10246000112309F451C08091EC059091ED050E9473
:10247000F7219C019091E905992309F448C225367A
:10248000310508F441C09F3F19F09F5F9093E90523
:10249000002361F00E94652A101614F491E001C037
:1024A0009FEF899F802D11248093F405112361F003
:1024B0000E94652A111614F491E001C09FEF899FD4
:1024C000802D11248093F5053091F4053323E1F03C
:1024D0002091F5052223C1F045EB3403C0011124FE
:1024E000992319F09093F40503C081E08093F405DB
:1024F00035EB2303C0011124992319F09093F505BE
:1025000003C081E08093F5058091F20581110BC035
:102510008091F305811107C08091F405811103C0FA
:102520008091F50581110E94022BCB82DC820D8304
:102530001E8386E0F701A0EFB5E001900D928A9529
:10254000E1F70E948D2290915502891721F00E9497
:102550008D22809355028091AA02843009F024CD07
:1025600083E08093E9008091E80082FF1DCD809197
:10257000E80085FF21C00E940C2081111BC080E271
:10258000C82ED12C870109C08091F100D8018D930C
:102590008D01B1E0CB1AD10869F08091E80085FD8A
:1025A000F3CF8091E8008B778093E8000E940C20A5
:1025B000882399F391E001C090E08091E8008B7747
:1025C0008093E800992309F4EFCCE9818E2F90E005
:1025D000FC013197E331F10508F04DC1EE59FF4F91
:1025E0000C94E22E1A8289E0A7C08A81823009F415
:1025F00080C1833051F0813009F03DC10E94062234
:102600009B838C837D836E8338C1FE013396ABA59B
:10261000BCA58D91BCA7ABA781932E163F06B9F739
:102620002CC18A81823009F026C16B817C818D8129
:102630009E810E94E82E86E290E024C04C816B814E
:102640008A810E9454239D835BC10D811E811027C6
:10265000012710278C81CB809A81BCE0CB9E600142
:102660001124E8E79E9FC00CD11C1124C80ED11C78
:10267000C80ED11C612FC60187960E948E2E602F36
:10268000C60188960E948E2EF8C00E942023F5C0B5
:102690008A818138B1F050F4803809F0EEC020E032
:1026A0004B81609173058091720523C08238E9F0F7
:1026B000833809F0E2C020E0409174056C818B8181
:1026C00018C060E08B810E94A6298B81811103C014
:1026D0000E946D29D2C0809171058160809371053F
:1026E00060E086950E94A629C8C08B8180937505FD
:1026F000C4C00E948F24C1C08A81813899F030F40F
:10270000803809F0BAC08091740516C0823891F003
:10271000833809F0B2C0809172058B838091730574
:102720008C83ABC08091710580FF02C0869504C088
:1027300080E002C0809175058B839FC06091710518
:102740007091720580917305909174050E9494298F
:1027500094C080E14DC081E08A8389EFEDCF0A818A
:102760001B81102701271027AC80B12C6701C801FD
:10277000895F9D4F96012E193F092A153B0508F0E8
:102780007CC0093FF1E01F0730F40E947A2ED60189
:1027900014968C9302C0F60114820F5F1F4FFFEF57
:1027A000CF1ADF0AE4CF0A811B81102701271027E7
:1027B000AC80B12C6701C801895F9D4F96012E192D
:1027C0003F092A153B0508F058C0093F21E01207D0
:1027D00028F4D60114966C910E948E2E0F5F1F4F25
:1027E000BFEFCB1ADB0AE7CF0E94102346C084E07C
:1027F0008A8343C00A811B81102701271027AC80E0
:10280000B12C6701C801879696012E193F092A1538
:102810003B0598F5003EE1E01E0730F40E947A2E59
:10282000D60114968C9302C0F60114820F5F1F4FDD
:10283000FFEFCF1ADF0AE6CF0A811B81102701279D
:102840001027AC80B12C6701C801879696012E191C
:102850003F092A153B0588F4003E21E0120728F4C1
:10286000D60114966C910E948E2E0F5F1F4FBFEF02
:10287000CB1ADB0AE9CF8FEF89838091AA028430DB
:1028800009F092CB1091E9001F709091EC00892F14
:10289000817090FD80E8182B82E08093E9008091A0
:1028A000E80080FF0CC040E050E060E270E0C7014B
:1028B0000E943F208091E8008E778093E8001F708F
:1028C0001093E90071CB09BD19BD09B400FEFDCF1D
:1028D0008091D8008F7D8093D8008091E000826045
:1028E0008093E0008091E00081FDFCCF0E94F12800
:1028F00062CB86E290E00E947A2E1B821C821D82AF
:102900008E83BBCF2D32314008F069CDA7CD2D325B
:10291000314008F0BACDF8CD80E008959091F501EE
:1029200092FF0DC0282F2871283019F4877F84600A
:1029300006C0282F2471243011F48B7F886093FF08
:102940000DC0282F2871283119F4877E846106C0B4
:10295000282F2471243111F48B7E88612091F60197
:1029600020FF0DC0382F3871383019F4877F81600F
:1029700006C0382F3171313011F48E7F886021FF0D
:102980000DC0282F2871283119F4877E816106C077
:10299000282F2171213111F48E7E886194FD877E6C
:1029A0000895AF92BF92CF92DF92EF92FF920F9372
:1029B0001F93CF93DF937C015B016A0180919C029E
:1029C0008A3018F001E010E002C00AE010E0C1E037
:1029D000D0E0F894B501C701F6010995789481110A
:1029E00015C021960C171D0794F0CC9F9001CD9F28
:1029F000300D300D112480E090E045E34A95F1F769
:102A00000000019682179307C1F7E3CF81E0DF91C1
:102A1000CF911F910F91FF90EF90DF90CF90BF90DB
:102A2000AF900895CF93DF93CDB7DEB728970FB659
:102A3000F894DEBF0FBECDBF85E0E1E7F5E0DE0133
:102A4000119601900D928A95E1F78091C0049091C2
:102A5000C104A091C2048E839F83A88728854091DA
:102A600098025091990260919A0270919B023FB72F
:102A7000F8948091860590918705A0918805B09182
:102A800089053FBF841B950BA60BB70B84369105B8
:102A9000A105B10510F4222329F18091350190910F
:102AA00036018A579D4F4091340150E0493051051D
:102AB00010F048E050E0BE016F5F7F4F0E94FC2E97
:102AC00083E090E00E94A52D892B11F080E00DC0DD
:102AD0000E940622609398027093990280939A0252
:102AE00090939B021092C20481E028960FB6F8944E
:102AF000DEBF0FBECDBFDF91CF910895EF92FF9261
:102B00001F93CF93DF9300D000D000D0CDB7DEB7B6
:102B10007B0180E090E00E94A52D892B09F065C023
:102B20004091190150E04115510511F041E050E08C
:102B300060911A0170911B016A577D4FCE01069674
:102B40000E94FC2E40917E0250917F026091800293
:102B5000709181022FB7F894809186059091870536
:102B6000A0918805B09189052FBF841B950BA60BFA
:102B7000B70B84369105A105B10538F487E892E0DA
:102B80000E945B1B9E81891791F181E090E00E9479
:102B9000A52D892BA1F44091230150E04630510529
:102BA00010F045E050E060912401709125016A57D2
:102BB0007D4FCE0101960E94FC2E11E001C010E075
:102BC00087E892E00E945B1B91E02E81281390E041
:102BD000192311F10E94062260937E0270937F02F6
:102BE00080938002909381020CC010E001C011E03C
:102BF00085E0E7E8F2E0DE01119601900D928A95FA
:102C0000E1F7112349F085E0FE013196A9E7B2E032
:102C100001900D928A95E1F785E0E9E7F2E0D701AE
:102C200001900D928A95E1F7812F26960FB6F894C0
:102C3000DEBF0FBECDBFDF91CF911F91FF90EF9010
:102C4000089580917802811118C08091D800806128
:102C50008093D8008AE18A95F1F700C08091D9006D
:102C600080FD02C082E001C081E080937802823062
:102C700021F40E94B51E1092AA0281E09091780280
:102C8000913009F080E008950F931F93CF93DF9365
:102C900000D000D0CDB7DEB74091820250918302C0
:102CA00060918402709185022FB7F8948091860517
:102CB00090918705A0918805B09189052FBF841B4D
:102CC000950BA60BB70B84369105A105B10508F449
:102CD00043C00E942116882319F00E9406220EC0CC
:102CE0000E9406220091F1011091F2012091F3015E
:102CF0003091F401600F711F821F931FDC01CB0123
:102D00000296A11DB11D89839A83AB83BC838091F8
:102D10002B0190912C018A579D4F40912A0150E040
:102D20004530510510F044E050E0BE016F5F7F4F29
:102D30000E94FC2E82E090E00E94A52D892B11F0CC
:102D400080E00BC00E94062260938202709383028F
:102D5000809384029093850281E00F900F900F90F2
:102D60000F90DF91CF911F910F910895F894E82F64
:102D7000E295EF70F0E031A1282F2F7081E090E014
:102D800001C0880F2A95EAF7982F9095932391A375
:102D900092A1892B82A378940895CF93DF938238F0
:102DA000910569F1B0F48133910509F46FC048F4DD
:102DB0008932910509F465C08A32910509F46BC026
:102DC0008AC08533910509F457C089339105B9F05C
:102DD00082C0833E910571F138F4803E9105B1F0D7
:102DE000823E910511F177C0863E9105B9F1873E8B
:102DF0009105C9F1843E910509F06DC024C0209170
:102E0000F50120FD53C021FD51C065C08091F50141
:102E100080FD46C08091F60180FF48C08091F50199
:102E200084FD50C183EE90E04FC18091F50182FF97
:102E30003AC0F4CF8091F50182FD35C08091F60152
:102E400080FD34C0EBCF8091F60181FF35C08091C9
:102E5000F50184FD37C187EE90E036C18091F50120
:102E600083FF27C0F4CF8091F50183FD22C08091BC
:102E7000F60181FD21C0EBCF8091F50185FD1FC0DA
:102E800021C08091F50185FD1DC019C08091F5011B
:102E900086FD1BC01DC08091F50186FD19C015C0BF
:102EA00089E390E011C182EE90E00EC180EE90E0E7
:102EB0000BC186EE90E008C184EE90E005C189E286
:102EC00090E002C185E390E0FFC08AE290E0FCC0A0
:102ED00081E390E0F9C0811531E5930708F069C0FE
:102EE000811540E59407F0F09C0174E03695279534
:102EF0007A95E1F7922F9370482F437021E030E0EC
:102F000002C0220F331F4A95E2F73C68392B982FF5
:102F10009F709695969540E2949FC0011124822B54
:102F2000932BD2C0883E910568F5803E910508F04C
:102F3000CBC0883A9105B8F4853A910548F0855A96
:102F4000E82FF0E0E955FE4F808190E09064BCC02E
:102F50008130910509F4B3C008F4B4C08430910500
:102F600008F4B0C0B1C08F3B910508F0ABC0885ADF
:102F7000E82FF0E0EE0FFF1FE655FE4F80819181B4
:102F80009464A2C0811520E2920758F4811531E0C3
:102F9000930708F099C0803F910508F493C09065AD
:102FA00093C0811540E4940708F48CC09F70906A28
:102FB0008BC0811525E5920708F042C0811534E5E4
:102FC000930728F0982F8827846F906A7DC0811519
:102FD00043E59407B0F09C012370332741E050E0B3
:102FE00002C0440F551F2A95E2F7282F26952695F3
:102FF00080E2289F90011124CA01822B932B9A68AA
:1030000063C0811522E5920728F4982F8827816FE5
:10301000906A5AC09C012370332741E050E002C0FF
:10302000440F551F2A95E2F7282F2695269580E212
:10303000289F90011124CA01822B932B9C6844C0C5
:10304000EC01811539E59307A8F48115984528F01E
:103050009C2F8827806F906A37C0C11586E5D807F6
:1030600088F58C2F0E948E148F7190E0982F8827FE
:1030700090622AC081152AE5920790F48C2F8F70F8
:103080000E948E1494E0D695C7959A95E1F7CF707B
:10309000D0E0DC2FCC27D0699E01282BC90114C0B9
:1030A00090568115904270F48D2F8F710E948E146E
:1030B000282F2F71CE0199279062922B05C081E0B5
:1030C00090E002C080E090E0DF91CF910895CF932F
:1030D00084E090E00E947A2EC82F82E290E00E9465
:1030E0007A2E2C2F30E0A901582BCA01CF910895D8
:1030F00080E090E00E94882E893E9E4F11F40C944F
:10310000242480E0089569EE7EEF80E090E00E9444
:10311000AC2E60E082E090E00E948E2E60E083E0C2
:1031200090E00E948E2E10926D0260E084E090E0AC
:103130000E948E2E60E082E290E00E948E2E60E07F
:1031400085E090E00E948E2E60E086E090E00E9494
:103150008E2E6FEF87E090E00E948E2E40E050E0D0
:10316000BA0188E090E00E94A02E60E08DE090E03F
:103170000E948E2E40E050E0BA0188E190E00E946B
:10318000A02E60E087E190E00E948E2E40E050E0AB
:10319000BA018CE190E00E94A02E60E070E080E235
:1031A00090E00E94AC2E40E050E0BA0188E190E04F
:1031B0000E94A02E80E00E94F7230E94152440E088
:1031C00050E0BA018FE090E00E94A02E40E050E075
:1031D000BA0183E190E00C94A02E80916C028111E1
:1031E00010926C0208957F928F929F92AF92BF923D
:1031F000CF92DF92EF92FF920F931F93CF93DF93C3
:10320000CDB7DEB72F970FB6F894DEBF0FBECDBF98
:10321000AE014F5F5F4F7A018AE0DA011D928A9515
:10322000E9F70FE811E06A0184E9A82E81E0B82EE1
:1032300088248394912CF80180818F3F09F441C048
:10324000F894E82FE295EF70F0E021A18F70A401CF
:1032500002C0440F551F8A95E2F7CA01922F982B9E
:1032600091A392A18095892382A3789400C0E9E973
:10327000F1E0712C31E021912F3F89F0A22FA2952E
:10328000AF70B0E090968C9190E02F7002C0959551
:1032900087952A95E2F780FD02C0832F01C080E068
:1032A000782A330F51E0EF39F50729F7D8018C91CF
:1032B0008F3F11F00E94B616B0EABA95F1F7F60109
:1032C00070820F5F1F4FFFEFCF1ADF0AA016B10603
:1032D00009F0B1CF4AE050E0B70187EF91E00E94DA
:1032E000EF2E8C01892B41F08AE0F701A7EFB1E0C6
:1032F00001900D928A95E1F7F090020201151105F7
:1033000049F081E0809370020E94122290936F0234
:1033100080936E02809170028823B9F080916E02D2
:1033200090916F020E94F721059778F0A7EFB1E026
:10333000EF2DF0E0EF59FD4F8CEF91E02D912193AF
:103340008A179B07D9F7109270020115110509F031
:10335000E3C00E942116E0910202882309F471C0A3
:103360007E012BE0E20EF11C85E0D7011D928A95CB
:10337000E9F70E2F10E00F591D4F80919C028A3003
:1033800048F44EE755E1B701C8010E94D1148823E3
:1033900071F10AC080917102909172020E94F7212E
:1033A000843F914070F734C044E456E1B701C8014E
:1033B0000E94D1148823D9F042E155E1B701C80138
:1033C0000E94D114882399F010929C0280910102EE
:1033D00090E045E050E0B7018F599D4F0E94EF2EDD
:1033E00021E020937702892BF1F400E097C08091CF
:1033F0009C028F3F19F08F5F80939C0280919C020A
:103400008A3020F30E9412229093720280937102FC
:1034100080917702882349F385E0F70111928A951C
:10342000E9F710927702A0910102B0E0AF59BD4FC9
:1034300085E0FE013B9601900D928A95E1F701E04F
:103440006DC0F0E0EF59FD4FF89485E0A7E8B2E0D9
:1034500001900D928A95E1F787E892E00E945B1B4C
:10346000809386027894F894C0908C02D0908D025C
:10347000E0908E02F0908F0280917302909174021E
:10348000A0917502B0917602C816D906EA06FB062D
:10349000D1F0C0927302D0927402E0927502F09261
:1034A00076020E94211681110EC00E940622C61AC1
:1034B000D70AE80AF90AC092F101D092F201E0922B
:1034C000F301F092F4017894F894809197028823A4
:1034D00009F180FF10C08091900280FF0AC0909196
:1034E000710591609093710560E086950E94A62910
:1034F00002C00E946D298091970281FF09C020E0DF
:103500004091930260919202809191020E948F24D7
:1035100010929702789402C001E010E0802F2F965D
:103520000FB6F894DEBF0FBECDBFDF91CF911F91D4
:103530000F91FF90EF90DF90CF90BF90AF909F9052
:103540008F907F900895CF93DF938A3011F481E0BC
:1035500003C08D3029F480E0DF91CF910C94C72314
:10356000682F8091BE049091BF0426E0FC01A8EB77
:10357000B4E001900D922A95E1F7603E30F026E02C
:10358000FC0111922A95E9F70AC0F6E06F9FB0019D
:10359000112467537C4F46E050E00E94712EC09189
:1035A000BE04D091BF0446E050E0BE0188EB94E039
:1035B0000E94EF2E892B49F19E01285B3240A90120
:1035C00085E0569547958A95E1F781E090E0BC014A
:1035D00002C0660F771F4A95E2F74091B6025091FC
:1035E000B702462B572B2B5F3F4F65E0369527954B
:1035F0006A95E1F702C0880F991F2A95E2F7842B9C
:10360000952B9093B7028093B6029E01225B3240C5
:103610004091B502642F70E0C9010E945D2E481BE5
:10362000463010F4240F311D211582E0380710F0C8
:1036300020E030E028543D4F3093BF042093BE0477
:10364000DF91CF910895CF93DF93EC01FE01849138
:10365000882321F00E94A31A2196F8CFDF91CF9101
:1036600008950F931F93CF93DF93EC01FC0101901A
:103670000020E9F78F0101501109C017D10720F48C
:1036800089910E94A31AF9CF81E0DF91CF911F9118
:103690000F910C94C7230E94231B81E00C94C72335
:1036A0008091B402982F9670963011F4886001C012
:1036B000877F0C949128FC01AC014B5F5F4F8FEF2B
:1036C00091E32191822728E030E087FF03C0880F33
:1036D000892701C0880F21503109B9F7E417F50790
:1036E00081F70895EF92FF920F931F93CF93DF938B
:1036F000EC017B0164E670E088E70E94322B8C01CC
:10370000EC0EFD1ECE15DF0561F017FD0AC0FE01AF
:10371000849164E670E00E94B32B8C012196892B82
:1037200089F30E94372CC801DF91CF911F910F912F
:10373000FF90EF9008951F93CF93DF93CDB7DEB73F
:10374000AA970FB6F894DEBF0FBECDBFECEAF2E049
:1037500084EB92E02091F10021938E179F07D1F71F
:103760008091AD02833009F463C030F4813071F090
:10377000823009F49DC0B4C08A3009F489C08B300E
:1037800009F46EC0893009F0ABC020C08091AC0252
:10379000813A09F0A5C08091E800877F8093E80016
:1037A0008091B0029091B102892B21F468E080EA07
:1037B00092E003C060E080E090E070E00E9462214F
:1037C0008091E8008B778093E8008AC08091AC02FA
:1037D000813209F085C08091B0029091B1020097CA
:1037E00019F0029709F07CC08091E800877F8093F0
:1037F000E8008091E80082FD05C08091AA02811155
:10380000F8CF6EC02091F3008091F20090E0922BEF
:10381000029731F48091F100813011F0863021F46B
:103820008091F10080939F028091E8008B7754C0D3
:103830008091AC02813A09F053C08091B00290911E
:10384000B102892B09F04CC08091E800877F8093FA
:10385000E8008091E80080FFFCCF80913C0137C0F8
:103860008091AC028132E1F58091B0029091B10279
:10387000892BB1F58091E800877F8093E8000E9452
:103880000E218091AE0280933C010E94F12828C055
:103890008091AC02813221F58091E800877F80938E
:1038A000E8000E940E218091AF0280939E0218C012
:1038B0008091AC02813AA1F48091E800877F8093E7
:1038C000E8008091E80080FFFCCF80919E02809309
:1038D000F1008091E8008E778093E8000E940E212D
:1038E0008091E80083FFDFC18091AC029091AD022E
:1038F000492F50E04A30510508F0D5C1FA01EB5884
:10390000FF4F0C94E22E803821F0823809F0CBC1B1
:1039100008C08091A8029091A902992389F0826041
:103920000FC08091B0028F70873008F0BCC18093C7
:10393000E9008091EB0085FB882780F91092E9006F
:103940009091E800977F9093E8008093F1001092A7
:10395000F10070C1282F2D7F09F0A5C1882319F02F
:10396000823061F0A0C18091AE02813009F09BC12C
:10397000933009F080E08093A9022EC08091AE02BE
:1039800081112AC08091B0028F702FEF280F26304E
:1039900008F089C18093E9002091EB0020FF1CC052
:1039A000933021F48091EB00806214C09091EB0081
:1039B00090619093EB0021E030E0A90102C0440F38
:1039C000551F8A95E2F74093EA001092EA00809131
:1039D000EB0088608093EB001092E9008091E80092
:1039E000877F8093E8000E940E215DC181115BC139
:1039F0001091AE021F778091E3008078812B809335
:103A0000E3008091E800877F8093E8000E940E2108
:103A10008091E80080FFFCCF8091E3008068809374
:103A2000E300111102C082E001C083E08093AA028A
:103A30003AC18058823008F036C12091AE023091F0
:103A4000AF022C3D53E0350779F583E08A838AE2A3
:103A500089834FB7F894DE01139620E03EE051E2EF
:103A6000E32FF0E050935700E49120FF03C0E2956C
:103A7000EF703F5FEF708E2F90E0EA3010F0C79646
:103A800001C0C0968D939D932F5F243149F74FBF9E
:103A90008091E800877F8093E8006AE270E0CE01C1
:103AA00001960E946221B4C08091B0029091B1024F
:103AB000432F552743305105A9F068F44130510593
:103AC00009F400C14230510509F0EDC08BE590E0EA
:103AD000E4E3F3E04BC04132510529F14232510594
:103AE00089F1E1C0C901992781309105A1F058F011
:103AF000029709F0D8C0E1EAF3E0E4918E2F90E05C
:103B0000E1EAF3E030C0E5ECF3E0E4918E2F90E0E1
:103B1000E5ECF3E028C0E5EBF3E0E4918E2F90E0D4
:103B2000E5EBF3E020C08330910508F0BCC0880FBE
:103B3000991FFC01ED51FE4F0190F081E02D89E0CD
:103B400090E014C08330910508F0ADC0FC01EE0F89
:103B5000FF1FE352FE4F0190F081E02DDC01A652E1
:103B6000BE4F8C9190E0009709F49DC02091E80031
:103B7000277F2093E8002091B2023091B3022817EA
:103B8000390708F4C90140E0009789F12091AA02A1
:103B9000222309F43DC02530D9F12091E80023FD0E
:103BA00037C02091E80022FD2FC02091E80020FFBF
:103BB000EBCF4091F3002091F20030E0342B0097DE
:103BC00059F02830310540F444914093F10031968A
:103BD00001972F5F3F4FF3CF41E02830310509F0C7
:103BE00040E02091E8002E772093E800CDCF4111EE
:103BF000CDCF0AC08091AA02882351F0853041F0D0
:103C00008091E80083FD04C08091E80082FFF2CF3C
:103C10008091E8008B778093E80045C0803809F0F8
:103C200042C08091E800877F8093E8008091AB02DA
:103C30008093F1008091E8008E77D3CE811133C05C
:103C40008091AE029091AF029927029764F580911E
:103C5000E800877F8093E8001091AE021093AB02DA
:103C60000E940E21111106C08091E30087FD02C061
:103C700081E001C084E08093AA0242E061EC81E02F
:103C80000E942D2142E261EC84E00E942D2142E25B
:103C900061EC82E00E942D2142E260EC83E00E9410
:103CA0002D218091AA028091E80083FF10C08091AD
:103CB000E800877F8093E8008091EB00806280932A
:103CC000EB0005C082E190E0EFE8F3E04FCFAA9669
:103CD0000FB6F894DEBF0FBECDBFDF91CF911F911D
:103CE00008951F920F920FB60F9211242F933F93B6
:103CF0004F935F936F937F938F939F93AF93BF93F4
:103D0000CF93DF93EF93FF93C091E900CF70809141
:103D1000EC00D82FD17080FDD0E81092E90080919E
:103D2000F000877F8093F00078940E949B1B109294
:103D3000E9008091F00088608093F000CD2BCF7077
:103D4000C093E900FF91EF91DF91CF91BF91AF91C7
:103D50009F918F917F916F915F914F913F912F91A3
:103D60000F900FBE0F901F901895E8EDF0E0808146
:103D70008E7F80831092E2001092DA001092E100B0
:103D8000A0EEB0E08C9181608C9380818F778083EE
:103D900019BCA7EDB0E08C918E7F8C9380818F7ED3
:103DA000808310929D020895CF92DF92EF92FF924E
:103DB0000F931F93CF93DF93C8EDD0E088818F7E60
:103DC0008883E7EDF0E080818160808384E082BFBA
:103DD00081E080939D0288818E7F888302EE10E0CF
:103DE000F80110821092DA0081EEC82ED12CF60173
:103DF000108288818F778883888180688883888112
:103E00008F7D888319BC1092AA021092AB02109287
:103E1000A9021092A80290EEE92EF12CF701808100
:103E20008B7F808388818160888342E060E080E0CE
:103E30000E942D21F60180818E7F8083F801808190
:103E400081608083808188608083F70180818E7F9C
:103E50008083888180618883DF91CF911F910F914A
:103E6000FF90EF90DF90CF9008951F920F920FB6C2
:103E70000F9211242F933F934F935F936F937F93F0
:103E80008F939F93AF93BF93EF93FF938091E10044
:103E900082FF09C08091E20082FF05C08091E100AD
:103EA0008B7F8093E1008091DA0080FF2AC08091AF
:103EB000D80080FF26C08091DA008E7F8093DA00E0
:103EC0008091D90080FF18C080E189BD82E189BD61
:103ED00009B400FEFDCF81E08093AA0280919D028B
:103EE00081110FC00E94B51E0E94D41E8091E20075
:103EF00084608093E20005C019BC1092AA0210925F
:103F00009D028091E10080FF17C08091E20080FF58
:103F100013C08091E2008E7F8093E2008091E200E6
:103F200080618093E2008091D80080628093D80005
:103F300019BC85E08093AA028091E10084FF30C023
:103F40008091E20084FF2CC080E189BD82E189BDBF
:103F500009B400FEFDCF8091D8008F7D8093D800FA
:103F60008091E1008F7E8093E1008091E2008F7E5E
:103F70008093E2008091E20081608093E200809172
:103F8000AB02882311F084E007C08091E30087FD35
:103F900002C081E001C083E08093AA028091AA025E
:103FA0008091E10083FF27C08091E20083FF23C05E
:103FB0008091E100877F8093E10082E08093AA02F4
:103FC0001092AB028091E1008E7F8093E10080919E
:103FD000E2008E7F8093E2008091E2008061809316
:103FE000E20042E060E080E00E942D218091F0003C
:103FF00088608093F000FF91EF91BF91AF919F9106
:104000008F917F916F915F914F913F912F910F9081
:104010000FBE0F901F9018952091E4003091E5009D
:1040200095E64091EC00842F817040FF23C0809181
:10403000E80080FD1DC08091AA02882399F0853098
:1040400099F08091EB0085FD11C04091E400509102
:10405000E5002417350729F3915011F09A01E1CFBB
:1040600084E0089582E0089583E0089581E0089552
:1040700080E008954091E80042FFDDCF0895EF927F
:10408000FF920F931F93CF93DF937C018B010E94CC
:104090000C20811119C0E70101151105A1F08091D3
:1040A000E80085FD0AC08091E8008E778093E800E3
:1040B0000E940C20882381F307C089918093F1002E
:1040C00001501109E9CF80E0DF91CF911F910F914D
:1040D000FF90EF900895089580919F020895809336
:1040E0008A0570938C0560938B058091AA028430B9
:1040F000F9F48093E9008FEF9091E800815095FDED
:1041000006C095ED9A95F1F700008111F5CF8091E9
:10411000E80085FF0DC040E050E063E070E08AE811
:1041200095E00E943F208091E8008E778093E80020
:104130000895BC0184E00C946F20BC0183E00C94D2
:104140006F2024E02093E9002FEF3091E800215008
:1041500035FD06C035ED3A95F1F700002111F5CF98
:104160002091E80025FF0BC040E050E066E070E0E1
:104170000E943F208091E8008E778093E8000895A8
:10418000CF93DF9321E02093E9002FEF3091E800F7
:10419000215035FD06C035ED3A95F1F700002111AB
:1041A000F5CF2091E80025FF14C0EC0140E050E07D
:1041B00068E070E00E943F208091E8008E77809355
:1041C000E80088E0FE01A0EAB2E001900D928A9535
:1041D000E1F7DF91CF91089580917505882319F05B
:1041E0008150809375056091710570917205809181
:1041F0007305909174050C94942980917505833012
:1042000018F48F5F80937505609171057091720548
:1042100080917305909174050C9494298091AC025F
:1042200087FF11C08091E80082FD05C08091AA023D
:104230008111F8CF11C08091E8008B770BC080917D
:10424000AA02882349F08091E80080FFF8CF80918E
:10425000E8008E778093E8000895982F973068F5EE
:104260009093E900981739F07091EC002091ED00DF
:104270005091F00003C0242F762F50E021FD02C0A2
:104280009F5FECCF3091EB003E7F3093EB0030919D
:10429000ED003D7F3093ED003091EB0031603093C5
:1042A000EB007093EC002093ED005093F000209110
:1042B000EE0027FDE5CF80E008958F708093E90040
:1042C00081E008952091B2023091B302261737079A
:1042D00048F06115710539F42091E8002E7720939C
:1042E000E80001C0B901FC0120E06115710579F118
:1042F0008091AA028823F1F18530F1F18091E800E4
:1043000083FD3CC08091E80082FD2EC08091E800D2
:1043100080FFEBCF2091F3008091F20090E0922B90
:104320006115710551F08830910538F42191209381
:10433000F100615071090196F3CF21E0089709F06F
:1043400020E08091E8008E778093E800CECF2111A5
:10435000CFCF0AC08091AA02882361F0853061F036
:104360008091E80083FD0AC08091E80082FFF2CFCF
:1043700080E0089582E0089583E0089581E0089543
:1043800087E797E790930108809300089AE088E117
:104390000FB6F894A895809360000FBE90936000CC
:1043A000FFCF78941F920F920FB60F9211248F9324
:1043B0009F93AF93BF938091860590918705A091BD
:1043C0008805B09189050196A11DB11D80938605D0
:1043D00090938705A0938805B0938905BF91AF910D
:1043E0009F918F910F900FBE0F901F9018959C0179
:1043F0004FB7F8948091860590918705A091880524
:10440000B09189054FBF821B930B08952FB7F89485
:104410006091860570918705809188059091890546
:104420002FBF08952FB7F894809186059091870546
:10443000A0918805B09189052FBF08951F920F9212
:104440000FB60F9211248F939F93AF93BF938091D8
:104450008505811113C08091860590918705A091F3
:104460008805B09189054196A11DB11D80938605EF
:1044700090938705A0938805B0938905BF91AF916C
:104480009F918F910F900FBE0F901F9018959C01D8
:10449000FC0132969FEF80E04191461789F09F3FE3
:1044A00019F4411101C0982F8F5F8630A9F79F3F03
:1044B00039F0F901E90FF11D97FDFA95628308952E
:1044C000089520918305309184052817390771F0EC
:1044D0009093840580938305E0918105F091820596
:1044E000309721F00084F185E02D09940895209102
:1044F0007F05309180052817390771F0909380056A
:1045000080937F05E0918105F0918205309721F03D
:104510000680F781E02D099408950E9421168823D2
:1045200051F0E0918105F0918205309721F00190E2
:10453000F081E02D099480E008950F931F93CF93AD
:10454000DF93C42FD22FFC0182818823C9F04093CE
:104550007E050E94122290937D0580937C0580E267
:104560008C0F883008F057C0C77081E001C0880FF9
:10457000CA95EAF7DF91CF911F910F910C9403290F
:1045800080917E05481330C080917C0590917D0517
:104590000E94F7218436910538F510E21D0FCD17E2
:1045A000B9F080E28C0F883040F4C77081E001C020
:1045B000880FCA95EAF70E94FC28183028F581E098
:1045C0009D2F977001C0880F9A95EAF70E940329E2
:1045D000802F0E940D291830F0F4D77081E001C0BF
:1045E000880FDA95EAF70AC080E28C0F883098F4D9
:1045F000C77081E001C0880FCA95EAF7DF91CF91BB
:104600001F910F910C94FC28802FDF91CF911F9167
:104610000F910C940D29DF91CF911F910F91089567
:10462000CF93DF93C7E0D2E060E0CE010E948E2EF0
:104630002196C11584E0D807B9F7DF91CF9108958D
:10464000CF92DF92EF92FF920F931F93CF93DF935E
:10465000C0E0D0E08E0108581F4F6E018CE0C80EFC
:10466000D11CFE01E35FF54FE590F4906F2DCE0174
:1046700087960E948E2E6E2DCE0188960E948E2ED9
:104680002296CC15DD0569F70C171D0731F7E801F7
:10469000003E1140F9F6DF91CF911F910F91FF90ED
:1046A000EF90DF90CF9008950F931F93CF93DF93F8
:1046B000C42FD0E0CC0FDD1F2CE0629FC00DD11DB8
:1046C000112438E7839FC00DD11D1124CE01879698
:1046D0000E947A2E082F10E0102F0027CE01889616
:1046E0000E947A2E9801282BC901DF91CF911F914A
:1046F0000F910895462F843038F47A3028F46630CC
:1047000018F4672F0C94542380E090E00895809172
:104710007B0590917A05882389F0992369F062E0FE
:1047200070E08BE09AE00E94721B892B19F0809157
:104730007A05089510927A0590917A0581E089278B
:10474000089580917B058823F9F00E940622DC0100
:10475000CB01805A9541AF4FBF4F80937605909320
:104760007705A0937805B093790580917A0581113A
:104770000BC062E070E089E09AE00E94721B892B16
:1047800019F481E080937A0580917A050895CF939A
:10479000E82F2091BE043091BF04285B3240409145
:1047A000B502642F70E0C9010E945D2E481B842F62
:1047B000EE2351F066E00E94C22EC82FC150A8F02F
:1047C00080E20E94A31AFACFA901480F511D41159A
:1047D000524018F080E020E030E0280F311D2854CE
:1047E0003D4F3093BF042093BE04CF910895CF93E3
:1047F000C82F811102C06FEF01C061E283E290E037
:104800000E948E2EC11102C06FEF01C062E184E2EE
:1048100090E00E948E2EC11102C06FEF01C061E1D5
:1048200085E290E0CF910C948E2E80E00E94F723D9
:1048300060E086E290E00E948E2E0E9420230E947B
:10484000102381E00C94F72383E290E00E947A2EFB
:10485000813281F484E290E00E947A2E823151F418
:1048600085E290E00E947A2E91E0813109F090E09B
:10487000892F01C080E081700895882311F0FA012A
:1048800001C0FB01099430913E018091710580FFC8
:1048900016C0E0913D0163E0E69FF0011124ED5365
:1048A000FB4F539A8BB1877F9BB198602FB7F894D9
:1048B000AF0163E0369F400D511D112414C080915B
:1048C0003F0190914001891720F7E82FF0E0AF01F8
:1048D000440F551FE40FF51FED53FB4F118210825B
:1048E00012828F5FF0CFE417F50789F0319168E00D
:1048F0009BB9000000C037FF8BB9330F000000C028
:1049000000C000C08BB900C06A9591F7ECCF2FBFF3
:104910008FE594E00197F1F700C0000008959F92A1
:10492000AF92BF92CF92DF92EF92FF920F931F93BD
:10493000CF93DF939091710590FFD6C0922E142FE4
:10494000C62FD82FE92FE695F0E0E751FE4F808182
:104950008093C0049E7F923009F098C0E42F4937BD
:1049600008F0E8E7F0E0C11106C0E75FF64FE49118
:10497000FE2F2E2F72C0EC2EF12CE75FF64FF49134
:104980000F2FCF2ED12C26E0D29FC00111242FEF64
:1049900030E0B9010E945D2E4BEA4603C001479FFB
:1049A000900D11248D0F911D8D0F911DB82EBB0CF4
:1049B000B80EA9014E195F094C9DC0014D9D900D87
:1049C0005C9D900D1124E92FCB9DA0011124452F52
:1049D0005527D901A41BB50BAC9DA001AD9D500D71
:1049E000BC9D500D1124D901AB19B1095D01AE9CDC
:1049F000D001AF9CB00DBE9CB00D1124AB2FBB27D6
:104A00002A1B3B0B2C9DD0012D9DB00D3C9DB00D64
:104A100011242B2F6230710591F048F46115710556
:104A2000E1F061307105B9F42F2FF52F16C0643015
:104A3000710569F040F06630710579F00CC02F2FD8
:104A4000F92FEB2F0AC0F92FE02F252F06C0292FB1
:104A5000EF2FFB2F02C0292FE52F80913F0190916E
:104A60004001891788F4A82FB0E0AD01440F551F0D
:104A7000A40FB51FAD53BB4F1196FC9311972C9308
:104A80001296EC938F5FEDCF0E94432480917205C4
:104A9000D81308C080917305C81304C080917405B1
:104AA000181729F08091C20482608093C204D093C9
:104AB0007205C0937305109374059920A9F0609155
:104AC0007105709172058091730590917405DF9165
:104AD000CF911F910F91FF90EF90DF90CF90BF90FB
:104AE000AF909F900C949429DF91CF911F910F91DB
:104AF000FF90EF90DF90CF90BF90AF909F90089580
:104B000080959091E80589238093E8050895909118
:104B1000E8058091E705892B2091E605982F922BD7
:104B200090938D0580916C02882389F0892B809366
:104B30008D05EFE8F5E097E080E0915029F02191B4
:104B40002223D9F38F5FF9CF81110E94ED18E091F4
:104B50008105F0918205309731F00280F381E02DDC
:104B60008DE895E00994089580E090E00E94772216
:104B700080E090E00E9461221092E7051092E60525
:104B80000E948725E0EFF5E086E0DF011D928A951F
:104B9000E9F71092EA051092E9051092EB050C94E2
:104BA000022B8091E4059091B305891719F08F5F6E
:104BB0008770FBCF08950F931F93CF93DF9380915E
:104BC000B20582958F7009F05DC08091AF05882392
:104BD00009F458C08091E4051091B3056091AD05CA
:104BE0007091AE05C091B005D091B10591E06F3FD5
:104BF00009F090E0292F06E0811709F443C02097BF
:104C000021F07F3F21F030E003C031E001C0322FBE
:104C100090E030FD34C0089FF001099FF00D112491
:104C2000DF01AC54BA4F11963C911197371327C04E
:104C30003C91361324C012963C91129731111FC03B
:104C400013964D915C9114974C1B5D0B44365105A6
:104C5000B0F48091B2058F7080618093B205E75403
:104C6000FA4F80818F70806180838DEA95E00E9489
:104C70007F07DF91CF911F910F910C94D125019661
:104C80008770BACFDF91CF911F910F910895CF9286
:104C9000DF92FF920F931F93CF93DF936C010091EC
:104CA000B40280916D02082BC7E0D0E010E0C8018B
:104CB0000C2E02C0959587950A94E2F780FD04C0FA
:104CC0002197A8F7F12C09C0FC2EB6018C2F0E9469
:104CD0007A230E94CD16019799F38F2DDF91CF9102
:104CE0001F910F91FF90DF90CF900895CF93DF93A6
:104CF000EC010E944726BE010E947A230E94CD1635
:104D0000DF91CF910895FC01808191810E947626E8
:104D1000292F2F70E92FE295EF704E2F50E0FA0106
:104D20003297EE30F105B8F4E158FF4F0C94E22EC3
:104D3000803F99F018F4883E70F40FC0843F59F416
:104D40000CC0883E50F0813F31F407C0822F869519
:104D500086958695089580E0089581E008959F9254
:104D6000AF92BF92CF92DF92EF92FF920F931F9379
:104D7000CF93DF93CDB7DEB761970FB6F894DEBF60
:104D80000FBECDBF8C0185E0F801DE011D960190BC
:104D90000D928A95E1F7F801E2809091AD0560915E
:104DA000AE054091B0055091B1054115510531F066
:104DB0006F3F31F481E09F3F19F403C081E001C0EF
:104DC00080E0F82FF1709F2E80FD02C1F801308144
:104DD0002181C380D4808DEAA82E85E0B82EF09082
:104DE000AF05F601E41BF50BFF2009F4CAC0809162
:104DF000B205E436F10508F095C0482F407F09F070
:104E000050C0621311C093130FC0FE2CE1100CC0F0
:104E10008F7080618093B205C5010E947F078091E9
:104E2000B205F801858311C1CD2831F02F3F31F44F
:104E300081E03F3F19F403C081E001C080E080FDC4
:104E400003C081E08E2502C080E090E0F82FF17071
:104E5000FF2E80FF1CC08091E4054091B30556E011
:104E6000841709F4D0C090E0589FF001599FF00DCD
:104E70001124EC54FA4F6181261306C0608163133C
:104E800003C06281E61203C001968770E9CFFE2C51
:104E9000EE2009F4DAC08091B20581608093B205FA
:104EA0004DC062130AC0931308C0E11006C0F80198
:104EB0008583C8010E947F076EC0C8010E948326B7
:104EC000882351F1EE2041F12091B205822F829585
:104ED0008F7090E0029774F08091AD059091AE05CF
:104EE00098878F831986DB86CA862C87CE01079622
:104EF0000E947F0786E0F801ADEAB5E001900D92CF
:104F00008A95E1F70E94DB250AC06217C9F0C80143
:104F10000E94832681111EC0C8010E947F07FF24C2
:104F2000F39493C0482F407F81F78DEA95E00E946B
:104F30007F0786E0F50111928A95E9F7F12C85C08B
:104F40009313E5CFE110E3CFF8018583C8010E94F8
:104F50007F0738C0EE2001F32091B205822F8295A1
:104F60008F7090E0029734F28091AD059091AE057C
:104F70009A8389831B82DD82CC822E83CE010196A7
:104F8000B7CFE436F105F0F4FE2CEE2029F26213DF
:104F90000BC0931309C086E0F801ADEAB5E00190BB
:104FA0000D928A95E1F751C0C8010E9483268111B4
:104FB000A1CF8091B20581608093B205C8010E94A3
:104FC0007F0743C086E0F50111928A95E9F73DC05D
:104FD000EE2009F4A1CFC8010E948326F82E882371
:104FE00009F49ACF86E0F801ADEAB5E001900D92A0
:104FF0008A95E1F78091AD059091AE050E947626E5
:105000000E94DB2522C03D872E878D859E850E94CC
:105010007626292F22952F70223028F49F7039F0A0
:10502000811105C00BC0243028F49F7049F4805EC4
:10503000883020F0C8010E947F079F2CF92C05C002
:10504000F8019581907F99F7F9CF8F2D61960FB672
:10505000F894DEBF0FBECDBFDF91CF911F910F91AE
:10506000FF90EF90DF90CF90BF90AF909F9008950A
:10507000292F220F920F990F890F682F6695669539
:105080006695982F977083E0689FB001112440E0E7
:1050900050E080E0FB01E40FF51FEB56FA4F208152
:1050A00030E0092E02C0369527950A94E2F7217068
:1050B0003327042E01C0220F0A94EAF7822B4F5F98
:1050C0005F4F4330510531F70895292F220F920F7A
:1050D000990F890FE82FE695E695E695877051E0E0
:1050E00001C0550F8A95EAF783E0E89FF00111248B
:1050F000EB56FA4F20E030E070E04081CB01022E09
:1051000002C0969587950A94E2F78170819584276D
:105110008523842781932F5F3F4F2330310569F723
:105120000895982F9670963011F4886001C0877F9B
:105130008093B4020C94B42521E030E001C0220F2A
:105140008A95EAF720958091B40282230C949128E5
:105150002091E505809582238093E505982F97702F
:1051600099F430E0482F082E000C550B2417350712
:1051700059F09091F60192FD07C08595859585952A
:105180000E949C281092E5050895CF93C091F601E6
:10519000C2FB992790F9981799F080FBC2F9C09348
:1051A000F6016091F50184E090E00E948E2E6C2F54
:1051B00082E290E00E948E2E82E0CF910C94A8288B
:1051C000CF91089521E030E001C0220F8A95EAF7DF
:1051D0008091B402822B0C94912880936D020C94E0
:1051E000B4251092E80586E0EFE8F5E0DF011D92B6
:1051F0008A95E9F70C94B425882321F00E94802534
:105200000C9487250895882339F09091E805892B1F
:105210008093E8050C94872508951F93CF93DF931F
:10522000182F893319F0C0E0D0E002C0C0E5D0E00B
:10523000812F0E947806209741F08FE99FE0019727
:10524000F1F700C000002197F6CF812FDF91CF91B9
:105250001F910C944006E1E7F5E0438124E1421BF5
:1052600008F440E021E0628181810C948F24E1E721
:10527000F5E0438124E1420F08F44FEF21E0628121
:1052800081810C948F24E1E7F5E062812AE0621BC2
:1052900008F460E021E0438181810C948F24E1E7F0
:1052A000F5E062812AE0620F08F46FEF21E04381AC
:1052B00081810C948F24E1E7F5E0818121E0438135
:1052C00062818A500C948F24E1E7F5E0818121E02E
:1052D00043816281865F0C948F24E1E7F5E0808151
:1052E0008E7F8083E0ECF4E08281816082832FEF07
:1052F00080E792E0215080409040E1F700C000003C
:105300000C94432480917105982F9695913021F04B
:10531000817082608093710580917405893718F0DF
:1053200088E7809374050895CF92DF92EF92FF9201
:105330006B017C010E948229B701A60188E090E000
:10534000FF90EF90DF90CF900C94A02E809171058C
:1053500080FF1EC081708260809371058091C204BD
:1053600081608093C204662351F060917105709151
:10537000720580917305909174050E94942920E034
:105380004091740560917305809172050C948F248F
:105390000895809171058695815009F481E061E05E
:1053A0000C94A62961E081E00C94A629E1E7F5E0E0
:1053B00083E0808311828FEF828388E78383148266
:1053C000A0ECB4E012968C911297836012968C93A5
:1053D00060817181828193810C949429803F39F49A
:1053E0009091F30597FF35C01092F30559C0813FA6
:1053F00029F49091F3051916BCF32BC09091F20596
:10540000823F29F497FF25C01092F20549C0833FDF
:1054100019F41916CCF31DC09091F405893F29F4B5
:105420001916BCF41092F4053BC08A3F19F497FF9B
:1054300010C0F8CF8B3F39F49091F50597FF09C064
:105440001092F5052DC08C3F21F49091F5051916A9
:10545000BCF39CE0980F953080F421E030E0A90186
:1054600002C0440F551F9A95E2F7CA0180959091AA
:10547000F10589238093F10513C08D3F21F48091BC
:10548000EB058E7F0BC08E3F21F48091EB058D7F65
:1054900005C08F3F29F48091EB058B7F8093EB054E
:1054A0008091F205811106C08091F305811102C03F
:1054B0001092EA058091F405811106C08091F505EE
:1054C000811102C01092E90508958091EB0580FDDD
:1054D00016C081FD16C082FD18C08091E9058823A1
:1054E00091F0883290F428E0829FC001112468E294
:1054F00070E00E94CE2E862F672B29F007C082E035
:10550000089584E0089581E0089588E008958091E9
:10551000EB0580FD14C081FD14C082FD16C0809192
:10552000EA05882381F0843180F422E3829FC00160
:10553000112464E170E00E94CE2E862F08958CE045
:10554000089589E1089585E0089582E30895803FF4
:1055500021F40E94872A819504C0813F29F40E948A
:10556000872A8093F3050895823F21F40E94872AB9
:10557000819504C0833F29F40E94872A8093F20515
:105580000895893F19F40E94652A05C08A3F31F4C5
:105590000E94652A81958093F40508958B3F21F43C
:1055A0000E94652A819504C08C3F29F40E94652AD7
:1055B0008093F50508959CE0980F953078F421E0EC
:1055C00030E0A90102C0440F551F9A95E2F7CA01C5
:1055D0009091F105892B8093F10508958D3F21F479
:1055E0008091EB0581600BC08E3F21F48091EB052B
:1055F000826005C08F3F29F48091EB058460809321
:10560000EB0508950E9412222091F205211104C099
:105610002091F305222321F09093EF058093EE056E
:105620002091F405211104C02091F505222321F0D9
:105630009093ED058093EC05E0918105F091820552
:10564000309749F082E08093F0050480F581E02DE9
:1056500080EF95E0099408951092B9008CE0809352
:10566000B80008959F92AF92BF92CF92DF92EF92CF
:10567000FF920F931F93CF93DF93B82EEB010E94FD
:1056800012226C01C431D10558F0CF3F8FEFD807FB
:1056900059F0CE0164E170E00E945D2E7B0107C0ED
:1056A000EE24E394F12C03C025E0E22EF12C84E8F3
:1056B000A82E94EA992E1092BC009092BC000E94F1
:1056C00012228C018091BC0087FD08C00E9412222A
:1056D000801B910B8E159F05A8F32AC08091B900FD
:1056E000887F883041F08091B900887F803119F03F
:1056F0000FEF1FEF1FC0B092BB00A092BC000E9432
:1057000012228C018091BC0087FD08C00E941222E9
:10571000801B910B8E159F05A8F30AC08091B900DC
:10572000887F883111F0803419F700E010E00EC056
:105730000EEF1FEFCF3F8FEFD80709F4BCCFC601A4
:105740000E94F7218C179D0708F4B5CFC801DF919F
:10575000CF911F910F91FF90EF90DF90CF90BF906E
:10576000AF909F9008950F931F93CF93DF93EB011A
:105770008093BB0084E88093BC000E9412228C01BD
:105780008091BC0087FD0EC0CF3F8FEFD807C1F3DB
:105790000E941222801B910B8C179D0788F38EEFBD
:1057A0009FEF0CC02091B900287F81E090E0283263
:1057B00011F480E090E0919581959109DF91CF916E
:1057C0001F910F910895CF92DF92EF92FF920F9366
:1057D0001F93CF93DF936B018A017901B9010E9476
:1057E000322BE6010C0D1D1DC017D10761F424E911
:1057F0002093BC00DF91CF911F910F91FF90EF900C
:10580000DF90CF90089597FDF2CFB70189910E9464
:10581000B32BEACFCF92DF92EF92FF920F931F93B9
:10582000CF93DF93C62F6A017901B8010E94322B12
:1058300097FD11C0B8018C2F0E94B32BE601EC0C30
:10584000FD1CCE15DF0539F097FD05C0B801899123
:105850000E94B32BF6CF24E92093BC00DF91CF91B7
:105860001F910F91FF90EF90DF90CF90089584E902
:105870008093BC0008958EE14A9B02C08150E1F7FD
:105880004A9BFECF08955A9880E28A95F1F75A9A7A
:105890000895FC012AE02A95F1F728E090E080E0E5
:1058A00031E040E14A95F1F7880F4A9B02C08160E0
:1058B000932700C0000040E14A95F1F7215089F795
:1058C00020E12A95F1F729B100C0000030E13A95B6
:1058D000F1F722FB222720F992272081920F908353
:1058E0000895EF92FF920F931F93CF93DF931F9230
:1058F000CDB7DEB719828C017C01E60EF11C0E15C6
:105900001F0551F00E943B2CCE0101960E94492CAC
:10591000F80181938F01F3CF81E09981911180E0AB
:105920000F90DF91CF911F910F91FF90EF9008950D
:10593000529A5A9A089552985A9AEA9AE9E6F0E0E9
:1059400080818F7C80830895615091E001C0990F20
:105950006A95EAF720E031E0992361F0492F482366
:1059600019F05A9A232701C05A9840E24A95F1F754
:105970009695F2CF222311F05A9A01C05A9880E2EC
:105980008A95F1F75A980895FF920F931F93CF933A
:10599000DF93EC018C01060F111DC017D10741F0F8
:1059A000F9900E94432C68E08F2D0E94A42CF5CF23
:1059B000DF91CF911F910F91FF9008951F920F9249
:1059C0000FB60F921124EF92FF920F931F932F9314
:1059D0003F934F935F936F937F938F939F93AF9377
:1059E000BF93EF93FF93CF93DF931F92CDB7DEB7B3
:1059F00019820E943B2CCE0101960E94492CA82FAF
:105A0000A695A695A6959A2F969595702A2F2570FE
:105A1000920F292F237096959695920F8770891370
:105A20007CC08981811179C0A53008F076C080E101
:105A30008A95F1F75A9A529AB2E0BA95F1F700C0F6
:105A40005A98EA2EF12CEAE0AE9FD0011124AC5E08
:105A5000BE4F1896ED91FC9119973097B1F0609177
:105A6000D8017091D90116962D913C911797260F68
:105A7000371F13968D919C911497680F791F159677
:105A80004C91159712968C9109958AE08E9DF001A4
:105A90008F9DF00D1124EC5EFE4F6581662351F061
:105AA0008091D8019091D90126813781820F931F6F
:105AB0000E94C42C0E94432CF0E1FA95F1F75A9809
:105AC00052985A9A80E18A95F1F78AE08E9D80017A
:105AD0008F9D100D11240C5E1E4FD80112966C91F3
