:100000000C9414060C945B060C945B060C945A2D0D
:100010000C945B060C945B060C945B060C945B06DC
:100020000C945B060C945B060C94621F0C949E1E51
:100030000C944B220C945B060C945B060C945B06B0
:100040000C945B060C945B060C945B060C945B06AC
:100050000C945B060C94FE210C945B060C945B06DE
:100060000C945B060C945B060C945B060C945B068C
:100070000C945B060C945B060C945B060C945B067C
:100080000C945B060C945B060C945B060C945B066C
:100090000C945B060C945B060C945B060C945B065C
:1000A0000C945B060C945B060C945B06940B940B0F
:1000B000C70BC70B3A0C580C640D640D630CD70CBE
:1000C000E80CE80C0F1312132E133B1342136213A8
:1000D00065139913BB1358145814C613C813CC13C3
:1000E000F0131114141417143914B01CD71C801EEB
:1000F000D71C801E231D461D801E3B1E4B1E7E26C8
:100100007E269126912687269126912691267E2667
:100110007E268C26912691268C2600000000000069
:1001200000000000000000000000000000000000CF
:1001300000000000000000000000000000007E0F32
:1001400000D4FFFFFFC7000000780000000000009F
:1001500000002A2B28000000000000000000000022
:10016000000000000029000000002C1E3420212285
:1001700024342627252E362D3738271E1F202122EE
:10018000232425263333362E37381F040506070867
:10019000090A0B0C0D0E0F10111213141516171857
:1001A000191A1B1C1D2F3130232D35040506070895
:1001B000090A0B0C0D0E0F10111213141516171837
:1001C000191A1B1C1D2F3130354C00DA0281FFD962
:1001D000F1DB20A4A62EAF00A0C000A1C800AED5C0
:1001E00080A81FD300408D142000808182838485E5
:1001F000868788898A8B8C8D8E8F9091929394A01C
:10020000A1A2A3A4A5A6A7A8A9AAABACADAEAFB066
:10021000B1B2B3B4C0C1C2C3C4C5C6C7C8C9CACBD2
:10022000CCCDCECFD0D1D2D3D400556E6465666923
:100230006E65640041646A757374004C6F77657213
:100240000052616973650044656661756C74004CA9
:10025000617965723A200005010902A10185020950
:1002600001A1000509190129081500250195087546
:100270000181020501093009311581257F9502753B
:1002800008810609381581257F95017508810605C5
:100290000C0A38021581257F950175088106C0C0BA
:1002A00005010980A101850319012AB7001501265E
:1002B000B700950175108100C0050C0901A10185E9
:1002C0000419012AA002150126A0029501751081CA
:1002D00000C00660FF0961A1010962150026FF0048
:1002E0009520750881020963150026FF0095207589
:1002F000089102C005010906A101050719E029E7D7
:100300001500250195087501810295017508810187
:100310000507190029FF150026FF009506750881BD
:1003200000050819012905950575019102950175CA
:10033000039101C009025B00030100A0FA09040057
:100340000001030101000921110100012240000701
:1003500005810308000A09040100020300000009E6
:10036000211101000122220007058203200001075C
:100370000503032000010904020001030000000935
:100380002111010001227B000705840320000A12CD
:1003900001000200000008EDFE09900200010200C9
:1003A0000112034C0069006C007900350038002D03
:1003B00000580000000E03640065006900750063CA
:1003C0000071000000040309040000000000003E6A
:1003D0005B4F5B3E003E6B4F6B3E001C3E7C3E1C09
:1003E00000183C7E3C18001C577D571C001C5E7F8B
:1003F0005E1C0000183C180000FFE7C3E7FF000088
:100400001824180000FFE7DBE7FF0030483A060E2B
:1004100000262979292600407F05050700407F0531
:10042000253F005A3CE73C5A007F3E1C1C08000850
:100430001C1C3E7F0014227F2214005F5F005F5F60
:100440000006097F017F00006689956A0060606090
:1004500060600094A2FFA2940008047E04080010CB
:10046000207E20100008082A1C0800081C2A080802
:10047000001E10101010000C1E0C1E0C0030383E18
:10048000383000060E3E0E0600000000000000009E
:10049000005F000000000700070000147F147F14B5
:1004A00000242A7F2A12002313086462003649566A
:1004B000205000000807030000001C22410000003B
:1004C00041221C00002A1C7F1C2A0008083E080844
:1004D0000000807030000008080808080000006074
:1004E0006000002010080402003E5149453E000013
:1004F000427F4000007249494946002141494D333D
:10050000001814127F10002745454539003C4A4920
:100510004931004121110907003649494936004651
:100520004949291E0000001400000000403400006A
:100530000000081422410014141414140000412275
:100540001408000201590906003E415D594E007C25
:100550001211127C007F49494936003E4141412237
:10056000007F4141413E007F49494941007F0909DF
:100570000901003E41415173007F0808087F0000D7
:10058000417F4100002040413F01007F081422418B
:10059000007F40404040007F021C027F007F040833
:1005A000107F003E4141413E007F09090906003E9F
:1005B0004151215E007F09192946002649494932E7
:1005C0000003017F0103003F4040403F001F2040E7
:1005D000201F003F4038403F0063140814630003AD
:1005E00004780403006159494D4300007F414141B3
:1005F00000020408102000004141417F0004020174
:100600000204004040404040000003070800002072
:1006100054547840007F28444438003844444428E7
:1006200000384444287F0038545454180000087E91
:100630000902001824241C78007F080404780000B4
:10064000447D4000002040403D00007F10284400D1
:100650000000417F4000007C04780478007C08049E
:100660000478003844444438007C182424180018C6
:100670002424187C007C08040408004854545424A2
:100680000004043F4424003C4040207C001C2040E7
:10069000201C003C4030403C004428102844004CC2
:1006A0009090907C004464544C4400000836410013
:1006B000000000770000000041360800000201023F
:1006C0000402003C2623263C00000000000080803D
:1006D0008080000000000080E070180C1830E0807E
:1006E000000010F8901030783010B8FC381000007E
:1006F00000000000F8FCF80000000000000000000E
:10070000000000001C9C1C00000000F8FCF8000029
:10071000000000001CFCF8C000000000000080E0A9
:10072000F87C1C000000F0FCFCFC1C1C1C1C1C1CAD
:100730001C1C000000000000C0F0F8381C1C1C1C31
:100740001C1C3CF8F0E000E0F0F0F0E0ECEEF7F319
:100750007020007C7C7C7E007E7E7E7F7F7F000020
:1007600080C0E07E5B4F5BFEC00000C000DCD7DED7
:10077000DEDED7DC00C0000000000000000000004A
:1007800000000000000000000000000000000FBC9E
:10079000E0818181838382870C183060C000001F54
:1007A000FE90B9FFBB91983C1811133F1100000057
:1007B00000000000FFFFFF0000000000000000003C
:1007C00000000000FFFFFF00000000FFFFFF00002F
:1007D000000000000000030F7FF8E080F0FC3F0FF6
:1007E0000100000000003F3F3F1C1C1C1C1C3C780B
:1007F000F8F0E08000000000C3E7FF7E3C38787826
:100800007070F8FFDF87000F1F3F7F7F7F7F7F3F84
:100810001E0C001F1F1F3F003F3F3F7F7F7F0030A8
:100820007B7F7830202030787F3B0003000F7F0FE4
:100830000F0F7F0F00030000000000000000000009
:10084000000000000000000000183C24666341C165
:100850008180808080808081C14162386C4CC681FB
:1008600081808080808081C14362361C1800000036
:1008700000000000FFFFFFC0C0C0C0C0C0C0C0C0BB
:10088000800000007FFF7F000000007FFFFFC0802E
:10089000000000E0E0C0C0C0E0F97F1F07000000DA
:1008A00000000000000070F0E0E0C0C0C0C0E0F058
:1008B000F87F3F0F0000000F3F7FF9E0E0C0C0C0AD
:1008C000C0C0E0F97F3F1F000000000000000000F2
:1008D0000000000000000000000000000000000018
:1008E0000000000000000000000000000000000008
:1008F00000000000000000000000000000000000F8
:1009000000000000000000000005040302010006D2
:100910000708090A0B11100F0E0D0C1213141516EF
:1009200017181C1B1A192221201F1E1D23242526DF
:1009300027282E2D2C2B2A292F30313233343539CC
:1009400038373600AF00AE29001E001F00200021FE
:100950000022002B0014001A00080015001700E008
:100960000004001600070009000A00E1001D001B3A
:100970000006001900050000000151E300E2002C10
:10098000002F003500270026002500240023002D1D
:1009900000130012000C0018001C00340033000F7C
:1009A000000E000D000B00E5003800370036001087
:1009B00000110000000251E7002A00280030000169
:1009C000000100010001000100010001001E021FE2
:1009D0000220022102220201001E001F002000212D
:1009E00000220001000100010001000100010000DF
:1009F00000010001000100010001000100010001EF
:100A00000001000100010001002702260225022446
:100A100002230201002700260025002400230001F4
:100A20000030022F022E02350031020000010001C9
:100A300000010001000100010001000100010001AE
:100A40000001003A003B003C003D003E003F000139
:100A5000000100010001000100010001000100018E
:100A6000000100010001000000010001000100017F
:100A7000000100010001000100010001000100452A
:100A8000004400430042004100400000004F00527B
:100A9000005100500000000100310030002F002EF6
:100AA000002E020000010001000100010001000011
:100AB0000000000000000000000000000000000036
:100AC0000000000000000000000000000000000026
:100AD0000000000000000000000000000000000016
:100AE0000001000100010001000000000000000002
:100AF00000000000000000000000000000000000F6
:100B000000000000000000000000000000000000E5
:100B100000000000000000000000000000010001D3
:100B200000010001000000000101010101010101BB
:100B30000102020202020202020203030303030390
:100B4000030304040404040404050505050506065E
:100B5000060606070707070708080808090909091C
:100B60000A0A0A0B0B0B0C0C0C0D0D0D0E0E0E0FC2
:100B70000F0F101011111112121313141415151652
:100B8000161717181819191A1A1B1B1C1D1D1E1EC3
:100B90001F20202122222324242526262728292914
:100BA0002A2B2C2D2D2E2F3031323233343536373F
:100BB00038393A3B3C3D3E3F40414243444546473D
:100BC00048494A4C4D4E4F50515354555658595A16
:100BD0005B5D5E5F616264656668696B6C6D6F70BA
:100BE00072737577787A7B7D7E8082838587888A29
:100BF0008C8E8F91939596989A9C9EA0A2A3A5A760
:100C0000A9ABADAFB1B3B5B7BABCBEC0C2C4C6C95B
:100C1000CBCDCFD1D4D6D8DBDDDFE2E4E7E9EBEE14
:100C2000F0F3F5F8FAFDFF0011241FBECFEFDAE074
:100C3000DEBFCDBF04B603FE27C08091F8059091BA
:100C4000F905A091FA05B091FB058730904BA740BC
:100C5000B04BD1F41092F8051092F9051092FA05F4
:100C60001092FB0514BE84B7877F84BF0FB6F8943B
:100C7000A895809160008861809360001092600068
:100C80000FBEE0E0F8E3099511E0A0E0B1E0E6EF87
:100C9000F4E602C005900D92AC3EB107D9F725E00D
:100CA000ACEEB1E001C01D92A83FB207E1F70E948F
:100CB000670E0C9479320C9400008823A9F19CEF04
:100CC000980F913A60F4EFE8F5E09281891301C042
:100CD0001282319695E0E539F907B9F70DC090E237
:100CE000980F983058F4877091E001C0990F8A9559
:100CF000EAF7892F0E9466250C946D259BE5980FD5
:100D0000933020F480E090E00C94A42298E5980FB2
:100D1000973120F480E090E00C948E22803F20F008
:100D20000E946A2A0C947E2B0895CF93882309F49D
:100D300059C0C82F8CEF8C0F813AF8F4E1E9F5E047
:100D400087E995E02191C21721F08E179F07D1F70F
:100D50000EC0EFE8F5E085E995E02281C21301C0FD
:100D6000128231968E179F07C1F70E946D256C2F56
:100D70008FE895E00E94742210C080E28C0F8830CA
:100D800078F4C77081E090E001C0880FCA95EAF757
:100D90009091EA05892B8093EA05CF910C946D25FB
:100DA000EBE5EC0FE33040F4F0E0E955FE4F8081D5
:100DB00090E0CF910C94A422E8E5EC0FE73150F4D9
:100DC000F0E0EE0FFF1FE655FE4F80819181CF913D
:100DD0000C948E22C03F30F08C2F0E94232BCF9199
:100DE0000C947E2BCF9108951F93CF93DF93CDB7B3
:100DF000DEB767970FB6F894DEBF0FBECDBF4B8B43
:100E00005C8B6D8B7E8B8F8B61111092E90586E078
:100E10009E01235F3F4FD901E82F1D92EA95E9F724
:100E200095E0FE017396D90101900D929A95E1F734
:100E30009C894E895F897B897D879E876F87598BC7
:100E4000488BF901DE01179601900D928A95E1F722
:100E5000CE0107960E94952681113EC086E0FE01D4
:100E60003796DE01119601900D928A95E1F7FF8188
:100E7000E8856A857B856115710531F0EF3F31F4B6
:100E800081E0FF3F19F403C081E001C080E080FDF4
:100E900023C02091B50530E0C901019687709927DC
:100EA0004091E60550E08417950779F1F983EA83CC
:100EB0007D836C8396E0929FD001939FB00D1124A7
:100EC000AA54BA4FFE01319601900D929A95E1F71E
:100ED0008093B5050E94B72516E08091E6059091B4
:100EE000B5058917F9F0189FC00111248A549A4F4B
:100EF0000E9495268823B1F08091E60590E0019646
:100F0000877099278093E605E8CF0E94D728109232
:100F1000B5051092E605EFEAF5E086E0DF011D92E7
:100F20008A95E9F767960FB6F894DEBF0FBECDBF7E
:100F3000DF91CF911F9108953F924F925F926F92F0
:100F40007F928F929F92AF92BF92CF92DF92EF9259
:100F5000FF920F931F93CF93DF93CDB7DEB72997FF
:100F60000FB6F894DEBF0FBECDBFFC01808191812A
:100F700023813481232B31F09F3F31F491E08F3F67
:100F800019F403C091E001C090E090FD74C67F01A8
:100F900085E0DE01119601900D928A95E1F7F70147
:100FA000228189819A81222349F00E942D26182FBF
:100FB000682F89819A810E944B2803C00E941E28B5
:100FC000182F69817A81812F0E94A7238C01F70154
:100FD0008281882309F4F1C0C80182519F4540975E
:100FE00008F0A7C58FEF93E00E94F62E8111EEC0A6
:100FF000025147E0842E42E0942E002379F08114C0
:10100000F4E09F0609F4E2C0C4010E94F62E8111AB
:1010100001C001502FEF821A920AEFCF1E821F8269
:1010200018861986442443943AE0332E84010F5FD6
:101030001F4FC4010E94F62E8E831F82882309F45D
:10104000C5C09FEF980F933060F48F834E8232E0DB
:10105000830E911CC8010E94F62E8887811102C060
:10106000B5C048018E010A5F1F4FF801208122237D
:10107000E9F2213009F04CC08181813049F46801E6
:10108000F2E0CF0ED11CF80182810E94F3280AC041
:10109000823051F46801F2E0CF0ED11CF801828158
:1010A0000E949506860186C0833049F46801F2E00B
:1010B000CF0ED11CF80182810E945D06F3CF8430EF
:1010C00019F00F5F1F4F76C0F80122810E5F1F4F8E
:1010D00080E090E030E0205331092A30310568F497
:1010E000389EA001399E500D1124C901840F951F0F
:1010F0000F5F1F4FF8012081EDCF009709F45AC010
:10110000EFE9FFE03197F1F700C000000197F5CF5C
:10111000E22FF0E0E65BFE4F5490822F8695869595
:10112000869590E0FC01E65CFE4F64902770712C80
:10113000022E02C0759467940A94E2F7F1E06F22E0
:101140007724FC01E65DFE4FA490B12C022E02C074
:10115000B594A7940A94E2F731E0A322BB24FC01E2
:10116000E65EFE4FC490D12C02C0D594C7942A9558
:10117000E2F781E0C822DD246114710419F081EEE8
:101180000E949506A114B10419F086EE0E949506FE
:10119000852D0E94F328AB2819F086EE0E945D068B
:1011A000672819F081EE0E945D06CD2819F08CE2C7
:1011B0000E94F3280F5F1F4F58CF0031FFE51F0734
:1011C00069F581E00E9482280E947D1B8091E705DD
:1011D000877009F450C5F7018281882309F44BC553
:1011E0008091F60182FD47C582E029960FB6F894FA
:1011F000DEBF0FBECDBFDF91CF911F910F91FF904A
:10120000EF90DF90CF90BF90AF909F908F907F90A6
:101210006F905F904F903F900C948E2801312FE596
:101220001207D9F582E0CECF0C33110508F09FC428
:10123000F801ED5AFE4FD0801F92DF921F930F935B
:10124000F70180811F928F9381811F928F9382E497
:1012500091E09F938F931F9288E18F9384E092E0B7
:101260009F938F930E94812F0FB6F894DEBF0FBE1D
:10127000CDBF8091EE019091EF01449709F468C4CD
:101280008091EE019091EF01FC01E45EFD4FD08270
:1012900001969093EF018093EE01033F3CE5130725
:1012A00059F190F4083D9CE51907E9F0093DECE59A
:1012B0001E07A1F1073DFCE51F07B1F506E221EE8F
:1012C00041EE67ED7CE514C0053F2CE5120701F106
:1012D000C8F0063F8CE5180739F507E225EE46EE23
:1012E00066EF7CE505C007E225EE45EE68ED7CE59E
:1012F000C7010E94CA226ACF06E221EE40EE63EFE8
:101300007CE5F6CF07E225EE44EE64EF7CE5F0CF16
:1013100006E221EE42EE65EF7CE5EACF08E221E04D
:1013200045EE69ED7CE5E4CFF7018281882309F47D
:1013300045C1109280050330FDE51F0758F40A3FB0
:101340002CE5120760F4C80182509C45449708F0D0
:101350001FC105C001363DE5130709F019C10E9400
:1013600087189093F6018093F50100318CE51807FA
:1013700009F4CAC008F041C00830ECE51E0709F4C2
:10138000A4C0F0F404302CE5120709F48CC068F412
:1013900002308CE5180709F482C003301C4509F0BF
:1013A000E7C08091F5018260E1C00630ECE51E07E0
:1013B00009F483C008F085C08091F5018860D6C02B
:1013C0000C302CE5120709F490C068F40A308CE563
:1013D000180709F47EC008F084C00E94D7288091C5
:1013E000F5018068C3C00E30ECE51E0709F481C02A
:1013F00008F086C08091F50194C00C3F2CE51207DF
:1014000009F47BC038F504318CE5180709F49AC05B
:1014100058F40231ECE51E0709F47AC008F07EC0EA
:101420008091F5018F7BA2C00A3F2CE51207F1F1F4
:1014300008F03FC005311C4509F09AC08091F501C4
:1014400082FB222720F991E0922790FB82F990FB02
:1014500083F98CC001159DE5190709F467C050F4A4
:101460008091F6010E3FFCE51F07C1F108F05BC05B
:101470008D7F65C002303DE5130709F471C008F4A3
:101480006DC001361D4509F073C08091F50184FBE4
:10149000222720F991E0922790FB84F967C0809180
:1014A000F501816063C08091F50116C08091F6015D
:1014B00016C08091F601826042C08091F501806182
:1014C00055C08091F501806251C08091F501806422
:1014D0004DC08091F5018860846048C08260816061
:1014E0002EC08091F5018E7F41C08091F5018D7FE6
:1014F0003DC08091F501877F39C08091F60114C00D
:101500008091F5018F7E32C08091F5018F7D2EC0D4
:101510000E94D7288091F5018F7728C08091F5012E
:10152000877F8B7F23C08D7F8E7F09C08091F601DE
:10153000982F909591708E7F892B90FB81F98093E5
:10154000F60116C00E94D7288091F50187FB22275B
:1015500020F991E0922790FB87F908C061E001C073
:1015600060E08EE090E00E940A2F02C08093F501B7
:101570006091F5011091F60184E090E00E940A2F3D
:10158000612F82E290E00E940A2F0E94D7281ECE8F
:101590000631FCE51F0761F58091EA058A7A91E042
:1015A00009F490E09093F001882311F065E301C005
:1015B00069E28FE895E00E94742217C006319CE52D
:1015C000190709F048C08091F001882309F4D2C2BC
:1015D00085E3EFE8F5E025E935E09281891301C064
:1015E000128231962E173F07C1F70E946D25EECD6E
:1015F0000A352DE5120749F158F401158CE5180755
:10160000B1F00E3D1C4509F042C00E94A318DECD8A
:101610000B35EDE51E07D9F00C351D45C1F5809160
:10162000F60182FB882780F991E0892711C00E948A
:10163000D7282FEF34E38CE0215030408040E1F791
:1016400000C000000E94ED21C1CD81E001C080E01A
:101650000E94AB281CC08091EA058272093CECE52F
:101660001E0709F4F2C208F093C2053C2CE51207EC
:1016700009F4DCC208F080C2033C9CE5190709F4B8
:10168000CBC208F0CEC2023C1C4509F49DC2F70152
:10169000828100811181882349F0C8010E942D2692
:1016A000D82E682FC8010E944B2804C0C8010E9490
:1016B0001E28D82EB8018D2D0E94A7230E94ED165A
:1016C000B82E192F982EF7010281A580A2942FE041
:1016D000A2228091E7058770B9F00023A9F0892F35
:1016E000807F803421F080E28B0D883068F080911B
:1016F000F60182FD09C082E00E948E288091E705F4
:101700008770DD24D3948111D12CC12EC2949FE027
:10171000C9228C2D90E08C30910508F0D5C1FC01D8
:10172000EA5AFF4F0C945E2F812F807F1F70882311
:1017300011F01295107F0023B9F0112309F4B2C102
:1017400080E28B0D883010F0911006C08091EA0580
:10175000182B1093EA0505C08091E905182B10930A
:10176000E9050E946D259EC18B2D0E945D06112307
:1017700009F4AAC180E28B0D883080F1992071F1C3
:1017800010958091E90518231093E9052AC0812F4F
:10179000807F1F70803211F01295107F8B2D992061
:1017A00021F0F1E09F16D9F149C08091F60182FF46
:1017B0001BC0002369F0112339F08091EA05182B32
:1017C0001093EA050E946D2580E00E9495067CC179
:1017D00080E00E945D06112309F476C1812F0E94EA
:1017E00066250E946D2570C1002381F080916C02F6
:1017F000AA2051F021E0A21207C0182B181709F4F3
:1018000063C110936C0260C1812B10C0AA2021F02B
:1018100031E0A31609F458C10E940D1927C0002316
:1018200041F085E08A1508F44FC1812F0E94E92814
:101830004BC194E09A1508F447C118C0002349F041
:10184000AA2099F3F701858180FF2CC18F708583D1
:10185000ECCFAA2059F0893309F033C1FFEF27EE0E
:1018600033E0F15020403040E1F729C1812F0E9440
:10187000E2282AC1812F86958695837019F08130E0
:1018800061F022C1002321F08B2D912F937002C0B3
:1018900080E090E00E94A4221DC1002321F08B2D46
:1018A000912F937002C080E090E00E948E2212C1BE
:1018B0008B2D002319F00E94232B02C00E946A2A5C
:1018C0000E947E2B07C1812F8370A9F5011100C1F1
:1018D0004B2D429546954770440F440F8B2D8F70CA
:1018E00090E09C01042E01C0220F0A94EAF7B4FE96
:1018F00008C08FE090E001C0880F4A95EAF7809514
:1019000001C080E0169516951370123069F088F4C6
:1019100090916D02113019F0822B892302C0922B15
:10192000892B0E94D328D4C0822B90916D028927E5
:10193000F8CF822BF6CF002319F0812F817001C0E0
:101940008695882309F4C4C04B2D4295469547706F
:10195000440F440F8B2D8F7090E09C01042E01C02A
:10196000220F0A94EAF7B4FE08C08FE090E001C0AD
:10197000880F4A95EAF7809501C080E01695169584
:101980001370123059F078F49091B502113019F0BB
:10199000822B892309C0922B892B06C0822B909120
:1019A000B502892701C0822B0E94772891C01F7041
:1019B000002339F0812F0E94C8288B2D0E94E9282E
:1019C00087C08B2D0E94E228812F0E94822880C030
:1019D0008B2D92EF991679F1991538F0E0EF9E165C
:1019E00059F0F1EF9F1611F159C023EF921651F102
:1019F00034EF9316B9F052C0002379F084E08A15D1
:101A000008F462C01F7181E090E001C0880F1A9550
:101A1000EAF79091B50289271FC095E09A1508F45E
:101A200053C0F0CF8091F60182FF19C0002329F046
:101A3000812F8F7126C00023D9F3812F8F710E94CF
:101A4000822842C0002339F01F7181E001C0880F55
:101A50001A95EAF701C080E00E94772835C000237C
:101A600099F01F71812F0E94C8288091F60182FD94
:101A700007C0E8E01E9FC001112483608093E70542
:101A8000812F0E94C82820C081E00E948E28F1E0AA
:101A9000FA15D0F482E00E948E2816C0002321F0AF
:101AA000AA2031F28B2D91CEAA2039F2893349F444
:101AB0002FEF37EE83E0215030408040E1F700C047
:101AC00000008B2D0E945D0688EF8C0D843010F491
:101AD0000E94BA22DD2009F4CEC08091E70580FD86
:101AE000CAC0F70112828595859585950E94C82800
:101AF000C7010E949C078091E7058595859585958E
:101B000029960FB6F894DEBF0FBECDBFDF91CF91FF
:101B10001F910F91FF90EF90DF90CF90BF90AF900B
:101B20009F908F907F906F905F904F903F900C941C
:101B3000822800313FE5130711F481E006C001312E
:101B40008FE5180709F070CB82E00E94C8283CCBD3
:101B50001092EF011092EE01ECE1F2E080E392E0EE
:101B600020E28E179F0709F48BCB2193FACF80E2F6
:101B7000D82E62CB89E22DCD073C2CE5120709F463
:101B80005AC008F05DC04AE459E261E479E26BC0F2
:101B90000D3C9CE5190709F469C060F40B3CFCE5B9
:101BA0001F0709F457C008F05AC04DE159E261E13E
:101BB00079E259C0063D3CE5130708F407CB0D3523
:101BC0001D4509F403CB63CD8091730580FF1EC0D2
:101BD0008E7F809373056091730570917405809179
:101BE0007505909176050E947A298091C3048160E1
:101BF0008093C3049FEFE0E7F2E09150E040F040B3
:101C0000E1F700C000000E947024E0CA8160809368
:101C1000730561E086952CC04FEA59E268EB79E2E2
:101C200022C048EB59E26FEA79E21DC041E459E273
:101C30006AE479E218C049E259E265E379E213C047
:101C400045E359E269E279E20EC041E159E26DE112
:101C500079E209C049E151E26AE271E204C04AE274
:101C600051E269E171E20E946A24B0CA61E081E058
:101C70000E948C29ABCA29960FB6F894DEBF0FBE1E
:101C8000CDBFDF91CF911F910F91FF90EF90DF902B
:101C9000CF90BF90AF909F908F907F906F905F900C
:101CA0004F903F900895982F92959F7019F0892F2B
:101CB00024E001C020E0982F9695969511F02E5FB4
:101CC000892F982F969509F02F5F822F0895CF9333
:101CD000DF93CDB7DEB7AE970FB6F894DEBF0FBE79
:101CE000CDBF84B7877F84BF0FB6F894A895809145
:101CF0006000886180936000109260000FBE90E0E9
:101D000080E80FB6F89480936100909361000FBE55
:101D100085B7806885BF85B7806885BF89EA94E10B
:101D20009093ED018093EC010E94E21E0E94011F3E
:101D30008091E20084608093E20078948091AB020D
:101D40008823A1F01091E9001F709091EC00892F79
:101D5000817090FD80E8182B1092E9008091E800D6
:101D600083FD0E94C81B1F701093E90082E084BDB0
:101D700093E095BD9AEF97BD80936E001092F101AC
:101D80001092F2011092F3011092F4010E9451247A
:101D9000811102C00E9442240E94411680930001DA
:101DA00080910001882321F010923D018DE103C054
:101DB0008DE180933D0180933E010E944116811187
:101DC0000E94142D8091000180910001882311F060
:101DD00090E001C095E09093020285E0891B80931A
:101DE00001020FE811E0F4E9EF2EF1E0FF2ED80137
:101DF0008D918D018F3F11F00E94D616E016F106ED
:101E0000B1F709E911E0F80181918F018F3F11F0DD
:101E10000E94D616F1E00F391F07A9F78AE0E1E624
:101E2000F2E0DF01282F1D922A95E9F7E7EFF1E0B4
:101E3000DF011D928A95E9F70E949818811102C06E
:101E40000E94A31882E090E00E94F62E8093560232
:101E50000E9487189093F6018093F5010E94131950
:101E6000EFE3FCE93197F1F700C000000E9413197D
:101E70008091610280FF08C06FEF7FEF80E090E00B
:101E80000E94282F0E94ED2183E090E00E94F62E10
:101E90000E94D3280E944116811102C00E94172D72
:101EA0000E944116811102C082E001C080E080934F
:101EB000510280E88093B6020E94A82B6DE070E08A
:101EC0008DED91E00E949F1B892B09F043C080910A
:101ED000510263E070E081FD3AC08AED91E00E941A
:101EE0009F1B892BB9F56DE070E08AEC91E00E94B0
:101EF0009F1B892B79F50E943322DC01CB01805A8C
:101F00009541AF4FBF4F8093780590937905A0938B
:101F10007A05B0937B05E9EBF2E080E092E0DF0127
:101F20009C011D9221503040E1F7F093C004E093F2
:101F3000BF048FEF9FEF9093B8028093B70281E0C8
:101F400080937D0580937C051092520203C087ED3B
:101F500091E0C5CF80910302811136C00E9498188C
:101F6000811104C00E94A3180E94BC2988E090E05F
:101F70000E94FE2E6093730570937405809375051F
:101F8000909376058091C30483608093C3046E7F31
:101F900071F40E94BC2988E090E00E94FE2E6093BC
:101FA00073057093740580937505909376050E9470
:101FB00068298091730580FF04C060E086950E94C7
:101FC0008C2981E08093030281E091E09093840565
:101FD00080938305CE0101967C011E019DE0290EB0
:101FE000311C8091AB02853009F046C000E112E15E
:101FF0008091AB02853009F03BC08091AB02843008
:1020000031F10E94B42310928705A8E1B0E0E0E42A
:102010000FB6F894A895A09360000FBEE0936000FF
:1020200083B7817F846083BF83B7816083BF7894E7
:10203000889583B78E7F83BF0FB6F894A89580915B
:102040006000886180936000109260000FBE8091F4
:10205000AA02882309F4CCCF0E941319E1E6F2E02A
:10206000819181114DC422E0EB36F207C9F7C0CF50
:102070000E94D7280E94BA220E941319B82E8111FB
:102080000E94332281E692E09CA78BA7E7E5F2E06D
:10209000DC0100E010E0902EAD9081918A2549F19D
:1020A000C12CDD24D394982F9D21F1F00E9441167C
:1020B000882399F0C9A29AA2AD2081E009F480E0BA
:1020C0008BA30E943F228160782F9DA38CA349A1FE
:1020D0005AA16BA18DA10E94F406F801E95AFD4FA7
:1020E0008081D826D0821AC0C394DD0C96E0C91234
:1020F000DACF0F5F1F4F0A30110569F68FEF8EA3FD
:102100008FA318A60E943F228160782F9AA789A7E3
:102110004EA15FA168A58AA50E94F40680917D0565
:10212000882309F447C180915302909154020E9480
:102130002422C297E0F10E943F22909354028093A0
:10214000530289EB92E09093C0048093BF040E94F5
:102150004116882341F18FE492E00E94501B809148
:10216000B5020E94530E813071F038F0823041F098
:10217000833061F484E392E00BC087E492E008C00E
:1021800081E492E005C08BE392E002C08AE292E033
:102190000E94781B84E092E00E945E1B8CE192E03A
:1021A0000E945E1B04C08AEE91E00E94501B809149
:1021B0007D05882309F4E3C02091B7023091B8026D
:1021C0002115310509F4DBC0809152028111D7C07D
:1021D000482E512CCC24C394D12C082E02C0CC0CF8
:1021E000DD1C0A94E2F7A9014C215D21452B11F475
:1021F0008F5FEECF90915102920175E0220F331F55
:102200007A95E1F790FD12C08295880F80768093D1
:102210000F01220F232F221F330B31952093120120
:10222000815E809310011092130112C055E0369523
:1022300027955A95E1F7220F220F220F20930F01C5
:1022400010921201295F2093100183E08093130103
:1022500024E630E047E050E06DE071E088E70E945E
:102260005F2C892B09F08BC08091510280FD23C027
:10227000C20145E0880F991F4A95E1F7AC01475428
:102280005D4F04E610E020E230E060E488E70E9461
:10229000862C892B09F073C00E94CE23C094D09461
:1022A0008091B7029091B802C822D922D092B80288
:1022B000C092B70264C080E2E1E3F2E0DF011D9268
:1022C0008A95E9F735E0440C551C3A95E1F7E3EAC5
:1022D000F1E0FEA7EDA76FE971E0ADA5BEA58D9178
:1022E000BEA7ADA7FB019191BF01A201490F511DEE
:1022F00047545D4F90E08F5C9D4FFC0127E0922E8C
:102300009F01281B390B7724739401C0770C2A9501
:10231000EAF78A01812CD801AD908D01A720292DE3
:1023200028192770622E022E000C330BBA2D01C023
:10233000BB0F6A94EAF76B2E31952195310927700E
:10234000332701C0A6942A95EAF76A28A0806A2854
:102350006082839428E08212DECF9A9431963FEF18
:102360009312CECF8DA59EA5875A914009F0B5CF87
:1023700004E610E020E230E041E352E086CF8091B5
:102380007C058823B9F00E943322009178051091D2
:10239000790520917A0530917B05DC01CB01801B0A
:1023A000910BA20BB30B8F3F9F4FAF4FBF4710F462
:1023B0000E94B423B1100E94CE2386E0E2EFF5E044
:1023C000D70101900D928A95E1F7C090F405D09065
:1023D000F5050091F6051091F7051092F40510929D
:1023E000F5051092F6051092F705C11003C0DD2027
:1023F00009F451C08091F0059091F1050E942422CA
:102400009C019091EC05992309F499C2233331057D
:1024100008F441C09F3F19F09F5F9093EC05CC20DA
:1024200061F00E94032B1C1414F491E001C09FEF93
:10243000899F802D11248093F405DD2061F00E9496
:10244000032B1D1414F491E001C09FEF899F802D90
:1024500011248093F5053091F4053323E1F02091A8
:10246000F5052223C1F045EB3403C0011124992363
:1024700019F09093F40503C081E08093F40535EBE7
:102480002303C0011124992319F09093F50503C08B
:1024900081E08093F505011103C0112309F451C0B7
:1024A0008091EE059091EF050E9424229C0190916D
:1024B000EB05992309F448C22536310508F441C0DB
:1024C0009F3F19F09F5F9093EB05002361F00E94FE
:1024D000E12A101614F491E001C09FEF899F802D2E
:1024E00011248093F605112361F00E94E12A111650
:1024F00014F491E001C09FEF899F802D11248093F7
:10250000F7053091F6053323E1F02091F7052223FA
:10251000C1F045EB3403C0011124992319F09093C5
:10252000F60503C081E08093F60535EB2303C00177
:102530001124992319F09093F70503C081E080934B
:10254000F7058091F40581110BC08091F50581118B
:1025500007C08091F605811103C08091F7058111B4
:102560000E947E2BCB82DC820D831E8386E0F701E6
:10257000A2EFB5E001900D928A95E1F70E94BA2290
:1025800090915502891721F00E94BA22809355023A
:102590008091AB02843009F024CD83E08093E90080
:1025A0008091E80082FF1DCD8091E80085FF21C069
:1025B0000E94392081111BC080E2C82ED12C8701D6
:1025C00009C08091F100D8018D938D01B1E0CB1A43
:1025D000D10869F08091E80085FDF3CF8091E80093
:1025E0008B778093E8000E943920882399F391E04B
:1025F00001C090E08091E8008B778093E8009923F8
:1026000009F4EFCCE9818E2F90E0FC013197E331A2
:10261000F10508F04DC1EE59FF4F0C945E2F1A8260
:1026200089E0A7C08A81823009F480C1833051F0EB
:10263000813009F03DC10E9433229B838C837D83CE
:102640006E8338C1FE013396ABA5BCA58D91BCA7A6
:10265000ABA781932E163F06B9F72CC18A81823031
:1026600009F026C16B817C818D819E810E94642F3F
:1026700086E290E024C04C816B818A810E94812394
:102680009D835BC10D811E811027012710278C813E
:10269000CB809A81BCE0CB9E60011124E8E79E9F2D
:1026A000C00CD11C1124C80ED11CC80ED11C612F26
:1026B000C60187960E940A2F602FC60188960E9445
:1026C0000A2FF8C00E944D23F5C08A818138B1F0ED
:1026D00050F4803809F0EEC020E04B816091750520
:1026E0008091740523C08238E9F0833809F0E2C094
:1026F00020E0409176056C818B8118C060E08B8171
:102700000E948C298B81811103C00E945329D2C061
:102710008091730581608093730560E086950E94C7
:102720008C29C8C08B8180937705C4C00E94F9248E
:10273000C1C08A81813899F030F4803809F0BAC07C
:102740008091760516C0823891F0833809F0B2C0C6
:10275000809174058B83809175058C83ABC08091CB
:10276000730580FF02C0869504C080E002C080919E
:1027700077058B839FC0609173057091740580917C
:102780007505909176050E947A2994C080E14DC02C
:1027900081E08A8389EFEDCF0A811B811027012711
:1027A0001027AC80B12C6701C801895F9D4F96014D
:1027B0002E193F092A153B0508F07CC0093FF1E0BE
:1027C0001F0730F40E94F62ED60114968C9302C097
:1027D000F60114820F5F1F4FFFEFCF1ADF0AE4CF1D
:1027E0000A811B81102701271027AC80B12C6701BB
:1027F000C801895F9D4F96012E193F092A153B0597
:1028000008F058C0093F21E0120728F4D6011496B9
:102810006C910E940A2F0F5F1F4FBFEFCB1ADB0A8C
:10282000E7CF0E943D2346C084E08A8343C00A81EB
:102830001B81102701271027AC80B12C6701C8012C
:10284000879696012E193F092A153B0598F5003EFB
:10285000E1E01E0730F40E94F62ED60114968C9308
:1028600002C0F60114820F5F1F4FFFEFCF1ADF0A7D
:10287000E6CF0A811B81102701271027AC80B12CDD
:102880006701C801879696012E193F092A153B0555
:1028900088F4003E21E0120728F4D60114966C91CA
:1028A0000E940A2F0F5F1F4FBFEFCB1ADB0AE9CF41
:1028B0008FEF89838091AB02843009F092CB109125
:1028C000E9001F709091EC00892F817090FD80E8E5
:1028D000182B82E08093E9008091E80080FF0CC013
:1028E00040E050E060E270E0C7010E946C208091FF
:1028F000E8008E778093E8001F701093E90071CB99
:1029000009BD19BD09B400FEFDCF8091D8008F7DAF
:102910008093D8008091E00082608093E0008091F5
:10292000E00081FDFCCF0E94D72862CB86E290E0D8
:102930000E94F62E1B821C821D828E83BBCF2D32FD
:10294000314008F069CDA7CD2D32314008F0BACD25
:10295000F8CD80E008959091F50192FF0DC0282FE9
:102960002871283019F4877F846006C0282F2471CD
:10297000243011F48B7F886093FF0DC0282F2871BD
:10298000283119F4877E846106C0282F24712431F0
:1029900011F48B7E88612091F60120FF0DC0382F45
:1029A0003871383019F4877F816006C0382F317153
:1029B000313011F48E7F886021FF0DC0282F2871DF
:1029C000283119F4877E816106C0282F21712131B9
:1029D00011F48E7E886194FD877E0895AF92BF9238
:1029E000CF92DF92EF92FF920F931F93CF93DF93DB
:1029F0007C015B016A0180919D028A3018F001E040
:102A000010E002C00AE010E0C1E0D0E0F894B501A7
:102A1000C701F60109957894811115C021960C170C
:102A20001D0794F0CC9F9001CD9F300D300D1124E7
:102A300080E090E045E34A95F1F7000001968217A7
:102A40009307C1F7E3CF81E0DF91CF911F910F9101
:102A5000FF90EF90DF90CF90BF90AF900895CF930D
:102A6000DF93CDB7DEB729970FB6F894DEBF0FBE60
:102A7000CDBF85E0E3E7F5E0DE01119601900D9210
:102A80008A95E1F78091C1049091C204A091C3049A
:102A9000B091C4048E839F83A887B987288540910D
:102AA000990250919A0260919B0270919C023FB7EB
:102AB000F8948091880590918905A0918A05B0913C
:102AC0008B053FBF841B950BA60BB70B8436910576
:102AD000A105B10510F4222329F1809135019091CF
:102AE00036018A579D4F4091340150E04A305105DC
:102AF00010F049E050E0BE016F5F7F4F0E94782FD9
:102B000083E090E00E94212E892B11F080E00DC01F
:102B10000E9433226093990270939A0280939B02E1
:102B200090939C021092C30481E029960FB6F8940A
:102B3000DEBF0FBECDBFDF91CF910895EF92FF9220
:102B40001F93CF93DF9300D000D000D0CDB7DEB776
:102B50007B0180E090E00E94212E892B09F065C066
:102B60004091190150E04115510511F041E050E04C
:102B700060911A0170911B016A577D4FCE01069634
:102B80000E94782F40917E0250917F0260918002D6
:102B9000709181022FB7F8948091880590918905F2
:102BA000A0918A05B0918B052FBF841B950BA60BB6
:102BB000B70B84369105A105B10538F487E892E09A
:102BC0000E94881B9E81891791F181E090E00E940C
:102BD000212E892BA1F44091230150E0463051056C
:102BE00010F045E050E060912401709125016A5792
:102BF0007D4FCE0101960E94782F11E001C010E0B8
:102C000087E892E00E94881B91E02E81281390E0D3
:102C1000192311F10E94332260937E0270937F0288
:102C200080938002909381020CC010E001C011E0FB
:102C300085E0E7E8F2E0DE01119601900D928A95B9
:102C4000E1F7112349F085E0FE013196A9E7B2E0F2
:102C500001900D928A95E1F785E0E9E7F2E0D7016E
:102C600001900D928A95E1F7812F26960FB6F89480
:102C7000DEBF0FBECDBFDF91CF911F91FF90EF90D0
:102C8000089580917802811118C08091D8008061E8
:102C90008093D8008AE18A95F1F700C08091D9002D
:102CA00080FD02C082E001C081E080937802823022
:102CB00021F40E94E21E1092AB0281E09091780212
:102CC000913009F080E008950F931F93CF93DF9325
:102CD00000D000D0CDB7DEB7409182025091830280
:102CE00060918402709185022FB7F89480918805D5
:102CF00090918905A0918A05B0918B052FBF841B07
:102D0000950BA60BB70B84369105A105B10508F408
:102D100043C00E944116882319F00E9433220EC03E
:102D20000E9433220091F1011091F2012091F301F0
:102D30003091F401600F711F821F931FDC01CB01E2
:102D40000296A11DB11D89839A83AB83BC838091B8
:102D50002B0190912C018A579D4F40912A0150E000
:102D60004530510510F044E050E0BE016F5F7F4FE9
:102D70000E94782F82E090E00E94212E892B11F092
:102D800080E00BC00E943322609382027093830222
:102D9000809384029093850281E00F900F900F90B2
:102DA0000F90DF91CF911F910F910895F894E82F24
:102DB000E295EF70F0E031A1282F2F7081E090E0D4
:102DC00001C0880F2A95EAF7982F9095932391A335
:102DD00092A1892B82A378940895CF93DF938238B0
:102DE000910569F1B0F48133910509F46FC048F49D
:102DF0008932910509F465C08A32910509F46BC0E6
:102E00008AC08533910509F457C089339105B9F01B
:102E100082C0833E910571F138F4803E9105B1F096
:102E2000823E910511F177C0863E9105B9F1873E4A
:102E30009105C9F1843E910509F06DC024C020912F
:102E4000F50120FD53C021FD51C065C08091F50101
:102E500080FD46C08091F60180FF48C08091F50159
:102E600084FD50C183EE90E04FC18091F50182FF57
:102E70003AC0F4CF8091F50182FD35C08091F60112
:102E800080FD34C0EBCF8091F60181FF35C0809189
:102E9000F50184FD37C187EE90E036C18091F501E0
:102EA00083FF27C0F4CF8091F50183FD22C080917C
:102EB000F60181FD21C0EBCF8091F50185FD1FC09A
:102EC00021C08091F50185FD1DC019C08091F501DB
:102ED00086FD1BC01DC08091F50186FD19C015C07F
:102EE00089E390E011C182EE90E00EC180EE90E0A7
:102EF0000BC186EE90E008C184EE90E005C189E246
:102F000090E002C185E390E0FFC08AE290E0FCC05F
:102F100081E390E0F9C0811531E5930708F069C0BD
:102F2000811540E59407F0F09C0174E036952795F3
:102F30007A95E1F7922F9370482F437021E030E0AB
:102F400002C0220F331F4A95E2F73C68392B982FB5
:102F50009F709695969540E2949FC0011124822B14
:102F6000932BD2C0883E910568F5803E910508F00C
:102F7000CBC0883A9105B8F4853A910548F0855A56
:102F8000E82FF0E0E955FE4F808190E09064BCC0EE
:102F90008130910509F4B3C008F4B4C084309105C0
:102FA00008F4B0C0B1C08F3B910508F0ABC0885A9F
:102FB000E82FF0E0EE0FFF1FE655FE4F8081918174
:102FC0009464A2C0811520E2920758F4811531E083
:102FD000930708F099C0803F910508F493C090656D
:102FE00093C0811540E4940708F48CC09F70906AE8
:102FF0008BC0811525E5920708F042C0811534E5A4
:10300000930728F0982F8827846F906A7DC08115D8
:1030100043E59407B0F09C012370332741E050E072
:1030200002C0440F551F2A95E2F7282F26952695B2
:1030300080E2289F90011124CA01822B932B9A6869
:1030400063C0811522E5920728F4982F8827816FA5
:10305000906A5AC09C012370332741E050E002C0BF
:10306000440F551F2A95E2F7282F2695269580E2D2
:10307000289F90011124CA01822B932B9C6844C085
:10308000EC01811539E59307A8F48115984528F0DE
:103090009C2F8827806F906A37C0C11586E5D807B6
:1030A00088F58C2F0E94AB148F7190E0982F8827A1
:1030B00090622AC081152AE5920790F48C2F8F70B8
:1030C0000E94AB1494E0D695C7959A95E1F7CF701E
:1030D000D0E0DC2FCC27D0699E01282BC90114C079
:1030E00090568115904270F48D2F8F710E94AB1411
:1030F000282F2F71CE0199279062922B05C081E075
:1031000090E002C080E090E0DF91CF910895CF93EE
:1031100084E090E00E94F62EC82F82E290E00E94A8
:10312000F62E2C2F30E0A901582BCA01CF9108951B
:1031300080E090E00E94042F893E9E4F11F40C9491
:10314000512480E0089569EE7EEF80E090E00E94D7
:10315000282F60E082E090E00E940A2F60E083E088
:1031600090E00E940A2F10926D0260E084E090E0EF
:103170000E940A2F60E082E290E00E940A2F60E045
:1031800085E090E00E940A2F60E086E090E00E94D7
:103190000A2F6FEF87E090E00E940A2F40E050E096
:1031A000BA0188E090E00E941C2F60E08DE090E082
:1031B0000E940A2F40E050E0BA0188E190E00E94AE
:1031C0001C2F60E087E190E00E940A2F40E050E071
:1031D000BA018CE190E00E941C2F60E070E080E278
:1031E00090E00E94282F40E050E0BA0188E190E092
:1031F0000E941C2F80E00E9424240E94422440E070
:1032000050E0BA018FE090E00E941C2F40E050E0B7
:10321000BA0183E190E00C941C2F80916C02811123
:1032200010926C0208955F926F927F928F929F929C
:10323000AF92BF92CF92DF92EF92FF920F931F93C4
:10324000CF93DF93CDB7DEB72F970FB6F894DEBFDD
:103250000FBECDBFAE014F5F5F4F7A018AE0DA014A
:103260001D928A95E9F70FE811E06A0184E9682E5A
:1032700081E0782EAA24A394B12C2FE9822E21E09C
:10328000922EF80180818F3F09F440C0F894E82F16
:10329000E295EF70F0E021A18F70A50102C0440F0C
:1032A000551F8A95E2F7CA01922F982B91A392A1FC
:1032B0008095892382A3789400C0E9E9F1E0512C3C
:1032C00031E021912F3F89F0A22FA295AF70B0E09D
:1032D00090968C9190E02F7002C0959587952A95D5
:1032E000E2F780FD02C0832F01C080E0582A330F2F
:1032F0008E169F0631F7D8018C918F3F11F00E94F6
:10330000D616B0EABA95F1F7F60150820F5F1F4F5B
:10331000FFEFCF1ADF0A6016710609F0B2CF4AE05C
:1033200050E0B70187EF91E00E946B2F8C01892B51
:1033300041F08AE0F701A7EFB1E001900D928A9584
:10334000E1F7F09002020115110549F081E0809348
:1033500070020E943F2290936F0280936E028091D0
:1033600070028823B9F080916E0290916F020E94E2
:103370002422059778F0A7EFB1E0EF2DF0E0EF59A8
:10338000FD4F8CEF91E02D9121938A179B07D9F780
:10339000109270020115110509F0E9C00E94411652
:1033A000E0910202882309F471C07E012BE0E20E55
:1033B000F11C85E0D7011D928A95E9F70E2F10E0E8
:1033C0000F591D4F80919D028A3048F44EE955E116
:1033D000B701C8010E94EE14882371F10AC08091E0
:1033E0007102909172020E942422843F914070F7F2
:1033F00034C044E656E1B701C8010E94EE148823A8
:10340000D9F04FE255E1B701C8010E94EE148823BC
:1034100099F010929D028091010290E045E050E009
:10342000B7018F599D4F0E946B2F21E020937702A7
:10343000892BF1F400E09DC080919D028F3F19F02F
:103440008F5F80939D0280919D028A3020F30E94BD
:103450003F229093720280937102809177028823B9
:1034600049F385E0F70111928A95E9F71092770206
:10347000A0910102B0E0AF59BD4F85E0FE013B963F
:1034800001900D928A95E1F701E073C0F0E0EF59E9
:10349000FD4FF89485E0A7E8B2E001900D928A957F
:1034A000E1F787E892E00E94881B80938602789477
:1034B000F894C0908C02D0908D02E0908E02F09033
:1034C0008F028091730290917402A0917502B09165
:1034D0007602C816D906EA06FB06D1F0C09273023E
:1034E000D0927402E0927502F09276020E94411628
:1034F00081110EC00E943322C61AD70AE80AF90ABF
:10350000C092F101D092F201E092F301F092F40145
:103510007894F89480919702882339F184FF04C04D
:10352000909198029093C40480FF10C08091900203
:1035300080FF0AC09091730591609093730560E0DD
:1035400086950E948C2902C00E945329809197027F
:1035500081FF09C020E04091930260919202809126
:1035600091020E94F92410929702789402C001E01F
:1035700010E0802F2F960FB6F894DEBF0FBECDBFA0
:10358000DF91CF911F910F91FF90EF90DF90CF903F
:10359000BF90AF909F908F907F906F905F900895B5
:1035A000CF93DF938A3011F481E003C08D3029F48A
:1035B00080E0DF91CF910C94F423682F8091BF04B9
:1035C0009091C00426E0FC01A9EBB4E001900D92BB
:1035D0002A95E1F7603E30F026E0FC0111922A9531
:1035E000E9F70AC0F6E06F9FB001112467537C4FE2
:1035F00046E050E00E94ED2EC091BF04D091C0047F
:1036000046E050E0BE0189EB94E00E946B2F892BCD
:1036100049F19E01295B3240A90185E05695479505
:103620008A95E1F781E090E0BC0102C0660F771F48
:103630004A95E2F74091B7025091B802462B572BBA
:103640002B5F3F4F65E0369527956A95E1F702C0FD
:10365000880F991F2A95E2F7842B952B9093B80237
:103660008093B7029E01235B32404091B602642FE3
:1036700070E0C9010E94D92E481B463010F4240F77
:10368000311D211582E0380710F020E030E027548A
:103690003D4F3093C0042093BF04DF91CF91089534
:1036A000CF93DF93EC01FE018491882321F00E94E7
:1036B000D01A2196F8CFDF91CF9108950F931F93E1
:1036C000CF93DF93EC01FC0101900020E9F78F011B
:1036D00001501109C017D10720F489910E94D01A16
:1036E000F9CF81E0DF91CF911F910F910C94F423DA
:1036F0000E94501B81E00C94F4238091B502982F16
:103700009670963011F4886001C0877F0C947728FA
:10371000FC01AC014B5F5F4F8FEF91E3219182275A
:1037200028E030E087FF03C0880F892701C0880F99
:1037300021503109B9F7E417F50781F70895EF92A1
:10374000FF920F931F93CF93DF93EC017B0164E60D
:1037500070E088E70E94AE2B8C01EC0EFD1ECE15AA
:10376000DF0561F017FD0AC0FE01849164E670E098
:103770000E942F2C8C012196892B89F30E94B32C57
:10378000C801DF91CF911F910F91FF90EF900895A5
:103790001F93CF93DF93CDB7DEB7AA970FB6F894F8
:1037A000DEBF0FBECDBFEDEAF2E085EB92E02091E7
:1037B000F10021938E179F07D1F78091AE028330DD
:1037C00009F463C030F4813071F0823009F49DC097
:1037D000B4C08A3009F489C08B3009F46EC08930D6
:1037E00009F0ABC020C08091AD02813A09F0A5C0BC
:1037F0008091E800877F8093E8008091B1029091EA
:10380000B202892B21F468E081EA92E003C060E013
:1038100080E090E070E00E948F218091E8008B773B
:103820008093E8008AC08091AD02813209F085C0A2
:103830008091B1029091B202009719F0029709F0BD
:103840007CC08091E800877F8093E8008091E80049
:1038500082FD05C08091AB028111F8CF6EC020912E
:10386000F3008091F20090E0922B029731F4809166
:10387000F100813011F0863021F48091F1008093C5
:10388000A0028091E8008B7754C08091AD02813A0C
:1038900009F053C08091B1029091B202892B09F0D6
:1038A0004CC08091E800877F8093E8008091E80019
:1038B00080FFFCCF80913C0137C08091AD02813206
:1038C000E1F58091B1029091B202892BB1F580911E
:1038D000E800877F8093E8000E943B218091AF023F
:1038E00080933C010E94D72828C08091AD0281328C
:1038F00021F58091E800877F8093E8000E943B21BA
:103900008091B00280939F0218C08091AD02813AED
:10391000A1F48091E800877F8093E8008091E8001F
:1039200080FFFCCF80919F028093F1008091E8009E
:103930008E778093E8000E943B218091E80083FF0E
:10394000DFC18091AD029091AE02492F50E04A3024
:10395000510508F0D5C1FA01EB58FF4F0C945E2FCA
:10396000803821F0823809F0CBC108C08091A902CB
:103970009091AA02992389F082600FC08091B102D0
:103980008F70873008F0BCC18093E9008091EB0014
:1039900085FB882780F91092E9009091E800977FD5
:1039A0009093E8008093F1001092F10070C1282FED
:1039B0002D7F09F0A5C1882319F0823061F0A0C1E4
:1039C0008091AF02813009F09BC1933009F080E013
:1039D0008093AA022EC08091AF0281112AC08091EB
:1039E000B1028F702FEF280F263008F089C1809325
:1039F000E9002091EB0020FF1CC0933021F480915E
:103A0000EB00806214C09091EB0090619093EB000A
:103A100021E030E0A90102C0440F551F8A95E2F76A
:103A20004093EA001092EA008091EB008860809356
:103A3000EB001092E9008091E800877F8093E80016
:103A40000E943B215DC181115BC11091AF021F77C4
:103A50008091E3008078812B8093E3008091E800DF
:103A6000877F8093E8000E943B218091E80080FFDF
:103A7000FCCF8091E30080688093E300111102C0C5
:103A800082E001C083E08093AB023AC1805882306B
:103A900008F036C12091AF023091B0022C3D53E0C6
:103AA000350779F583E08A838AE289834FB7F894F2
:103AB000DE01139620E03EE051E2E32FF0E0509368
:103AC0005700E49120FF03C0E295EF703F5FEF7075
:103AD0008E2F90E0EA3010F0C79601C0C0968D930B
:103AE0009D932F5F243149F74FBF8091E800877F76
:103AF0008093E8006AE270E0CE0101960E948F2177
:103B0000B4C08091B1029091B202432F5527433047
:103B10005105A9F068F44130510509F400C1423063
:103B2000510509F0EDC08BE590E0E4E3F3E04BC014
:103B30004132510529F14232510589F1E1C0C901F3
:103B4000992781309105A1F058F0029709F0D8C06B
:103B5000E1EAF3E0E4918E2F90E0E1EAF3E030C097
:103B6000E5ECF3E0E4918E2F90E0E5ECF3E028C083
:103B7000E5EBF3E0E4918E2F90E0E5EBF3E020C07D
:103B80008330910508F0BCC0880F991FFC01ED51EE
:103B9000FE4F0190F081E02D89E090E014C0833069
:103BA000910508F0ADC0FC01EE0FFF1FE352FE4F80
:103BB0000190F081E02DDC01A652BE4F8C9190E087
:103BC000009709F49DC02091E800277F2093E8002A
:103BD0002091B3023091B4022817390708F4C901C3
:103BE00040E0009789F12091AB02222309F43DC007
:103BF0002530D9F12091E80023FD37C02091E8005D
:103C000022FD2FC02091E80020FFEBCF4091F30070
:103C10002091F20030E0342B009759F02830310524
:103C200040F444914093F100319601972F5F3F4F4C
:103C3000F3CF41E02830310509F040E02091E80061
:103C40002E772093E800CDCF4111CDCF0AC08091CF
:103C5000AB02882351F0853041F08091E80083FD6C
:103C600004C08091E80082FFF2CF8091E8008B775A
:103C70008093E80045C0803809F042C08091E80098
:103C8000877F8093E8008091AC028093F10080915F
:103C9000E8008E77D3CE811133C08091AF0290912E
:103CA000B0029927029764F58091E800877F80939E
:103CB000E8001091AF021093AC020E943B21111159
:103CC00006C08091E30087FD02C081E001C084E06E
:103CD0008093AB0242E061EC81E00E945A2142E213
:103CE00061EC84E00E945A2142E261EC82E00E9491
:103CF0005A2142E260EC83E00E945A218091AB029B
:103D00008091E80083FF10C08091E800877F809356
:103D1000E8008091EB0080628093EB0005C082E1B7
:103D200090E0EFE8F3E04FCFAA960FB6F894DEBF2D
:103D30000FBECDBFDF91CF911F9108951F920F92BB
:103D40000FB60F9211242F933F934F935F936F936E
:103D50007F938F939F93AF93BF93CF93DF93EF9313
:103D6000FF93C091E900CF708091EC00D82FD17003
:103D700080FDD0E81092E9008091F000877F809369
:103D8000F00078940E94C81B1092E9008091F00026
:103D900088608093F000CD2BCF70C093E900FF9135
:103DA000EF91DF91CF91BF91AF919F918F917F91D3
:103DB0006F915F914F913F912F910F900FBE0F9098
:103DC0001F901895E8EDF0E080818E7F808310923F
:103DD000E2001092DA001092E100A0EEB0E08C91C7
:103DE00081608C9380818F77808319BCA7EDB0E0D0
:103DF0008C918E7F8C9380818F7E808310929E0227
:103E00000895CF92DF92EF92FF920F931F93CF937B
:103E1000DF93C8EDD0E088818F7E8883E7EDF0E006
:103E200080818160808384E082BF81E080939E02F4
:103E300088818E7F888302EE10E0F8011082109254
:103E4000DA0081EEC82ED12CF601108288818F779E
:103E5000888388818068888388818F7D888319BC66
:103E60001092AB021092AC021092AA021092A90218
:103E700090EEE92EF12CF70180818B7F8083888181
:103E80008160888342E060E080E00E945A21F60170
:103E900080818E7F8083F801808181608083808132
:103EA00088608083F70180818E7F80838881806134
:103EB0008883DF91CF911F910F91FF90EF90DF905A
:103EC000CF9008951F920F920FB60F9211242F9347
:103ED0003F934F935F936F937F938F939F93AF9392
:103EE000BF93EF93FF938091E10082FF09C080911F
:103EF000E20082FF05C08091E1008B7F8093E100AA
:103F00008091DA0080FF2AC08091D80080FF26C00F
:103F10008091DA008E7F8093DA008091D90080FF53
:103F200018C080E189BD82E189BD09B400FEFDCFE2
:103F300081E08093AB0280919E0281110FC00E94AC
:103F4000E21E0E94011F8091E20084608093E200E3
:103F500005C019BC1092AB0210929E028091E10044
:103F600080FF17C08091E20080FF13C08091E200C3
:103F70008E7F8093E2008091E20080618093E20076
:103F80008091D80080628093D80019BC85E080932E
:103F9000AB028091E10084FF30C08091E20084FF99
:103FA0002CC080E189BD82E189BD09B400FEFDCF4E
:103FB0008091D8008F7D8093D8008091E1008F7E22
:103FC0008093E1008091E2008F7E8093E2008091F7
:103FD000E20081608093E2008091AC02882311F0BE
:103FE00084E007C08091E30087FD02C081E001C04A
:103FF00083E08093AB028091AB028091E10083FF6C
:1040000027C08091E20083FF23C08091E100877F79
:104010008093E10082E08093AB021092AC02809129
:10402000E1008E7F8093E1008091E2008E7F80939B
:10403000E2008091E20080618093E20042E060E073
:1040400080E00E945A218091F00088608093F00007
:10405000FF91EF91BF91AF919F918F917F916F9160
:104060005F914F913F912F910F900FBE0F901F9036
:1040700018952091E4003091E50095E64091EC0020
:10408000842F817040FF23C08091E80080FD1DC017
:104090008091AB02882399F0853099F08091EB00F4
:1040A00085FD11C04091E4005091E50024173507CB
:1040B00029F3915011F09A01E1CF84E0089582E054
:1040C000089583E0089581E0089580E00895409187
:1040D000E80042FFDDCF0895EF92FF920F931F9308
:1040E000CF93DF937C018B010E943920811119C08D
:1040F000E70101151105A1F08091E80085FD0AC0D6
:104100008091E8008E778093E8000E943920882310
:1041100081F307C089918093F10001501109E9CF23
:1041200080E0DF91CF911F910F91FF90EF90089564
:1041300008958091A002089580938C0570938E0558
:1041400060938D058091AB028430F9F48093E9008F
:104150008FEF9091E800815095FD06C095ED9A95FE
:10416000F1F700008111F5CF8091E80085FF0DC0C7
:1041700040E050E063E070E08CE895E00E946C2045
:104180008091E8008E778093E8000895BC0184E078
:104190000C949C20BC0183E00C949C2024E0209390
:1041A000E9002FEF3091E800215035FD06C035EDD4
:1041B0003A95F1F700002111F5CF2091E80025FF95
:1041C0000BC040E050E066E070E00E946C208091FF
:1041D000E8008E778093E8000895CF93DF9321E085
:1041E0002093E9002FEF3091E800215035FD06C003
:1041F00035ED3A95F1F700002111F5CF2091E80057
:1042000025FF14C0EC0140E050E068E070E00E943F
:104210006C208091E8008E778093E80088E0FE01B2
:10422000A1EAB2E001900D928A95E1F7DF91CF917A
:10423000089580917705882319F081508093770540
:104240006091730570917405809175059091760564
:104250000C947A2980917705833018F48F5F8093CE
:104260007705609173057091740580917505909143
:1042700076050C947A298091AD0287FF11C0809158
:10428000E80082FD05C08091AB028111F8CF11C01A
:104290008091E8008B770BC08091AB02882349F0B6
:1042A0008091E80080FFF8CF8091E8008E778093BE
:1042B000E8000895982F973068F59093E9009817D3
:1042C00039F07091EC002091ED005091F00003C0A6
:1042D000242F762F50E021FD02C09F5FECCF30915C
:1042E000EB003E7F3093EB003091ED003D7F30934B
:1042F000ED003091EB0031603093EB007093EC00F7
:104300002093ED005093F0002091EE0027FDE5CFC3
:1043100080E008958F708093E90081E008952091F6
:10432000B3023091B4022617370748F061157105C2
:1043300039F42091E8002E772093E80001C0B901FC
:10434000FC0120E06115710579F18091AB028823B1
:10435000F1F18530F1F18091E80083FD3CC080915E
:10436000E80082FD2EC08091E80080FFEBCF209115
:10437000F3008091F20090E0922B6115710551F0ED
:104380008830910538F421912093F1006150710932
:104390000196F3CF21E0089709F020E08091E80032
:1043A0008E778093E800CECF2111CFCF0AC08091C5
:1043B000AB02882361F0853061F08091E80083FDD5
:1043C0000AC08091E80082FFF2CF80E0089582E089
:1043D000089583E0089581E0089587E797E7909333
:1043E0000108809300089AE088E10FB6F894A89538
:1043F000809360000FBE90936000FFCF78941F926F
:104400000F920FB60F9211248F939F93AF93BF9388
:104410008091880590918905A0918A05B0918B05BE
:104420000196A11DB11D8093880590938905A093E5
:104430008A05B0938B05BF91AF919F918F910F909B
:104440000FBE0F901F9018959C014FB7F894809164
:10445000880590918905A0918A05B0918B054FBF81
:10446000821B930B08952FB7F89460918805709183
:10447000890580918A0590918B052FBF08952FB7EC
:10448000F8948091880590918905A0918A05B09152
:104490008B052FBF08951F920F920FB60F92112414
:1044A0008F939F93AF93BF9380918705811113C022
:1044B0008091880590918905A0918A05B0918B051E
:1044C0004196A11DB11D8093880590938905A09305
:1044D0008A05B0938B05BF91AF919F918F910F90FB
:1044E0000FBE0F901F9018959C01FC0132969FEF14
:1044F00080E04191461789F09F3F19F4411101C0B6
:10450000982F8F5F8630A9F79F3F39F0F901E90FA7
:10451000F11D97FDFA956283089508952091850510
:10452000309186052817390771F09093860580939E
:104530008505E0918305F0918405309721F0008492
:10454000F185E02D0994089520918105309182052F
:104550002817390771F09093820580938105E091C7
:104560008305F0918405309721F00680F781E02DD6
:10457000099408950E944116882351F0E091830523
:10458000F0918405309721F00190F081E02D09949D
:1045900080E008950F931F93CF93DF93C42FD22F02
:1045A000FC0182818823C9F0409380050E943F224C
:1045B00090937F0580937E0580E28C0F883008F011
:1045C00057C0C77081E001C0880FCA95EAF7DF9134
:1045D000CF911F910F910C94E92880918005481389
:1045E00030C080917E0590917F050E942422843600
:1045F000910538F510E21D0FCD17B9F080E28C0F50
:10460000883040F4C77081E001C0880FCA95EAF78E
:104610000E94E228183028F581E09D2F977001C094
:10462000880F9A95EAF70E94E928802F0E94F328C4
:104630001830F0F4D77081E001C0880FDA95EAF7FE
:104640000AC080E28C0F883098F4C77081E001C006
:10465000880FCA95EAF7DF91CF911F910F910C94C3
:10466000E228802FDF91CF911F910F910C94F328B6
:10467000DF91CF911F910F910895CF93DF93C7E002
:10468000D2E060E0CE010E940A2F2196C11584E09D
:10469000D807B9F7DF91CF910895CF92DF92EF92CB
:1046A000FF920F931F93CF93DF93C0E0D0E08E0172
:1046B00008581F4F6E018CE0C80ED11CFE01E95B4B
:1046C000F64FE590F4906F2DCE0187960E940A2F49
:1046D0006E2DCE0188960E940A2F2296CC15DD05FC
:1046E00069F70C171D0731F7E801003E1140F9F694
:1046F000DF91CF911F910F91FF90EF90DF90CF90BE
:1047000008950F931F93CF93DF93C42FD0E0CC0F66
:10471000DD1F2CE0629FC00DD11D112438E7839F5F
:10472000C00DD11D1124CE0187960E94F62E082FB0
:1047300010E0102F0027CE0188960E94F62E9801D7
:10474000282BC901DF91CF911F910F910895462F1A
:10475000843038F47A3028F4663018F4672F0C94DB
:10476000812380E090E0089580917D0590917C0503
:10477000882389F0992369F062E070E085E499E08C
:104780000E949F1B892B19F080917C05089510923F
:104790007C0590917C0581E08927089580917D05B5
:1047A0008823F9F00E943322DC01CB01805A954125
:1047B000AF4FBF4F8093780590937905A0937A050A
:1047C000B0937B0580917C0581110BC062E070E0A5
:1047D00083E499E00E949F1B892B19F481E0809368
:1047E0007C0580917C050895CF93E82F2091BF042C
:1047F0003091C004295B32404091B602642F70E0D2
:10480000C9010E94D92E481B842FEE2351F066E087
:104810000E943E2FC82FC150A8F080E20E94D01AFB
:10482000FACFA901480F511D4115524018F080E000
:1048300020E030E0280F311D27543D4F3093C00455
:104840002093BF04CF910895CF93C82F811102C048
:104850006FEF01C061E283E290E00E940A2FC11174
:1048600002C06FEF01C062E184E290E00E940A2F73
:10487000C11102C06FEF01C061E185E290E0CF910C
:104880000C940A2F80E00E94242460E086E290E0ED
:104890000E940A2F0E944D230E943D2381E00C9428
:1048A000242483E290E00E94F62E813281F484E297
:1048B00090E00E94F62E823151F485E290E00E9451
:1048C000F62E91E0813109F090E0892F01C080E05F
:1048D00081700895882311F0FA0101C0FB01099449
:1048E000CF92DF92EF920F931F93CF93DF93CDB7C9
:1048F000DEB7CE5AD1090FB6F894DEBF0FBECDBFDA
:1049000060913E018091730580FF0AC0E9E0F9E003
:10491000AE014F5F5F4F8E0101551F4FCA0114C09A
:1049200080913F0190914001891780F7E82FF0E0D6
:104930009F01220F331FE20FF31FEB53FB4F118236
:10494000108212828F5FF0CF249130E0D901AA0F3C
:10495000BB1F2A0F3B1FD901AB53BB4FCD90DD903E
:10496000EC90DA01CD92DD92ED92AD013196A01777
:10497000B10751F720913D01FC01B3E02B9FE00D01
:10498000F11D1124539A8BB1877F9BB198602FB78B
:10499000F894AF0133E0639F400D511D1124E417DB
:1049A000F50789F0319168E09BB9000000C037FF3E
:1049B0008BB9330F000000C000C000C08BB900C02D
:1049C0006A9591F7ECCF2FBF8FE594E00197F1F74F
:1049D00000C00000C255DF4F0FB6F894DEBF0FBE17
:1049E000CDBFDF91CF911F910F91EF90DF90CF90CE
:1049F0000895EF92FF920F931F93CF93DF9300D010
:104A00001F92CDB7DEB79091730590FF55C0E22E8F
:104A1000142F062FF82EE92FE695F0E0E751FE4F10
:104A200080818093C1049E7F923019F5493708F048
:104A300048E79E012F5F3F4F602F8F2D0E94D429A2
:104A40002B8139814A8180913F01909140018917E2
:104A500070F4E82FF0E0BF01660F771FE60FF71F35
:104A6000EB53FB4F4183308322838F5FF0CF0E9453
:104A7000702480917405F81208C0809175050813A0
:104A800004C080917605181729F08091C3048260D4
:104A90008093C304F0927405009375051093760516
:104AA000EE2051F060917305709174058091750549
:104AB000909176050E947A290F900F900F90DF91C8
:104AC000CF911F910F91FF90EF9008958095909155
:104AD000EA0589238093EA0508959091EA0580917B
:104AE000E905892B2091E805982F922B90938F054B
:104AF00080916C02882389F0892B80938F05E1E9EE
:104B0000F5E097E080E0915029F021912223D9F33C
:104B10008F5FF9CF81110E940D19E0918305F0910B
:104B20008405309731F00280F381E02D8FE895E025
:104B30000994089580E090E00E94A42280E090E033
:104B40000E948E221092E9051092E8050E946D25C0
:104B5000E2EFF5E086E0DF011D928A95E9F7109219
:104B6000EC051092EB051092ED050C947E2B8091D4
:104B7000E6059091B505891719F08F5F8770FBCF17
:104B800008950F931F93CF93DF938091B40582957F
:104B90008F7009F05DC08091B105882309F458C079
:104BA0008091E6051091B5056091AF057091B00553
:104BB000C091B205D091B30591E06F3F09F090E04C
:104BC000292F06E0811709F443C0209721F07F3F89
:104BD00021F030E003C031E001C0322F90E030FD21
:104BE00034C0089FF001099FF00D1124DF01AA5481
:104BF000BA4F11963C911197371327C03C91361349
:104C000024C012963C91129731111FC013964D91FA
:104C10005C9114974C1B5D0B44365105B0F48091A8
:104C2000B4058F7080618093B405E554FA4F80819C
:104C30008F70806180838FEA95E00E949C07DF91EE
:104C4000CF911F910F910C94B72501968770BACF21
:104C5000DF91CF911F910F910895CF92DF92FF9234
:104C60000F931F93CF93DF936C010091B502809156
:104C70006D02082BC7E0D0E010E0C8010C2E02C086
:104C8000959587950A94E2F780FD04C02197A8F7CF
:104C9000F12C09C0FC2EB6018C2F0E94A7230E9484
:104CA000ED16019799F38F2DDF91CF911F910F9101
:104CB000FF90DF90CF900895CF93DF93EC010E9497
:104CC0002D26BE010E94A7230E94ED16DF91CF91F1
:104CD0000895FC01808191810E945C26292F2F700C
:104CE000E92FE295EF704E2F50E0FA013297EE3047
:104CF000F105B8F4E158FF4F0C945E2F803F99F016
:104D000018F4883E70F40FC0843F59F40CC0883EFC
:104D100050F0813F31F407C0822F869586958695A5
:104D2000089580E0089581E008959F92AF92BF9228
:104D3000CF92DF92EF92FF920F931F93CF93DF9367
:104D4000CDB7DEB761970FB6F894DEBF0FBECDBF0B
:104D50008C0185E0F801DE011D9601900D928A9587
:104D6000E1F7F801E2809091AF056091B0054091C4
:104D7000B2055091B3054115510531F06F3F31F443
:104D800081E09F3F19F403C081E001C080E0F82F6B
:104D9000F1709F2E80FD02C1F80130812181C38016
:104DA000D4808FEAA82E85E0B82EF090B105F601E8
:104DB000E41BF50BFF2009F4CAC08091B405E4366A
:104DC000F10508F095C0482F407F09F050C06213EC
:104DD00011C093130FC0FE2CE1100CC08F708061C6
:104DE0008093B405C5010E949C078091B405F80129
:104DF000858311C1CD2831F02F3F31F481E03F3F51
:104E000019F403C081E001C080E080FD03C081E0AF
:104E10008E2502C080E090E0F82FF170FF2E80FF19
:104E20001CC08091E6054091B50556E0841709F451
:104E3000D0C090E0589FF001599FF00D1124EA5422
:104E4000FA4F6181261306C06081631303C062813B
:104E5000E61203C001968770E9CFFE2CEE2009F41C
:104E6000DAC08091B40581608093B4054DC06213AF
:104E70000AC0931308C0E11006C0F8018583C80179
:104E80000E949C076EC0C8010E946926882351F1C8
:104E9000EE2041F12091B405822F82958F7090E031
:104EA000029774F08091AF059091B00598878F8339
:104EB0001986DB86CA862C87CE0107960E949C073E
:104EC00086E0F801AFEAB5E001900D928A95E1F72E
:104ED0000E94C1250AC06217C9F0C8010E94692654
:104EE00081111EC0C8010E949C07FF24F39493C047
:104EF000482F407F81F78FEA95E00E949C0786E06B
:104F0000F50111928A95E9F7F12C85C09313E5CF4D
:104F1000E110E3CFF8018583C8010E949C0738C0E7
:104F2000EE2001F32091B405822F82958F7090E0DE
:104F3000029734F28091AF059091B0059A838983EE
:104F40001B82DD82CC822E83CE010196B7CFE43660
:104F5000F105F0F4FE2CEE2029F262130BC093133E
:104F600009C086E0F801AFEAB5E001900D928A959C
:104F7000E1F751C0C8010E9469268111A1CF80913B
:104F8000B40581608093B405C8010E949C0743C0AA
:104F900086E0F50111928A95E9F73DC0EE2009F40B
:104FA000A1CFC8010E946926F82E882309F49ACF60
:104FB00086E0F801AFEAB5E001900D928A95E1F73D
:104FC0008091AF059091B0050E945C260E94C1259A
:104FD00022C03D872E878D859E850E945C26292FC5
:104FE00022952F70223028F49F7039F0811105C06E
:104FF0000BC0243028F49F7049F4805E883020F084
:10500000C8010E949C079F2CF92C05C0F8019581CE
:10501000907F99F7F9CF8F2D61960FB6F894DEBF88
:105020000FBECDBFDF91CF911F910F91FF90EF90F9
:10503000DF90CF90BF90AF909F900895292F220FBF
:10504000920F990F890F682F669566956695982F30
:10505000977083E0689FB001112440E050E080E049
:10506000FB01E40FF51FE956FA4F208130E0092ECD
:1050700002C0369527950A94E2F721703327042E53
:1050800001C0220F0A94EAF7822B4F5F5F4F433033
:10509000510531F70895292F220F920F990F890F8B
:1050A000E82FE695E695E695877051E001C0550F2B
:1050B0008A95EAF783E0E89FF0011124E956FA4F58
:1050C00020E030E070E04081CB01022E02C09695D6
:1050D00087950A94E2F78170819584278523842738
:1050E00081932F5F3F4F2330310569F70895982F43
:1050F0009670963011F4886001C0877F8093B50266
:105100000C949A2521E030E001C0220F8A95EAF73D
:1051100020958091B50282230C9477282091E70591
:10512000809582238093E705982F977099F430E05B
:10513000482F082E000C550B2417350759F0909175
:10514000F60192FD07C08595859585950E94822878
:105150001092E7050895CF93C091F601C2FB9927FD
:1051600090F9981799F080FBC2F9C093F60160910D
:10517000F50184E090E00E940A2F6C2F82E290E01B
:105180000E940A2F82E0CF910C948E28CF9108952F
:1051900021E030E001C0220F8A95EAF78091B50244
:1051A000822B0C94772880936D020C949A25109290
:1051B000EA0586E0E1E9F5E0DF011D928A95E9F76D
:1051C0000C949A25882321F00E9466250C946D2565
:1051D0000895882339F09091EA05892B8093EA0598
:1051E0000C946D2508951F93CF93DF93182F893367
:1051F00019F0C0E0D0E002C0C0E5D0E0812F0E94ED
:105200009506209741F08FE99FE00197F1F700C0E4
:1052100000002197F6CF812FDF91CF911F910C9441
:105220005D06E3E7F5E0438124E1421B08F440E03A
:1052300021E0628181810C94F924E3E7F5E0438168
:1052400024E1420F08F44FEF21E0628181810C9448
:10525000F924E3E7F5E062812AE0621B08F460E0EC
:1052600021E0438181810C94F924E3E7F5E0628138
:105270002AE0620F08F46FEF21E0438181810C94F2
:10528000F924E3E7F5E0818121E0438162818A50DE
:105290000C94F924E3E7F5E0818121E04381628108
:1052A000865F0C94F924E3E7F5E080818E7F8083AC
:1052B000E1ECF4E08281816082832FEF80E792E06D
:1052C000215080409040E1F700C000000C94702411
:1052D00080917305982F9695913021F081708260AE
:1052E0008093730580917605893718F088E780935D
:1052F00076050895CF92DF92EF92FF926B017C01C9
:105300000E946829B701A60188E090E0FF90EF9025
:10531000DF90CF900C941C2F8091730580FF1EC0EE
:1053200081708260809373058091C3048160809353
:10533000C304662351F060917305709174058091E8
:105340007505909176050E947A2920E040917605B6
:1053500060917505809174050C94F92408958091ED
:1053600073058695815009F481E061E00C948C29E5
:1053700061E081E00C948C29E3E7F5E083E0808331
:1053800011828FEF828388E783831482A1ECB4E0DB
:1053900012968C911297836012968C936081718122
:1053A000828193810C947A29AF92BF92CF92DF923F
:1053B000EF92FF920F931F93CF93DF93E82EF62E79
:1053C000E901E42FF0E0611106C0E95DF44FE491DA
:1053D0004E2F2E2F71C0062F10E0E95DF44F44913F
:1053E000F42FC42ED12C26E0829FC00111242FEF70
:1053F00030E0B9010E94D92E5BEA5603C001579FE5
:10540000900D11248E0D911D8E0D911D582F550F4D
:10541000580FD901A01BB10BAC9DC001AD9D900DE3
:10542000BC9D900D1124E92FF59ED0011124AB2FC6
:10543000BB277901EA1AFB0AEC9CD001ED9CB00D68
:10544000FC9CB00D11245901A51AB108A09E700151
:10545000A19EF00CB09EF00C1124EF2CFF242E190D
:105460003F092C9D80012D9D100D3C9D100D112498
:10547000212F6230710591F048F461157105E1F05A
:1054800061307105B9F4242F4B2F16C064307105BB
:1054900069F040F06630710579F00CC0242F492F77
:1054A000E12F0AC0492FEF2F2B2F06C0292FE42F01
:1054B000412F02C0292FEB2F49832883EA83DF91F4
:1054C000CF911F910F91FF90EF90DF90CF90BF9001
:1054D000AF900895803F39F49091F50597FF35C05E
:1054E0001092F50559C0813F29F49091F5051916E0
:1054F000BCF32BC09091F405823F29F497FF25C09F
:105500001092F40549C0833F19F41916CCF31DC05D
:105510009091F605893F29F41916BCF41092F6050E
:105520003BC08A3F19F497FF10C0F8CF8B3F39F486
:105530009091F70597FF09C01092F7052DC08C3F99
:1055400021F49091F7051916BCF39CE0980F953063
:1055500080F421E030E0A90102C0440F551F9A9564
:10556000E2F7CA0180959091F30589238093F305B2
:1055700013C08D3F21F48091ED058E7F0BC08E3FCF
:1055800021F48091ED058D7F05C08F3F29F4809136
:10559000ED058B7F8093ED058091F405811106C0A8
:1055A0008091F505811102C01092EC058091F605FD
:1055B000811106C08091F705811102C01092EB05A0
:1055C00008958091ED0580FD16C081FD16C082FD15
:1055D00018C08091EB05882391F0883290F428E080
:1055E000829FC001112468E270E00E944A2F862F3A
:1055F000672B29F007C082E0089584E0089581E0D8
:10560000089588E008958091ED0580FD14C081FD26
:1056100014C082FD16C08091EC05882381F084318E
:1056200080F422E3829FC001112464E170E00E94B3
:105630004A2F862F08958CE0089589E1089585E02A
:10564000089582E30895803F21F40E94032B819501
:1056500004C0813F29F40E94032B8093F50508952F
:10566000823F21F40E94032B819504C0833F29F4DB
:105670000E94032B8093F4050895893F19F40E943A
:10568000E12A05C08A3F31F40E94E12A8195809386
:10569000F60508958B3F21F40E94E12A819504C00C
:1056A0008C3F29F40E94E12A8093F70508959CE03D
:1056B000980F953078F421E030E0A90102C0440F42
:1056C000551F9A95E2F7CA019091F305892B8093B3
:1056D000F30508958D3F21F48091ED0581600BC0A5
:1056E0008E3F21F48091ED05826005C08F3F29F443
:1056F0008091ED0584608093ED0508950E943F221E
:105700002091F405211104C02091F505222321F0F8
:105710009093F1058093F0052091F605211104C0C6
:105720002091F705222321F09093EF058093EE0559
:10573000E0918305F0918405309749F082E08093F1
:10574000F2050480F581E02D82EF95E0099408953B
:105750001092B9008CE08093B80008959F92AF92A8
:10576000BF92CF92DF92EF92FF920F931F93CF934E
:10577000DF93B82EEB010E943F226C01C431D105AA
:1057800058F0CF3F8FEFD80759F0CE0164E170E0B9
:105790000E94D92E7B0107C0EE24E394F12C03C0B4
:1057A00025E0E22EF12C84E8A82E94EA992E10929E
:1057B000BC009092BC000E943F228C018091BC00F2
:1057C00087FD08C00E943F22801B910B8E159F050C
:1057D000A8F32AC08091B900887F883041F0809179
:1057E000B900887F803119F00FEF1FEF1FC0B09212
:1057F000BB00A092BC000E943F228C018091BC00A3
:1058000087FD08C00E943F22801B910B8E159F05CB
:10581000A8F30AC08091B900887F883111F08034E4
:1058200019F700E010E00EC00EEF1FEFCF3F8FEF33
:10583000D80709F4BCCFC6010E9424228C179D070B
:1058400008F4B5CFC801DF91CF911F910F91FF9060
:10585000EF90DF90CF90BF90AF909F9008950F93FF
:105860001F93CF93DF93EB018093BB0084E8809379
:10587000BC000E943F228C018091BC0087FD0EC0BD
:10588000CF3F8FEFD807C1F30E943F22801B910BBF
:105890008C179D0788F38EEF9FEF0CC02091B90005
:1058A000287F81E090E0283211F480E090E091952B
:1058B00081959109DF91CF911F910F910895CF921A
:1058C000DF92EF92FF920F931F93CF93DF936B01C1
:1058D0008A017901B9010E94AE2BE6010C0D1D1D54
:1058E000C017D10761F424E92093BC00DF91CF9168
:1058F0001F910F91FF90EF90DF90CF90089597FD4B
:10590000F2CFB70189910E942F2CEACFCF92DF927C
:10591000EF92FF920F931F93CF93DF93C62F6A01ED
:105920007901B8010E94AE2B97FD11C0B8018C2FF0
:105930000E942F2CE601EC0CFD1CCE15DF0539F082
:1059400097FD05C0B80189910E942F2CF6CF24E95C
:105950002093BC00DF91CF911F910F91FF90EF90AA
:10596000DF90CF90089584E98093BC0008958EE184
:105970004A9B02C08150E1F74A9BFECF08955A9896
:1059800080E28A95F1F75A9A0895FC012AE02A9557
:10599000F1F728E090E080E031E040E14A95F1F74E
:1059A000880F4A9B02C08160932700C0000040E13D
:1059B0004A95F1F7215089F720E12A95F1F729B1AD
:1059C00000C0000030E13A95F1F722FB222720F9D0
:1059D00092272081920F90830895EF92FF920F9368
:1059E0001F93CF93DF931F92CDB7DEB719828C013F
:1059F0007C01E60EF11C0E151F0551F00E94B72C1C
:105A0000CE0101960E94C52CF80181938F01F3CF3E
:105A100081E09981911180E00F90DF91CF911F91EA
:105A20000F91FF90EF900895529A5A9A08955298C4
:105A30005A9AEA9AE9E6F0E080818F7C80830895A3
:105A4000615091E001C0990F6A95EAF720E031E0DA
:105A5000992361F0492F482319F05A9A232701C04E
:105A60005A9840E24A95F1F79695F2CF222311F029
:105A70005A9A01C05A9880E28A95F1F75A98089587
:105A8000FF920F931F93CF93DF93EC018C01060FCE
:105A9000111DC017D10741F0F9900E94BF2C68E09A
:105AA0008F2D0E94202DF5CFDF91CF911F910F9167
:105AB000FF9008951F920F920FB60F921124EF924C
:105AC000FF920F931F932F933F934F935F936F9387
:105AD0007F938F939F93AF93BF93EF93FF93CF9356
